{
  "transactions": [
    {
      "hash": "0x01f410edcaf5d927bf4eceedd76932d2427444723dc9ea9a1693346a0543c4d2",
      "transactionType": "CALL",
      "contractName": null,
      "contractAddress": "0x64dd1cb8a77fb55d4838897fd6f60e28b2e8fed8",
      "function": "adminMint(address,uint256,uint256)",
      "arguments": [
        "0x634989990acb7F95d07Ac09a6c35491Ac8dFa3Cf",
        "0",
        "1"
      ],
      "transaction": {
        "from": "0x634989990acb7f95d07ac09a6c35491ac8dfa3cf",
        "to": "0x64dd1cb8a77fb55d4838897fd6f60e28b2e8fed8",
        "gas": "0xd91a",
        "value": "0x0",
        "input": "0x004a84cb000000000000000000000000634989990acb7f95d07ac09a6c35491ac8dfa3cf00000000000000000000000000000000000000000000000000000000000000000000000000000000000000000000000000000000000000000000000000000001",
        "nonce": "0x54b",
        "chainId": "0x8173"
      },
      "additionalContracts": [],
      "isFixedGasLimit": false
    },
    {
      "hash": "0x9f603084f3d008a7a2b3adf6a58194964f1a9ca9b95c3657da3c1117d9e7736a",
      "transactionType": "CALL",
      "contractName": null,
      "contractAddress": "0x64dd1cb8a77fb55d4838897fd6f60e28b2e8fed8",
      "function": "adminMint(address,uint256,uint256)",
      "arguments": [
        "0x634989990acb7F95d07Ac09a6c35491Ac8dFa3Cf",
        "1",
        "1"
      ],
      "transaction": {
        "from": "0x634989990acb7f95d07ac09a6c35491ac8dfa3cf",
        "to": "0x64dd1cb8a77fb55d4838897fd6f60e28b2e8fed8",
        "gas": "0x13add",
        "value": "0x0",
        "input": "0x004a84cb000000000000000000000000634989990acb7f95d07ac09a6c35491ac8dfa3cf00000000000000000000000000000000000000000000000000000000000000010000000000000000000000000000000000000000000000000000000000000001",
        "nonce": "0x54c",
        "chainId": "0x8173"
      },
      "additionalContracts": [],
      "isFixedGasLimit": false
    },
    {
      "hash": "0x201ecfe0ebf6d2f70d0049e924d9be5fdac02b0914bfc748ba14466780a9864d",
      "transactionType": "CALL",
      "contractName": null,
      "contractAddress": "0x64dd1cb8a77fb55d4838897fd6f60e28b2e8fed8",
      "function": "adminMint(address,uint256,uint256)",
      "arguments": [
        "0x634989990acb7F95d07Ac09a6c35491Ac8dFa3Cf",
        "2",
        "1"
      ],
      "transaction": {
        "from": "0x634989990acb7f95d07ac09a6c35491ac8dfa3cf",
        "to": "0x64dd1cb8a77fb55d4838897fd6f60e28b2e8fed8",
        "gas": "0x13add",
        "value": "0x0",
        "input": "0x004a84cb000000000000000000000000634989990acb7f95d07ac09a6c35491ac8dfa3cf00000000000000000000000000000000000000000000000000000000000000020000000000000000000000000000000000000000000000000000000000000001",
        "nonce": "0x54d",
        "chainId": "0x8173"
      },
      "additionalContracts": [],
      "isFixedGasLimit": false
    },
    {
      "hash": "0x9e1bb839281bb0c98a8bee22bb586951cf00250946d31f840e17116358b3ebf0",
      "transactionType": "CALL",
      "contractName": null,
      "contractAddress": "0x64dd1cb8a77fb55d4838897fd6f60e28b2e8fed8",
      "function": "adminMint(address,uint256,uint256)",
      "arguments": [
        "0x634989990acb7F95d07Ac09a6c35491Ac8dFa3Cf",
        "3",
        "1"
      ],
      "transaction": {
        "from": "0x634989990acb7f95d07ac09a6c35491ac8dfa3cf",
        "to": "0x64dd1cb8a77fb55d4838897fd6f60e28b2e8fed8",
        "gas": "0x13add",
        "value": "0x0",
        "input": "0x004a84cb000000000000000000000000634989990acb7f95d07ac09a6c35491ac8dfa3cf00000000000000000000000000000000000000000000000000000000000000030000000000000000000000000000000000000000000000000000000000000001",
        "nonce": "0x54e",
        "chainId": "0x8173"
      },
      "additionalContracts": [],
      "isFixedGasLimit": false
    },
    {
      "hash": "0x44321f313163bda8bb10e3a00412181987b82ed907bb5b9d3339173f9d6405b5",
      "transactionType": "CALL",
      "contractName": null,
      "contractAddress": "0x64dd1cb8a77fb55d4838897fd6f60e28b2e8fed8",
      "function": "adminMint(address,uint256,uint256)",
      "arguments": [
        "0x634989990acb7F95d07Ac09a6c35491Ac8dFa3Cf",
        "4",
        "1"
      ],
      "transaction": {
        "from": "0x634989990acb7f95d07ac09a6c35491ac8dfa3cf",
        "to": "0x64dd1cb8a77fb55d4838897fd6f60e28b2e8fed8",
        "gas": "0x13add",
        "value": "0x0",
        "input": "0x004a84cb000000000000000000000000634989990acb7f95d07ac09a6c35491ac8dfa3cf00000000000000000000000000000000000000000000000000000000000000040000000000000000000000000000000000000000000000000000000000000001",
        "nonce": "0x54f",
        "chainId": "0x8173"
      },
      "additionalContracts": [],
      "isFixedGasLimit": false
    },
    {
      "hash": "0xc0d6ff370d48b0845163981316f3145164c0ec19e4981f6e8f93be61370f48ea",
      "transactionType": "CALL",
      "contractName": null,
      "contractAddress": "0x64dd1cb8a77fb55d4838897fd6f60e28b2e8fed8",
      "function": "adminMint(address,uint256,uint256)",
      "arguments": [
        "0x634989990acb7F95d07Ac09a6c35491Ac8dFa3Cf",
        "5",
        "1"
      ],
      "transaction": {
        "from": "0x634989990acb7f95d07ac09a6c35491ac8dfa3cf",
        "to": "0x64dd1cb8a77fb55d4838897fd6f60e28b2e8fed8",
        "gas": "0x13add",
        "value": "0x0",
        "input": "0x004a84cb000000000000000000000000634989990acb7f95d07ac09a6c35491ac8dfa3cf00000000000000000000000000000000000000000000000000000000000000050000000000000000000000000000000000000000000000000000000000000001",
        "nonce": "0x550",
        "chainId": "0x8173"
      },
      "additionalContracts": [],
      "isFixedGasLimit": false
    },
    {
      "hash": "0xf2b1867527acdfb01252ff8efbbc574fc35b7969f7a9580ff8278b7630c49732",
      "transactionType": "CALL",
      "contractName": null,
      "contractAddress": "0x64dd1cb8a77fb55d4838897fd6f60e28b2e8fed8",
      "function": "adminMint(address,uint256,uint256)",
      "arguments": [
        "0x634989990acb7F95d07Ac09a6c35491Ac8dFa3Cf",
        "6",
        "1"
      ],
      "transaction": {
        "from": "0x634989990acb7f95d07ac09a6c35491ac8dfa3cf",
        "to": "0x64dd1cb8a77fb55d4838897fd6f60e28b2e8fed8",
        "gas": "0x13add",
        "value": "0x0",
        "input": "0x004a84cb000000000000000000000000634989990acb7f95d07ac09a6c35491ac8dfa3cf00000000000000000000000000000000000000000000000000000000000000060000000000000000000000000000000000000000000000000000000000000001",
        "nonce": "0x551",
        "chainId": "0x8173"
      },
      "additionalContracts": [],
      "isFixedGasLimit": false
    },
    {
      "hash": "0xb43c03b09f1f5aeea25e94bdc642d5159df78f96795a4798eee44698cce36554",
      "transactionType": "CALL",
      "contractName": null,
      "contractAddress": "0x64dd1cb8a77fb55d4838897fd6f60e28b2e8fed8",
      "function": "adminMint(address,uint256,uint256)",
      "arguments": [
        "0x634989990acb7F95d07Ac09a6c35491Ac8dFa3Cf",
        "7",
        "1"
      ],
      "transaction": {
        "from": "0x634989990acb7f95d07ac09a6c35491ac8dfa3cf",
        "to": "0x64dd1cb8a77fb55d4838897fd6f60e28b2e8fed8",
        "gas": "0x13add",
        "value": "0x0",
        "input": "0x004a84cb000000000000000000000000634989990acb7f95d07ac09a6c35491ac8dfa3cf00000000000000000000000000000000000000000000000000000000000000070000000000000000000000000000000000000000000000000000000000000001",
        "nonce": "0x552",
        "chainId": "0x8173"
      },
      "additionalContracts": [],
      "isFixedGasLimit": false
    },
    {
      "hash": "0x5c4da334f7a08864b7c606f3b42b2a4c03b76367f1d3ae7adcf7b54aa1f255c1",
      "transactionType": "CALL",
      "contractName": null,
      "contractAddress": "0x64dd1cb8a77fb55d4838897fd6f60e28b2e8fed8",
      "function": "adminMint(address,uint256,uint256)",
      "arguments": [
        "0x634989990acb7F95d07Ac09a6c35491Ac8dFa3Cf",
        "8",
        "1"
      ],
      "transaction": {
        "from": "0x634989990acb7f95d07ac09a6c35491ac8dfa3cf",
        "to": "0x64dd1cb8a77fb55d4838897fd6f60e28b2e8fed8",
        "gas": "0x13add",
        "value": "0x0",
        "input": "0x004a84cb000000000000000000000000634989990acb7f95d07ac09a6c35491ac8dfa3cf00000000000000000000000000000000000000000000000000000000000000080000000000000000000000000000000000000000000000000000000000000001",
        "nonce": "0x553",
        "chainId": "0x8173"
      },
      "additionalContracts": [],
      "isFixedGasLimit": false
    },
    {
      "hash": "0x36a4e48564e2b147dc8d197ed9514911a5bcc596c502b9f02772b964e7b616c4",
      "transactionType": "CALL",
      "contractName": null,
      "contractAddress": "0x64dd1cb8a77fb55d4838897fd6f60e28b2e8fed8",
      "function": "adminMint(address,uint256,uint256)",
      "arguments": [
        "0x634989990acb7F95d07Ac09a6c35491Ac8dFa3Cf",
        "9",
        "1"
      ],
      "transaction": {
        "from": "0x634989990acb7f95d07ac09a6c35491ac8dfa3cf",
        "to": "0x64dd1cb8a77fb55d4838897fd6f60e28b2e8fed8",
        "gas": "0x13add",
        "value": "0x0",
        "input": "0x004a84cb000000000000000000000000634989990acb7f95d07ac09a6c35491ac8dfa3cf00000000000000000000000000000000000000000000000000000000000000090000000000000000000000000000000000000000000000000000000000000001",
        "nonce": "0x554",
        "chainId": "0x8173"
      },
      "additionalContracts": [],
      "isFixedGasLimit": false
    },
    {
      "hash": "0xd87248514f70acfe5b215617384009046f2ca20c9b32b7a55821d8b15bef5c44",
      "transactionType": "CALL",
      "contractName": null,
      "contractAddress": "0x64dd1cb8a77fb55d4838897fd6f60e28b2e8fed8",
      "function": "adminMint(address,uint256,uint256)",
      "arguments": [
        "0x634989990acb7F95d07Ac09a6c35491Ac8dFa3Cf",
        "10",
        "1"
      ],
      "transaction": {
        "from": "0x634989990acb7f95d07ac09a6c35491ac8dfa3cf",
        "to": "0x64dd1cb8a77fb55d4838897fd6f60e28b2e8fed8",
        "gas": "0x13add",
        "value": "0x0",
        "input": "0x004a84cb000000000000000000000000634989990acb7f95d07ac09a6c35491ac8dfa3cf000000000000000000000000000000000000000000000000000000000000000a0000000000000000000000000000000000000000000000000000000000000001",
        "nonce": "0x555",
        "chainId": "0x8173"
      },
      "additionalContracts": [],
      "isFixedGasLimit": false
    },
    {
      "hash": "0x7b8892e933a507f7d062b8947fcd06ea2481ce356affd644b7477da499959793",
      "transactionType": "CALL",
      "contractName": null,
      "contractAddress": "0x64dd1cb8a77fb55d4838897fd6f60e28b2e8fed8",
      "function": "adminMint(address,uint256,uint256)",
      "arguments": [
        "0x634989990acb7F95d07Ac09a6c35491Ac8dFa3Cf",
        "11",
        "1"
      ],
      "transaction": {
        "from": "0x634989990acb7f95d07ac09a6c35491ac8dfa3cf",
        "to": "0x64dd1cb8a77fb55d4838897fd6f60e28b2e8fed8",
        "gas": "0x13add",
        "value": "0x0",
        "input": "0x004a84cb000000000000000000000000634989990acb7f95d07ac09a6c35491ac8dfa3cf000000000000000000000000000000000000000000000000000000000000000b0000000000000000000000000000000000000000000000000000000000000001",
        "nonce": "0x556",
        "chainId": "0x8173"
      },
      "additionalContracts": [],
      "isFixedGasLimit": false
    },
    {
      "hash": "0x347694ff71a7759fe42b85b7a6937e66778cc67d76f99339b4b61c2fbb3fca62",
      "transactionType": "CALL",
      "contractName": null,
      "contractAddress": "0x64dd1cb8a77fb55d4838897fd6f60e28b2e8fed8",
      "function": "adminMint(address,uint256,uint256)",
      "arguments": [
        "0x634989990acb7F95d07Ac09a6c35491Ac8dFa3Cf",
        "12",
        "1"
      ],
      "transaction": {
        "from": "0x634989990acb7f95d07ac09a6c35491ac8dfa3cf",
        "to": "0x64dd1cb8a77fb55d4838897fd6f60e28b2e8fed8",
        "gas": "0x13add",
        "value": "0x0",
        "input": "0x004a84cb000000000000000000000000634989990acb7f95d07ac09a6c35491ac8dfa3cf000000000000000000000000000000000000000000000000000000000000000c0000000000000000000000000000000000000000000000000000000000000001",
        "nonce": "0x557",
        "chainId": "0x8173"
      },
      "additionalContracts": [],
      "isFixedGasLimit": false
    },
    {
      "hash": "0xfb5f949b0c2fa097df6ac0318740c6f63c6773760f1b8906db0d3eac6aa062ec",
      "transactionType": "CALL",
      "contractName": null,
      "contractAddress": "0x64dd1cb8a77fb55d4838897fd6f60e28b2e8fed8",
      "function": "adminMint(address,uint256,uint256)",
      "arguments": [
        "0x634989990acb7F95d07Ac09a6c35491Ac8dFa3Cf",
        "13",
        "1"
      ],
      "transaction": {
        "from": "0x634989990acb7f95d07ac09a6c35491ac8dfa3cf",
        "to": "0x64dd1cb8a77fb55d4838897fd6f60e28b2e8fed8",
        "gas": "0x13add",
        "value": "0x0",
        "input": "0x004a84cb000000000000000000000000634989990acb7f95d07ac09a6c35491ac8dfa3cf000000000000000000000000000000000000000000000000000000000000000d0000000000000000000000000000000000000000000000000000000000000001",
        "nonce": "0x558",
        "chainId": "0x8173"
      },
      "additionalContracts": [],
      "isFixedGasLimit": false
    },
    {
      "hash": "0x466eff042a0e29640569997d370b51eff9202d6bea221759b7cf504bfa2dbeb7",
      "transactionType": "CALL",
      "contractName": null,
      "contractAddress": "0x64dd1cb8a77fb55d4838897fd6f60e28b2e8fed8",
      "function": "adminMint(address,uint256,uint256)",
      "arguments": [
        "0x634989990acb7F95d07Ac09a6c35491Ac8dFa3Cf",
        "14",
        "1"
      ],
      "transaction": {
        "from": "0x634989990acb7f95d07ac09a6c35491ac8dfa3cf",
        "to": "0x64dd1cb8a77fb55d4838897fd6f60e28b2e8fed8",
        "gas": "0x13add",
        "value": "0x0",
        "input": "0x004a84cb000000000000000000000000634989990acb7f95d07ac09a6c35491ac8dfa3cf000000000000000000000000000000000000000000000000000000000000000e0000000000000000000000000000000000000000000000000000000000000001",
        "nonce": "0x559",
        "chainId": "0x8173"
      },
      "additionalContracts": [],
      "isFixedGasLimit": false
    },
    {
      "hash": "0x1e8c5aeb0545916121bf2629977cadfb410ff94e715a934eff8bb323f776ac60",
      "transactionType": "CALL",
      "contractName": null,
      "contractAddress": "0x64dd1cb8a77fb55d4838897fd6f60e28b2e8fed8",
      "function": "adminMint(address,uint256,uint256)",
      "arguments": [
        "0x634989990acb7F95d07Ac09a6c35491Ac8dFa3Cf",
        "15",
        "1"
      ],
      "transaction": {
        "from": "0x634989990acb7f95d07ac09a6c35491ac8dfa3cf",
        "to": "0x64dd1cb8a77fb55d4838897fd6f60e28b2e8fed8",
        "gas": "0x13add",
        "value": "0x0",
        "input": "0x004a84cb000000000000000000000000634989990acb7f95d07ac09a6c35491ac8dfa3cf000000000000000000000000000000000000000000000000000000000000000f0000000000000000000000000000000000000000000000000000000000000001",
        "nonce": "0x55a",
        "chainId": "0x8173"
      },
      "additionalContracts": [],
      "isFixedGasLimit": false
    },
    {
      "hash": "0x218e8a0ee177cac890274153961f8b42516a377c0e6109f3e0fb8cd9663fde3d",
      "transactionType": "CALL",
      "contractName": null,
      "contractAddress": "0x64dd1cb8a77fb55d4838897fd6f60e28b2e8fed8",
      "function": "adminMint(address,uint256,uint256)",
      "arguments": [
        "0x634989990acb7F95d07Ac09a6c35491Ac8dFa3Cf",
        "16",
        "1"
      ],
      "transaction": {
        "from": "0x634989990acb7f95d07ac09a6c35491ac8dfa3cf",
        "to": "0x64dd1cb8a77fb55d4838897fd6f60e28b2e8fed8",
        "gas": "0x13add",
        "value": "0x0",
        "input": "0x004a84cb000000000000000000000000634989990acb7f95d07ac09a6c35491ac8dfa3cf00000000000000000000000000000000000000000000000000000000000000100000000000000000000000000000000000000000000000000000000000000001",
        "nonce": "0x55b",
        "chainId": "0x8173"
      },
      "additionalContracts": [],
      "isFixedGasLimit": false
    },
    {
      "hash": "0x4917916235a1cdecc7c9ad4c6577d1b3cd7192ce5eb5211d2d3004b901fbbbf2",
      "transactionType": "CALL",
      "contractName": null,
      "contractAddress": "0x64dd1cb8a77fb55d4838897fd6f60e28b2e8fed8",
      "function": "adminMint(address,uint256,uint256)",
      "arguments": [
        "0x634989990acb7F95d07Ac09a6c35491Ac8dFa3Cf",
        "17",
        "1"
      ],
      "transaction": {
        "from": "0x634989990acb7f95d07ac09a6c35491ac8dfa3cf",
        "to": "0x64dd1cb8a77fb55d4838897fd6f60e28b2e8fed8",
        "gas": "0x13add",
        "value": "0x0",
        "input": "0x004a84cb000000000000000000000000634989990acb7f95d07ac09a6c35491ac8dfa3cf00000000000000000000000000000000000000000000000000000000000000110000000000000000000000000000000000000000000000000000000000000001",
        "nonce": "0x55c",
        "chainId": "0x8173"
      },
      "additionalContracts": [],
      "isFixedGasLimit": false
    },
    {
      "hash": "0xafe587525aa6a6719a9e9585f32de3e2a9f499b93a9003acc2e622daa8ad32ea",
      "transactionType": "CALL",
      "contractName": null,
      "contractAddress": "0x64dd1cb8a77fb55d4838897fd6f60e28b2e8fed8",
      "function": "adminMint(address,uint256,uint256)",
      "arguments": [
        "0x634989990acb7F95d07Ac09a6c35491Ac8dFa3Cf",
        "18",
        "1"
      ],
      "transaction": {
        "from": "0x634989990acb7f95d07ac09a6c35491ac8dfa3cf",
        "to": "0x64dd1cb8a77fb55d4838897fd6f60e28b2e8fed8",
        "gas": "0x13add",
        "value": "0x0",
        "input": "0x004a84cb000000000000000000000000634989990acb7f95d07ac09a6c35491ac8dfa3cf00000000000000000000000000000000000000000000000000000000000000120000000000000000000000000000000000000000000000000000000000000001",
        "nonce": "0x55d",
        "chainId": "0x8173"
      },
      "additionalContracts": [],
      "isFixedGasLimit": false
    },
    {
      "hash": "0x540bf0c5f6d45a2653d00bc31318b42b661f5243a9d4677eca858a4d119f740e",
      "transactionType": "CALL",
      "contractName": null,
      "contractAddress": "0x64dd1cb8a77fb55d4838897fd6f60e28b2e8fed8",
      "function": "adminMint(address,uint256,uint256)",
      "arguments": [
        "0x634989990acb7F95d07Ac09a6c35491Ac8dFa3Cf",
        "19",
        "1"
      ],
      "transaction": {
        "from": "0x634989990acb7f95d07ac09a6c35491ac8dfa3cf",
        "to": "0x64dd1cb8a77fb55d4838897fd6f60e28b2e8fed8",
        "gas": "0x13add",
        "value": "0x0",
        "input": "0x004a84cb000000000000000000000000634989990acb7f95d07ac09a6c35491ac8dfa3cf00000000000000000000000000000000000000000000000000000000000000130000000000000000000000000000000000000000000000000000000000000001",
        "nonce": "0x55e",
        "chainId": "0x8173"
      },
      "additionalContracts": [],
      "isFixedGasLimit": false
    },
    {
      "hash": "0x7efe25b4942daa60efb7a7391bd129f59db72e97ddb75b0a3524f6aab511b638",
      "transactionType": "CALL",
      "contractName": null,
      "contractAddress": "0x64dd1cb8a77fb55d4838897fd6f60e28b2e8fed8",
      "function": "adminMint(address,uint256,uint256)",
      "arguments": [
        "0x634989990acb7F95d07Ac09a6c35491Ac8dFa3Cf",
        "20",
        "1"
      ],
      "transaction": {
        "from": "0x634989990acb7f95d07ac09a6c35491ac8dfa3cf",
        "to": "0x64dd1cb8a77fb55d4838897fd6f60e28b2e8fed8",
        "gas": "0x13add",
        "value": "0x0",
        "input": "0x004a84cb000000000000000000000000634989990acb7f95d07ac09a6c35491ac8dfa3cf00000000000000000000000000000000000000000000000000000000000000140000000000000000000000000000000000000000000000000000000000000001",
        "nonce": "0x55f",
        "chainId": "0x8173"
      },
      "additionalContracts": [],
      "isFixedGasLimit": false
    },
    {
      "hash": "0x03c6c63ad8c32251b35f8d2f5294b368b8cbd92ec54b09adfaab7e112c2adb4e",
      "transactionType": "CALL",
      "contractName": null,
      "contractAddress": "0x64dd1cb8a77fb55d4838897fd6f60e28b2e8fed8",
      "function": "adminMint(address,uint256,uint256)",
      "arguments": [
        "0x634989990acb7F95d07Ac09a6c35491Ac8dFa3Cf",
        "21",
        "1"
      ],
      "transaction": {
        "from": "0x634989990acb7f95d07ac09a6c35491ac8dfa3cf",
        "to": "0x64dd1cb8a77fb55d4838897fd6f60e28b2e8fed8",
        "gas": "0x13add",
        "value": "0x0",
        "input": "0x004a84cb000000000000000000000000634989990acb7f95d07ac09a6c35491ac8dfa3cf00000000000000000000000000000000000000000000000000000000000000150000000000000000000000000000000000000000000000000000000000000001",
        "nonce": "0x560",
        "chainId": "0x8173"
      },
      "additionalContracts": [],
      "isFixedGasLimit": false
    },
    {
      "hash": "0xf1b78510dae9399b6008466663cec4539a43e773843584bfd5542a93d845e6da",
      "transactionType": "CALL",
      "contractName": null,
      "contractAddress": "0x64dd1cb8a77fb55d4838897fd6f60e28b2e8fed8",
      "function": "adminMint(address,uint256,uint256)",
      "arguments": [
        "0x634989990acb7F95d07Ac09a6c35491Ac8dFa3Cf",
        "22",
        "1"
      ],
      "transaction": {
        "from": "0x634989990acb7f95d07ac09a6c35491ac8dfa3cf",
        "to": "0x64dd1cb8a77fb55d4838897fd6f60e28b2e8fed8",
        "gas": "0x13add",
        "value": "0x0",
        "input": "0x004a84cb000000000000000000000000634989990acb7f95d07ac09a6c35491ac8dfa3cf00000000000000000000000000000000000000000000000000000000000000160000000000000000000000000000000000000000000000000000000000000001",
        "nonce": "0x561",
        "chainId": "0x8173"
      },
      "additionalContracts": [],
      "isFixedGasLimit": false
    },
    {
      "hash": "0x0b350447db4ff16e232267ae5c3d2175832f4a186f0c214092164e1ef8db47c2",
      "transactionType": "CALL",
      "contractName": null,
      "contractAddress": "0x64dd1cb8a77fb55d4838897fd6f60e28b2e8fed8",
      "function": "adminMint(address,uint256,uint256)",
      "arguments": [
        "0x634989990acb7F95d07Ac09a6c35491Ac8dFa3Cf",
        "23",
        "1"
      ],
      "transaction": {
        "from": "0x634989990acb7f95d07ac09a6c35491ac8dfa3cf",
        "to": "0x64dd1cb8a77fb55d4838897fd6f60e28b2e8fed8",
        "gas": "0x13add",
        "value": "0x0",
        "input": "0x004a84cb000000000000000000000000634989990acb7f95d07ac09a6c35491ac8dfa3cf00000000000000000000000000000000000000000000000000000000000000170000000000000000000000000000000000000000000000000000000000000001",
        "nonce": "0x562",
        "chainId": "0x8173"
      },
      "additionalContracts": [],
      "isFixedGasLimit": false
    },
    {
      "hash": "0x92fc2983bfbacfbfe8fd6a91eaf4308761761f8891c890f9c15d0e347fb13a7d",
      "transactionType": "CALL",
      "contractName": null,
      "contractAddress": "0x64dd1cb8a77fb55d4838897fd6f60e28b2e8fed8",
      "function": "adminMint(address,uint256,uint256)",
      "arguments": [
        "0x634989990acb7F95d07Ac09a6c35491Ac8dFa3Cf",
        "24",
        "1"
      ],
      "transaction": {
        "from": "0x634989990acb7f95d07ac09a6c35491ac8dfa3cf",
        "to": "0x64dd1cb8a77fb55d4838897fd6f60e28b2e8fed8",
        "gas": "0x13add",
        "value": "0x0",
        "input": "0x004a84cb000000000000000000000000634989990acb7f95d07ac09a6c35491ac8dfa3cf00000000000000000000000000000000000000000000000000000000000000180000000000000000000000000000000000000000000000000000000000000001",
        "nonce": "0x563",
        "chainId": "0x8173"
      },
      "additionalContracts": [],
      "isFixedGasLimit": false
    },
    {
      "hash": "0x31024d80aa18cad437afa98a8ec4b7a3e59e6207564fdf62c8f9d82aac6f74f2",
      "transactionType": "CALL",
      "contractName": null,
      "contractAddress": "0x64dd1cb8a77fb55d4838897fd6f60e28b2e8fed8",
      "function": "adminMint(address,uint256,uint256)",
      "arguments": [
        "0x634989990acb7F95d07Ac09a6c35491Ac8dFa3Cf",
        "25",
        "1"
      ],
      "transaction": {
        "from": "0x634989990acb7f95d07ac09a6c35491ac8dfa3cf",
        "to": "0x64dd1cb8a77fb55d4838897fd6f60e28b2e8fed8",
        "gas": "0x13add",
        "value": "0x0",
        "input": "0x004a84cb000000000000000000000000634989990acb7f95d07ac09a6c35491ac8dfa3cf00000000000000000000000000000000000000000000000000000000000000190000000000000000000000000000000000000000000000000000000000000001",
        "nonce": "0x564",
        "chainId": "0x8173"
      },
      "additionalContracts": [],
      "isFixedGasLimit": false
    },
    {
      "hash": "0x81e9ec62463307c200201f067b7f7a5f54a2a046747ba6ab006dd3639476989a",
      "transactionType": "CALL",
      "contractName": null,
      "contractAddress": "0x64dd1cb8a77fb55d4838897fd6f60e28b2e8fed8",
      "function": "adminMint(address,uint256,uint256)",
      "arguments": [
        "0x634989990acb7F95d07Ac09a6c35491Ac8dFa3Cf",
        "26",
        "1"
      ],
      "transaction": {
        "from": "0x634989990acb7f95d07ac09a6c35491ac8dfa3cf",
        "to": "0x64dd1cb8a77fb55d4838897fd6f60e28b2e8fed8",
        "gas": "0x13add",
        "value": "0x0",
        "input": "0x004a84cb000000000000000000000000634989990acb7f95d07ac09a6c35491ac8dfa3cf000000000000000000000000000000000000000000000000000000000000001a0000000000000000000000000000000000000000000000000000000000000001",
        "nonce": "0x565",
        "chainId": "0x8173"
      },
      "additionalContracts": [],
      "isFixedGasLimit": false
    },
    {
      "hash": "0xeb3af73dc556b78bf34c70ad3e8151e616073dd3bfca334afe2aaa1db04f2583",
      "transactionType": "CALL",
      "contractName": null,
      "contractAddress": "0x64dd1cb8a77fb55d4838897fd6f60e28b2e8fed8",
      "function": "adminMint(address,uint256,uint256)",
      "arguments": [
        "0x634989990acb7F95d07Ac09a6c35491Ac8dFa3Cf",
        "27",
        "1"
      ],
      "transaction": {
        "from": "0x634989990acb7f95d07ac09a6c35491ac8dfa3cf",
        "to": "0x64dd1cb8a77fb55d4838897fd6f60e28b2e8fed8",
        "gas": "0x13add",
        "value": "0x0",
        "input": "0x004a84cb000000000000000000000000634989990acb7f95d07ac09a6c35491ac8dfa3cf000000000000000000000000000000000000000000000000000000000000001b0000000000000000000000000000000000000000000000000000000000000001",
        "nonce": "0x566",
        "chainId": "0x8173"
      },
      "additionalContracts": [],
      "isFixedGasLimit": false
    },
    {
      "hash": "0xe336a2f6c842dbc731fd25dcaf578580e925cdac4f73f34e11300b7e791f1e0e",
      "transactionType": "CALL",
      "contractName": null,
      "contractAddress": "0x64dd1cb8a77fb55d4838897fd6f60e28b2e8fed8",
      "function": "adminMint(address,uint256,uint256)",
      "arguments": [
        "0x634989990acb7F95d07Ac09a6c35491Ac8dFa3Cf",
        "28",
        "1"
      ],
      "transaction": {
        "from": "0x634989990acb7f95d07ac09a6c35491ac8dfa3cf",
        "to": "0x64dd1cb8a77fb55d4838897fd6f60e28b2e8fed8",
        "gas": "0x13add",
        "value": "0x0",
        "input": "0x004a84cb000000000000000000000000634989990acb7f95d07ac09a6c35491ac8dfa3cf000000000000000000000000000000000000000000000000000000000000001c0000000000000000000000000000000000000000000000000000000000000001",
        "nonce": "0x567",
        "chainId": "0x8173"
      },
      "additionalContracts": [],
      "isFixedGasLimit": false
    },
    {
      "hash": "0xdac71e5c59ffbfd1e7932356c1b8c34767f8e409a1d2dbd442053d207523f9f3",
      "transactionType": "CALL",
      "contractName": null,
      "contractAddress": "0x64dd1cb8a77fb55d4838897fd6f60e28b2e8fed8",
      "function": "adminMint(address,uint256,uint256)",
      "arguments": [
        "0x634989990acb7F95d07Ac09a6c35491Ac8dFa3Cf",
        "29",
        "1"
      ],
      "transaction": {
        "from": "0x634989990acb7f95d07ac09a6c35491ac8dfa3cf",
        "to": "0x64dd1cb8a77fb55d4838897fd6f60e28b2e8fed8",
        "gas": "0x13add",
        "value": "0x0",
        "input": "0x004a84cb000000000000000000000000634989990acb7f95d07ac09a6c35491ac8dfa3cf000000000000000000000000000000000000000000000000000000000000001d0000000000000000000000000000000000000000000000000000000000000001",
        "nonce": "0x568",
        "chainId": "0x8173"
      },
      "additionalContracts": [],
      "isFixedGasLimit": false
    },
    {
      "hash": "0xbf918b7366cf0bb90a73ca0d23e9fb50fce9be148479f591c19f90e4ecb3088a",
      "transactionType": "CALL",
      "contractName": null,
      "contractAddress": "0x64dd1cb8a77fb55d4838897fd6f60e28b2e8fed8",
      "function": "adminMint(address,uint256,uint256)",
      "arguments": [
        "0x634989990acb7F95d07Ac09a6c35491Ac8dFa3Cf",
        "30",
        "1"
      ],
      "transaction": {
        "from": "0x634989990acb7f95d07ac09a6c35491ac8dfa3cf",
        "to": "0x64dd1cb8a77fb55d4838897fd6f60e28b2e8fed8",
        "gas": "0x13add",
        "value": "0x0",
        "input": "0x004a84cb000000000000000000000000634989990acb7f95d07ac09a6c35491ac8dfa3cf000000000000000000000000000000000000000000000000000000000000001e0000000000000000000000000000000000000000000000000000000000000001",
        "nonce": "0x569",
        "chainId": "0x8173"
      },
      "additionalContracts": [],
      "isFixedGasLimit": false
    },
    {
      "hash": "0xcfca1a9a2d55bb179fc44214d662dfd02f09553d63a07cee5ba7905f0b945d51",
      "transactionType": "CALL",
      "contractName": null,
      "contractAddress": "0x64dd1cb8a77fb55d4838897fd6f60e28b2e8fed8",
      "function": "adminMint(address,uint256,uint256)",
      "arguments": [
        "0x634989990acb7F95d07Ac09a6c35491Ac8dFa3Cf",
        "31",
        "1"
      ],
      "transaction": {
        "from": "0x634989990acb7f95d07ac09a6c35491ac8dfa3cf",
        "to": "0x64dd1cb8a77fb55d4838897fd6f60e28b2e8fed8",
        "gas": "0x13add",
        "value": "0x0",
        "input": "0x004a84cb000000000000000000000000634989990acb7f95d07ac09a6c35491ac8dfa3cf000000000000000000000000000000000000000000000000000000000000001f0000000000000000000000000000000000000000000000000000000000000001",
        "nonce": "0x56a",
        "chainId": "0x8173"
      },
      "additionalContracts": [],
      "isFixedGasLimit": false
    },
    {
      "hash": "0x6679b9459676bb3163c5fb04462186f34e18c738d179a7f940554e1055471928",
      "transactionType": "CALL",
      "contractName": null,
      "contractAddress": "0x64dd1cb8a77fb55d4838897fd6f60e28b2e8fed8",
      "function": "adminMint(address,uint256,uint256)",
      "arguments": [
        "0x634989990acb7F95d07Ac09a6c35491Ac8dFa3Cf",
        "32",
        "1"
      ],
      "transaction": {
        "from": "0x634989990acb7f95d07ac09a6c35491ac8dfa3cf",
        "to": "0x64dd1cb8a77fb55d4838897fd6f60e28b2e8fed8",
        "gas": "0x13add",
        "value": "0x0",
        "input": "0x004a84cb000000000000000000000000634989990acb7f95d07ac09a6c35491ac8dfa3cf00000000000000000000000000000000000000000000000000000000000000200000000000000000000000000000000000000000000000000000000000000001",
        "nonce": "0x56b",
        "chainId": "0x8173"
      },
      "additionalContracts": [],
      "isFixedGasLimit": false
    },
    {
      "hash": "0x893f63712413cdaca00ddda8f01acb69554aaf754a93a03e2b5b65e3c62a027c",
      "transactionType": "CALL",
      "contractName": null,
      "contractAddress": "0x64dd1cb8a77fb55d4838897fd6f60e28b2e8fed8",
      "function": "adminMint(address,uint256,uint256)",
      "arguments": [
        "0x634989990acb7F95d07Ac09a6c35491Ac8dFa3Cf",
        "33",
        "1"
      ],
      "transaction": {
        "from": "0x634989990acb7f95d07ac09a6c35491ac8dfa3cf",
        "to": "0x64dd1cb8a77fb55d4838897fd6f60e28b2e8fed8",
        "gas": "0x13add",
        "value": "0x0",
        "input": "0x004a84cb000000000000000000000000634989990acb7f95d07ac09a6c35491ac8dfa3cf00000000000000000000000000000000000000000000000000000000000000210000000000000000000000000000000000000000000000000000000000000001",
        "nonce": "0x56c",
        "chainId": "0x8173"
      },
      "additionalContracts": [],
      "isFixedGasLimit": false
    },
    {
      "hash": "0x5c9f034fc4612f8beec567e4f1860b5a5e82effb939206e48f1692ec691597fb",
      "transactionType": "CALL",
      "contractName": null,
      "contractAddress": "0x64dd1cb8a77fb55d4838897fd6f60e28b2e8fed8",
      "function": "adminMint(address,uint256,uint256)",
      "arguments": [
        "0x634989990acb7F95d07Ac09a6c35491Ac8dFa3Cf",
        "34",
        "1"
      ],
      "transaction": {
        "from": "0x634989990acb7f95d07ac09a6c35491ac8dfa3cf",
        "to": "0x64dd1cb8a77fb55d4838897fd6f60e28b2e8fed8",
        "gas": "0x13add",
        "value": "0x0",
        "input": "0x004a84cb000000000000000000000000634989990acb7f95d07ac09a6c35491ac8dfa3cf00000000000000000000000000000000000000000000000000000000000000220000000000000000000000000000000000000000000000000000000000000001",
        "nonce": "0x56d",
        "chainId": "0x8173"
      },
      "additionalContracts": [],
      "isFixedGasLimit": false
    },
    {
      "hash": "0x62be47d0a770c85e0350310d56e1b73bf8aaf2d94dae70a9527ad1826e63c4b9",
      "transactionType": "CALL",
      "contractName": null,
      "contractAddress": "0x64dd1cb8a77fb55d4838897fd6f60e28b2e8fed8",
      "function": "adminMint(address,uint256,uint256)",
      "arguments": [
        "0x634989990acb7F95d07Ac09a6c35491Ac8dFa3Cf",
        "35",
        "1"
      ],
      "transaction": {
        "from": "0x634989990acb7f95d07ac09a6c35491ac8dfa3cf",
        "to": "0x64dd1cb8a77fb55d4838897fd6f60e28b2e8fed8",
        "gas": "0x13add",
        "value": "0x0",
        "input": "0x004a84cb000000000000000000000000634989990acb7f95d07ac09a6c35491ac8dfa3cf00000000000000000000000000000000000000000000000000000000000000230000000000000000000000000000000000000000000000000000000000000001",
        "nonce": "0x56e",
        "chainId": "0x8173"
      },
      "additionalContracts": [],
      "isFixedGasLimit": false
    },
    {
      "hash": "0xd090ffe2851d35b2ab473345a473b8876b68ad30fc88e7c034d0ca38720e7f53",
      "transactionType": "CALL",
      "contractName": null,
      "contractAddress": "0x64dd1cb8a77fb55d4838897fd6f60e28b2e8fed8",
      "function": "adminMint(address,uint256,uint256)",
      "arguments": [
        "0x634989990acb7F95d07Ac09a6c35491Ac8dFa3Cf",
        "36",
        "1"
      ],
      "transaction": {
        "from": "0x634989990acb7f95d07ac09a6c35491ac8dfa3cf",
        "to": "0x64dd1cb8a77fb55d4838897fd6f60e28b2e8fed8",
        "gas": "0x13add",
        "value": "0x0",
        "input": "0x004a84cb000000000000000000000000634989990acb7f95d07ac09a6c35491ac8dfa3cf00000000000000000000000000000000000000000000000000000000000000240000000000000000000000000000000000000000000000000000000000000001",
        "nonce": "0x56f",
        "chainId": "0x8173"
      },
      "additionalContracts": [],
      "isFixedGasLimit": false
    },
    {
      "hash": "0x0658baf405e1dc41cca479e5f7c4cd347fe26400fa88ca7383c2e579d0b99223",
      "transactionType": "CALL",
      "contractName": null,
      "contractAddress": "0x64dd1cb8a77fb55d4838897fd6f60e28b2e8fed8",
      "function": "adminMint(address,uint256,uint256)",
      "arguments": [
        "0x634989990acb7F95d07Ac09a6c35491Ac8dFa3Cf",
        "37",
        "1"
      ],
      "transaction": {
        "from": "0x634989990acb7f95d07ac09a6c35491ac8dfa3cf",
        "to": "0x64dd1cb8a77fb55d4838897fd6f60e28b2e8fed8",
        "gas": "0x13add",
        "value": "0x0",
        "input": "0x004a84cb000000000000000000000000634989990acb7f95d07ac09a6c35491ac8dfa3cf00000000000000000000000000000000000000000000000000000000000000250000000000000000000000000000000000000000000000000000000000000001",
        "nonce": "0x570",
        "chainId": "0x8173"
      },
      "additionalContracts": [],
      "isFixedGasLimit": false
    },
    {
      "hash": "0x64c4246d0a1d07b640a68d869d414625a95684f07609d4272dd0a5f4601c50e5",
      "transactionType": "CALL",
      "contractName": null,
      "contractAddress": "0x64dd1cb8a77fb55d4838897fd6f60e28b2e8fed8",
      "function": "adminMint(address,uint256,uint256)",
      "arguments": [
        "0x634989990acb7F95d07Ac09a6c35491Ac8dFa3Cf",
        "38",
        "1"
      ],
      "transaction": {
        "from": "0x634989990acb7f95d07ac09a6c35491ac8dfa3cf",
        "to": "0x64dd1cb8a77fb55d4838897fd6f60e28b2e8fed8",
        "gas": "0x13add",
        "value": "0x0",
        "input": "0x004a84cb000000000000000000000000634989990acb7f95d07ac09a6c35491ac8dfa3cf00000000000000000000000000000000000000000000000000000000000000260000000000000000000000000000000000000000000000000000000000000001",
        "nonce": "0x571",
        "chainId": "0x8173"
      },
      "additionalContracts": [],
      "isFixedGasLimit": false
    },
    {
      "hash": "0xe5a280eabfbc9e0c136192716bde41d51ed7df2730383150c83845eaaefcfbae",
      "transactionType": "CALL",
      "contractName": null,
      "contractAddress": "0x64dd1cb8a77fb55d4838897fd6f60e28b2e8fed8",
      "function": "adminMint(address,uint256,uint256)",
      "arguments": [
        "0x634989990acb7F95d07Ac09a6c35491Ac8dFa3Cf",
        "39",
        "1"
      ],
      "transaction": {
        "from": "0x634989990acb7f95d07ac09a6c35491ac8dfa3cf",
        "to": "0x64dd1cb8a77fb55d4838897fd6f60e28b2e8fed8",
        "gas": "0x13add",
        "value": "0x0",
        "input": "0x004a84cb000000000000000000000000634989990acb7f95d07ac09a6c35491ac8dfa3cf00000000000000000000000000000000000000000000000000000000000000270000000000000000000000000000000000000000000000000000000000000001",
        "nonce": "0x572",
        "chainId": "0x8173"
      },
      "additionalContracts": [],
      "isFixedGasLimit": false
    },
    {
      "hash": "0x9ad0e264813e50828a334c42bbbe0af8fd3f4c822b621e57a0eb00221330b5a8",
      "transactionType": "CALL",
      "contractName": null,
      "contractAddress": "0x64dd1cb8a77fb55d4838897fd6f60e28b2e8fed8",
      "function": "adminMint(address,uint256,uint256)",
      "arguments": [
        "0x634989990acb7F95d07Ac09a6c35491Ac8dFa3Cf",
        "40",
        "1"
      ],
      "transaction": {
        "from": "0x634989990acb7f95d07ac09a6c35491ac8dfa3cf",
        "to": "0x64dd1cb8a77fb55d4838897fd6f60e28b2e8fed8",
        "gas": "0x13add",
        "value": "0x0",
        "input": "0x004a84cb000000000000000000000000634989990acb7f95d07ac09a6c35491ac8dfa3cf00000000000000000000000000000000000000000000000000000000000000280000000000000000000000000000000000000000000000000000000000000001",
        "nonce": "0x573",
        "chainId": "0x8173"
      },
      "additionalContracts": [],
      "isFixedGasLimit": false
    },
    {
      "hash": "0x3b63e471f97a85359a2216d3ee352b721e666ab8d9962d036c175a0a05e326e6",
      "transactionType": "CALL",
      "contractName": null,
      "contractAddress": "0x64dd1cb8a77fb55d4838897fd6f60e28b2e8fed8",
      "function": "adminMint(address,uint256,uint256)",
      "arguments": [
        "0x634989990acb7F95d07Ac09a6c35491Ac8dFa3Cf",
        "41",
        "1"
      ],
      "transaction": {
        "from": "0x634989990acb7f95d07ac09a6c35491ac8dfa3cf",
        "to": "0x64dd1cb8a77fb55d4838897fd6f60e28b2e8fed8",
        "gas": "0x13add",
        "value": "0x0",
        "input": "0x004a84cb000000000000000000000000634989990acb7f95d07ac09a6c35491ac8dfa3cf00000000000000000000000000000000000000000000000000000000000000290000000000000000000000000000000000000000000000000000000000000001",
        "nonce": "0x574",
        "chainId": "0x8173"
      },
      "additionalContracts": [],
      "isFixedGasLimit": false
    },
    {
      "hash": "0xf8d327375fda2b6952dc6430436267aadb5f5468c8b83a9761c7efd7af0c0b6e",
      "transactionType": "CALL",
      "contractName": null,
      "contractAddress": "0x64dd1cb8a77fb55d4838897fd6f60e28b2e8fed8",
      "function": "adminMint(address,uint256,uint256)",
      "arguments": [
        "0x634989990acb7F95d07Ac09a6c35491Ac8dFa3Cf",
        "42",
        "1"
      ],
      "transaction": {
        "from": "0x634989990acb7f95d07ac09a6c35491ac8dfa3cf",
        "to": "0x64dd1cb8a77fb55d4838897fd6f60e28b2e8fed8",
        "gas": "0x13add",
        "value": "0x0",
        "input": "0x004a84cb000000000000000000000000634989990acb7f95d07ac09a6c35491ac8dfa3cf000000000000000000000000000000000000000000000000000000000000002a0000000000000000000000000000000000000000000000000000000000000001",
        "nonce": "0x575",
        "chainId": "0x8173"
      },
      "additionalContracts": [],
      "isFixedGasLimit": false
    },
    {
      "hash": "0xf29ec9de8d4d982592b1df67993de32360fd72a0bc7b98263132ca743621b3cf",
      "transactionType": "CALL",
      "contractName": null,
      "contractAddress": "0x64dd1cb8a77fb55d4838897fd6f60e28b2e8fed8",
      "function": "adminMint(address,uint256,uint256)",
      "arguments": [
        "0x634989990acb7F95d07Ac09a6c35491Ac8dFa3Cf",
        "43",
        "1"
      ],
      "transaction": {
        "from": "0x634989990acb7f95d07ac09a6c35491ac8dfa3cf",
        "to": "0x64dd1cb8a77fb55d4838897fd6f60e28b2e8fed8",
        "gas": "0x13add",
        "value": "0x0",
        "input": "0x004a84cb000000000000000000000000634989990acb7f95d07ac09a6c35491ac8dfa3cf000000000000000000000000000000000000000000000000000000000000002b0000000000000000000000000000000000000000000000000000000000000001",
        "nonce": "0x576",
        "chainId": "0x8173"
      },
      "additionalContracts": [],
      "isFixedGasLimit": false
    },
    {
      "hash": "0x677c39014bfd443915824e9cba8e6b8edd1c0c973231d4b2a7a099f080539e80",
      "transactionType": "CALL",
      "contractName": null,
      "contractAddress": "0x64dd1cb8a77fb55d4838897fd6f60e28b2e8fed8",
      "function": "adminMint(address,uint256,uint256)",
      "arguments": [
        "0x634989990acb7F95d07Ac09a6c35491Ac8dFa3Cf",
        "44",
        "1"
      ],
      "transaction": {
        "from": "0x634989990acb7f95d07ac09a6c35491ac8dfa3cf",
        "to": "0x64dd1cb8a77fb55d4838897fd6f60e28b2e8fed8",
        "gas": "0x13add",
        "value": "0x0",
        "input": "0x004a84cb000000000000000000000000634989990acb7f95d07ac09a6c35491ac8dfa3cf000000000000000000000000000000000000000000000000000000000000002c0000000000000000000000000000000000000000000000000000000000000001",
        "nonce": "0x577",
        "chainId": "0x8173"
      },
      "additionalContracts": [],
      "isFixedGasLimit": false
    },
    {
      "hash": "0x1a60a1e9376e5a33b4943ef566f7c35909678066a313834f1f828b51fd5a3b14",
      "transactionType": "CALL",
      "contractName": null,
      "contractAddress": "0x64dd1cb8a77fb55d4838897fd6f60e28b2e8fed8",
      "function": "adminMint(address,uint256,uint256)",
      "arguments": [
        "0x634989990acb7F95d07Ac09a6c35491Ac8dFa3Cf",
        "45",
        "1"
      ],
      "transaction": {
        "from": "0x634989990acb7f95d07ac09a6c35491ac8dfa3cf",
        "to": "0x64dd1cb8a77fb55d4838897fd6f60e28b2e8fed8",
        "gas": "0x13add",
        "value": "0x0",
        "input": "0x004a84cb000000000000000000000000634989990acb7f95d07ac09a6c35491ac8dfa3cf000000000000000000000000000000000000000000000000000000000000002d0000000000000000000000000000000000000000000000000000000000000001",
        "nonce": "0x578",
        "chainId": "0x8173"
      },
      "additionalContracts": [],
      "isFixedGasLimit": false
    },
    {
      "hash": "0x97231ce9e31ff121aa9320daf3a31f401c31b80287ecd783f2c0959e7be91d6a",
      "transactionType": "CALL",
      "contractName": null,
      "contractAddress": "0x64dd1cb8a77fb55d4838897fd6f60e28b2e8fed8",
      "function": "adminMint(address,uint256,uint256)",
      "arguments": [
        "0x634989990acb7F95d07Ac09a6c35491Ac8dFa3Cf",
        "46",
        "1"
      ],
      "transaction": {
        "from": "0x634989990acb7f95d07ac09a6c35491ac8dfa3cf",
        "to": "0x64dd1cb8a77fb55d4838897fd6f60e28b2e8fed8",
        "gas": "0x13add",
        "value": "0x0",
        "input": "0x004a84cb000000000000000000000000634989990acb7f95d07ac09a6c35491ac8dfa3cf000000000000000000000000000000000000000000000000000000000000002e0000000000000000000000000000000000000000000000000000000000000001",
        "nonce": "0x579",
        "chainId": "0x8173"
      },
      "additionalContracts": [],
      "isFixedGasLimit": false
    },
    {
      "hash": "0x8e726ea21bbead68dc07694c21e8f810f1bc221221513efd4e451bfa9516268a",
      "transactionType": "CALL",
      "contractName": null,
      "contractAddress": "0x64dd1cb8a77fb55d4838897fd6f60e28b2e8fed8",
      "function": "adminMint(address,uint256,uint256)",
      "arguments": [
        "0x634989990acb7F95d07Ac09a6c35491Ac8dFa3Cf",
        "47",
        "1"
      ],
      "transaction": {
        "from": "0x634989990acb7f95d07ac09a6c35491ac8dfa3cf",
        "to": "0x64dd1cb8a77fb55d4838897fd6f60e28b2e8fed8",
        "gas": "0x13add",
        "value": "0x0",
        "input": "0x004a84cb000000000000000000000000634989990acb7f95d07ac09a6c35491ac8dfa3cf000000000000000000000000000000000000000000000000000000000000002f0000000000000000000000000000000000000000000000000000000000000001",
        "nonce": "0x57a",
        "chainId": "0x8173"
      },
      "additionalContracts": [],
      "isFixedGasLimit": false
    },
    {
      "hash": "0xd9a131176fd7f00dc47a881437031e4338898e3409d2b4f7ed86a17feedf98e1",
      "transactionType": "CALL",
      "contractName": null,
      "contractAddress": "0x64dd1cb8a77fb55d4838897fd6f60e28b2e8fed8",
      "function": "adminMint(address,uint256,uint256)",
      "arguments": [
        "0x634989990acb7F95d07Ac09a6c35491Ac8dFa3Cf",
        "48",
        "1"
      ],
      "transaction": {
        "from": "0x634989990acb7f95d07ac09a6c35491ac8dfa3cf",
        "to": "0x64dd1cb8a77fb55d4838897fd6f60e28b2e8fed8",
        "gas": "0x13add",
        "value": "0x0",
        "input": "0x004a84cb000000000000000000000000634989990acb7f95d07ac09a6c35491ac8dfa3cf00000000000000000000000000000000000000000000000000000000000000300000000000000000000000000000000000000000000000000000000000000001",
        "nonce": "0x57b",
        "chainId": "0x8173"
      },
      "additionalContracts": [],
      "isFixedGasLimit": false
    },
    {
      "hash": "0x332f52a0a27765eadef4799e34f1f2edb3bbb02d206160291179b4dc4abb665e",
      "transactionType": "CALL",
      "contractName": null,
      "contractAddress": "0x64dd1cb8a77fb55d4838897fd6f60e28b2e8fed8",
      "function": "adminMint(address,uint256,uint256)",
      "arguments": [
        "0x634989990acb7F95d07Ac09a6c35491Ac8dFa3Cf",
        "49",
        "1"
      ],
      "transaction": {
        "from": "0x634989990acb7f95d07ac09a6c35491ac8dfa3cf",
        "to": "0x64dd1cb8a77fb55d4838897fd6f60e28b2e8fed8",
        "gas": "0x13add",
        "value": "0x0",
        "input": "0x004a84cb000000000000000000000000634989990acb7f95d07ac09a6c35491ac8dfa3cf00000000000000000000000000000000000000000000000000000000000000310000000000000000000000000000000000000000000000000000000000000001",
        "nonce": "0x57c",
        "chainId": "0x8173"
      },
      "additionalContracts": [],
      "isFixedGasLimit": false
    },
    {
      "hash": "0xf3e68076dae8dc7f38b04e347598ec169a0b22bee0816ac6e9fb5c543efb9b8d",
      "transactionType": "CALL",
      "contractName": null,
      "contractAddress": "0x64dd1cb8a77fb55d4838897fd6f60e28b2e8fed8",
      "function": "adminMint(address,uint256,uint256)",
      "arguments": [
        "0x634989990acb7F95d07Ac09a6c35491Ac8dFa3Cf",
        "50",
        "1"
      ],
      "transaction": {
        "from": "0x634989990acb7f95d07ac09a6c35491ac8dfa3cf",
        "to": "0x64dd1cb8a77fb55d4838897fd6f60e28b2e8fed8",
        "gas": "0x13add",
        "value": "0x0",
        "input": "0x004a84cb000000000000000000000000634989990acb7f95d07ac09a6c35491ac8dfa3cf00000000000000000000000000000000000000000000000000000000000000320000000000000000000000000000000000000000000000000000000000000001",
        "nonce": "0x57d",
        "chainId": "0x8173"
      },
      "additionalContracts": [],
      "isFixedGasLimit": false
    },
    {
      "hash": "0x867f933bbe567621f10b292bece259d0a08d5799f448b72d82eca2166393a7a1",
      "transactionType": "CALL",
      "contractName": null,
      "contractAddress": "0x64dd1cb8a77fb55d4838897fd6f60e28b2e8fed8",
      "function": "adminMint(address,uint256,uint256)",
      "arguments": [
        "0x634989990acb7F95d07Ac09a6c35491Ac8dFa3Cf",
        "51",
        "1"
      ],
      "transaction": {
        "from": "0x634989990acb7f95d07ac09a6c35491ac8dfa3cf",
        "to": "0x64dd1cb8a77fb55d4838897fd6f60e28b2e8fed8",
        "gas": "0x13add",
        "value": "0x0",
        "input": "0x004a84cb000000000000000000000000634989990acb7f95d07ac09a6c35491ac8dfa3cf00000000000000000000000000000000000000000000000000000000000000330000000000000000000000000000000000000000000000000000000000000001",
        "nonce": "0x57e",
        "chainId": "0x8173"
      },
      "additionalContracts": [],
      "isFixedGasLimit": false
    },
    {
      "hash": "0x7a8e91b89bc9dd56e66dc340f172897d09618fcf488995d39515d2d347bb76e7",
      "transactionType": "CALL",
      "contractName": null,
      "contractAddress": "0x64dd1cb8a77fb55d4838897fd6f60e28b2e8fed8",
      "function": "adminMint(address,uint256,uint256)",
      "arguments": [
        "0x634989990acb7F95d07Ac09a6c35491Ac8dFa3Cf",
        "52",
        "1"
      ],
      "transaction": {
        "from": "0x634989990acb7f95d07ac09a6c35491ac8dfa3cf",
        "to": "0x64dd1cb8a77fb55d4838897fd6f60e28b2e8fed8",
        "gas": "0x13add",
        "value": "0x0",
        "input": "0x004a84cb000000000000000000000000634989990acb7f95d07ac09a6c35491ac8dfa3cf00000000000000000000000000000000000000000000000000000000000000340000000000000000000000000000000000000000000000000000000000000001",
        "nonce": "0x57f",
        "chainId": "0x8173"
      },
      "additionalContracts": [],
      "isFixedGasLimit": false
    },
    {
      "hash": "0xf7b1900a38a7d137829a72602699a0f2cf4b56d57e6b6a8172bc4cd8f88f7d3e",
      "transactionType": "CALL",
      "contractName": null,
      "contractAddress": "0x64dd1cb8a77fb55d4838897fd6f60e28b2e8fed8",
      "function": "adminMint(address,uint256,uint256)",
      "arguments": [
        "0x634989990acb7F95d07Ac09a6c35491Ac8dFa3Cf",
        "53",
        "1"
      ],
      "transaction": {
        "from": "0x634989990acb7f95d07ac09a6c35491ac8dfa3cf",
        "to": "0x64dd1cb8a77fb55d4838897fd6f60e28b2e8fed8",
        "gas": "0x13add",
        "value": "0x0",
        "input": "0x004a84cb000000000000000000000000634989990acb7f95d07ac09a6c35491ac8dfa3cf00000000000000000000000000000000000000000000000000000000000000350000000000000000000000000000000000000000000000000000000000000001",
        "nonce": "0x580",
        "chainId": "0x8173"
      },
      "additionalContracts": [],
      "isFixedGasLimit": false
    },
    {
      "hash": "0x9dd3a4806be253c55c83eca0997a882694ec5ac19081cad8b01b5d0c85e8effd",
      "transactionType": "CALL",
      "contractName": null,
      "contractAddress": "0x64dd1cb8a77fb55d4838897fd6f60e28b2e8fed8",
      "function": "adminMint(address,uint256,uint256)",
      "arguments": [
        "0x634989990acb7F95d07Ac09a6c35491Ac8dFa3Cf",
        "54",
        "1"
      ],
      "transaction": {
        "from": "0x634989990acb7f95d07ac09a6c35491ac8dfa3cf",
        "to": "0x64dd1cb8a77fb55d4838897fd6f60e28b2e8fed8",
        "gas": "0x13add",
        "value": "0x0",
        "input": "0x004a84cb000000000000000000000000634989990acb7f95d07ac09a6c35491ac8dfa3cf00000000000000000000000000000000000000000000000000000000000000360000000000000000000000000000000000000000000000000000000000000001",
        "nonce": "0x581",
        "chainId": "0x8173"
      },
      "additionalContracts": [],
      "isFixedGasLimit": false
    },
    {
      "hash": "0xb3d70bb1142222a89c0a1cb29f9f6552ab2731722721edc137eac2a2fb7dd2d1",
      "transactionType": "CALL",
      "contractName": null,
      "contractAddress": "0x64dd1cb8a77fb55d4838897fd6f60e28b2e8fed8",
      "function": "adminMint(address,uint256,uint256)",
      "arguments": [
        "0x634989990acb7F95d07Ac09a6c35491Ac8dFa3Cf",
        "55",
        "1"
      ],
      "transaction": {
        "from": "0x634989990acb7f95d07ac09a6c35491ac8dfa3cf",
        "to": "0x64dd1cb8a77fb55d4838897fd6f60e28b2e8fed8",
        "gas": "0x13add",
        "value": "0x0",
        "input": "0x004a84cb000000000000000000000000634989990acb7f95d07ac09a6c35491ac8dfa3cf00000000000000000000000000000000000000000000000000000000000000370000000000000000000000000000000000000000000000000000000000000001",
        "nonce": "0x582",
        "chainId": "0x8173"
      },
      "additionalContracts": [],
      "isFixedGasLimit": false
    },
    {
      "hash": "0x9a58612119f327775f334d98e3ebb00e5cd35f72bdc161ad1e3b9efa0a53e006",
      "transactionType": "CALL",
      "contractName": null,
      "contractAddress": "0x64dd1cb8a77fb55d4838897fd6f60e28b2e8fed8",
      "function": "adminMint(address,uint256,uint256)",
      "arguments": [
        "0x634989990acb7F95d07Ac09a6c35491Ac8dFa3Cf",
        "56",
        "1"
      ],
      "transaction": {
        "from": "0x634989990acb7f95d07ac09a6c35491ac8dfa3cf",
        "to": "0x64dd1cb8a77fb55d4838897fd6f60e28b2e8fed8",
        "gas": "0x13add",
        "value": "0x0",
        "input": "0x004a84cb000000000000000000000000634989990acb7f95d07ac09a6c35491ac8dfa3cf00000000000000000000000000000000000000000000000000000000000000380000000000000000000000000000000000000000000000000000000000000001",
        "nonce": "0x583",
        "chainId": "0x8173"
      },
      "additionalContracts": [],
      "isFixedGasLimit": false
    },
    {
      "hash": "0xf27ff1010a7881e5098d79a747e0357195e1513ac59ed955cd97b840e815c07f",
      "transactionType": "CALL",
      "contractName": null,
      "contractAddress": "0x64dd1cb8a77fb55d4838897fd6f60e28b2e8fed8",
      "function": "adminMint(address,uint256,uint256)",
      "arguments": [
        "0x634989990acb7F95d07Ac09a6c35491Ac8dFa3Cf",
        "57",
        "1"
      ],
      "transaction": {
        "from": "0x634989990acb7f95d07ac09a6c35491ac8dfa3cf",
        "to": "0x64dd1cb8a77fb55d4838897fd6f60e28b2e8fed8",
        "gas": "0x13add",
        "value": "0x0",
        "input": "0x004a84cb000000000000000000000000634989990acb7f95d07ac09a6c35491ac8dfa3cf00000000000000000000000000000000000000000000000000000000000000390000000000000000000000000000000000000000000000000000000000000001",
        "nonce": "0x584",
        "chainId": "0x8173"
      },
      "additionalContracts": [],
      "isFixedGasLimit": false
    },
    {
      "hash": "0xf57c296ddca42514d31d1e0e1bc3ed5b5edda066aae7962a7ccaf135b7b6f315",
      "transactionType": "CALL",
      "contractName": null,
      "contractAddress": "0x64dd1cb8a77fb55d4838897fd6f60e28b2e8fed8",
      "function": "adminMint(address,uint256,uint256)",
      "arguments": [
        "0x634989990acb7F95d07Ac09a6c35491Ac8dFa3Cf",
        "58",
        "1"
      ],
      "transaction": {
        "from": "0x634989990acb7f95d07ac09a6c35491ac8dfa3cf",
        "to": "0x64dd1cb8a77fb55d4838897fd6f60e28b2e8fed8",
        "gas": "0x13add",
        "value": "0x0",
        "input": "0x004a84cb000000000000000000000000634989990acb7f95d07ac09a6c35491ac8dfa3cf000000000000000000000000000000000000000000000000000000000000003a0000000000000000000000000000000000000000000000000000000000000001",
        "nonce": "0x585",
        "chainId": "0x8173"
      },
      "additionalContracts": [],
      "isFixedGasLimit": false
    },
    {
      "hash": "0x92f3dc6930ffd061dc2f2d11307fc34556491ba4a89acf219cb906598cd341ca",
      "transactionType": "CALL",
      "contractName": null,
      "contractAddress": "0x64dd1cb8a77fb55d4838897fd6f60e28b2e8fed8",
      "function": "adminMint(address,uint256,uint256)",
      "arguments": [
        "0x634989990acb7F95d07Ac09a6c35491Ac8dFa3Cf",
        "59",
        "1"
      ],
      "transaction": {
        "from": "0x634989990acb7f95d07ac09a6c35491ac8dfa3cf",
        "to": "0x64dd1cb8a77fb55d4838897fd6f60e28b2e8fed8",
        "gas": "0x13add",
        "value": "0x0",
        "input": "0x004a84cb000000000000000000000000634989990acb7f95d07ac09a6c35491ac8dfa3cf000000000000000000000000000000000000000000000000000000000000003b0000000000000000000000000000000000000000000000000000000000000001",
        "nonce": "0x586",
        "chainId": "0x8173"
      },
      "additionalContracts": [],
      "isFixedGasLimit": false
    },
    {
      "hash": "0xc13dda50e05677b6ed2c3602bb79c9cc8d720c951bdcd3e8d4bcf8530efa1dec",
      "transactionType": "CALL",
      "contractName": null,
      "contractAddress": "0x64dd1cb8a77fb55d4838897fd6f60e28b2e8fed8",
      "function": "adminMint(address,uint256,uint256)",
      "arguments": [
        "0x634989990acb7F95d07Ac09a6c35491Ac8dFa3Cf",
        "60",
        "1"
      ],
      "transaction": {
        "from": "0x634989990acb7f95d07ac09a6c35491ac8dfa3cf",
        "to": "0x64dd1cb8a77fb55d4838897fd6f60e28b2e8fed8",
        "gas": "0x13add",
        "value": "0x0",
        "input": "0x004a84cb000000000000000000000000634989990acb7f95d07ac09a6c35491ac8dfa3cf000000000000000000000000000000000000000000000000000000000000003c0000000000000000000000000000000000000000000000000000000000000001",
        "nonce": "0x587",
        "chainId": "0x8173"
      },
      "additionalContracts": [],
      "isFixedGasLimit": false
    },
    {
      "hash": "0x34d9ae13c78b8ae6445e5e0b4ecdb4b1bc17ee418a4533a80ae2e2a80c512a44",
      "transactionType": "CALL",
      "contractName": null,
      "contractAddress": "0x64dd1cb8a77fb55d4838897fd6f60e28b2e8fed8",
      "function": "adminMint(address,uint256,uint256)",
      "arguments": [
        "0x634989990acb7F95d07Ac09a6c35491Ac8dFa3Cf",
        "61",
        "1"
      ],
      "transaction": {
        "from": "0x634989990acb7f95d07ac09a6c35491ac8dfa3cf",
        "to": "0x64dd1cb8a77fb55d4838897fd6f60e28b2e8fed8",
        "gas": "0x13add",
        "value": "0x0",
        "input": "0x004a84cb000000000000000000000000634989990acb7f95d07ac09a6c35491ac8dfa3cf000000000000000000000000000000000000000000000000000000000000003d0000000000000000000000000000000000000000000000000000000000000001",
        "nonce": "0x588",
        "chainId": "0x8173"
      },
      "additionalContracts": [],
      "isFixedGasLimit": false
    },
    {
      "hash": "0xa3c118975c9784745547fc04dbde879eb67b1e5bf27b314e7c8dce4907e2d941",
      "transactionType": "CALL",
      "contractName": null,
      "contractAddress": "0x64dd1cb8a77fb55d4838897fd6f60e28b2e8fed8",
      "function": "adminMint(address,uint256,uint256)",
      "arguments": [
        "0x634989990acb7F95d07Ac09a6c35491Ac8dFa3Cf",
        "62",
        "1"
      ],
      "transaction": {
        "from": "0x634989990acb7f95d07ac09a6c35491ac8dfa3cf",
        "to": "0x64dd1cb8a77fb55d4838897fd6f60e28b2e8fed8",
        "gas": "0x13add",
        "value": "0x0",
        "input": "0x004a84cb000000000000000000000000634989990acb7f95d07ac09a6c35491ac8dfa3cf000000000000000000000000000000000000000000000000000000000000003e0000000000000000000000000000000000000000000000000000000000000001",
        "nonce": "0x589",
        "chainId": "0x8173"
      },
      "additionalContracts": [],
      "isFixedGasLimit": false
    },
    {
      "hash": "0xfda25273f54fca12de8faa47c00745020038c80bb3453c95a57ce27c26298816",
      "transactionType": "CALL",
      "contractName": null,
      "contractAddress": "0x64dd1cb8a77fb55d4838897fd6f60e28b2e8fed8",
      "function": "adminMint(address,uint256,uint256)",
      "arguments": [
        "0x634989990acb7F95d07Ac09a6c35491Ac8dFa3Cf",
        "63",
        "1"
      ],
      "transaction": {
        "from": "0x634989990acb7f95d07ac09a6c35491ac8dfa3cf",
        "to": "0x64dd1cb8a77fb55d4838897fd6f60e28b2e8fed8",
        "gas": "0x13add",
        "value": "0x0",
        "input": "0x004a84cb000000000000000000000000634989990acb7f95d07ac09a6c35491ac8dfa3cf000000000000000000000000000000000000000000000000000000000000003f0000000000000000000000000000000000000000000000000000000000000001",
        "nonce": "0x58a",
        "chainId": "0x8173"
      },
      "additionalContracts": [],
      "isFixedGasLimit": false
    }
  ],
  "receipts": [
    {
      "status": "0x1",
      "cumulativeGasUsed": "0x81a05",
      "logs": [
        {
          "address": "0x64dd1cb8a77fb55d4838897fd6f60e28b2e8fed8",
          "topics": [
            "0xc3d58168c5ae7397731d063d5bbf3d657854427343f4c083240f7aacaa2d0f62",
            "0x000000000000000000000000634989990acb7f95d07ac09a6c35491ac8dfa3cf",
            "0x0000000000000000000000000000000000000000000000000000000000000000",
            "0x000000000000000000000000634989990acb7f95d07ac09a6c35491ac8dfa3cf"
          ],
          "data": "0x00000000000000000000000000000000000000000000000000000000000000000000000000000000000000000000000000000000000000000000000000000001",
          "blockHash": "0x61a996f5fcd8bb6651f6c439ed0727930a3aeef6edab0d77c8644f7926c93143",
          "blockNumber": "0x1b92147",
          "transactionHash": "0x01f410edcaf5d927bf4eceedd76932d2427444723dc9ea9a1693346a0543c4d2",
          "transactionIndex": "0x3",
          "logIndex": "0x8",
          "removed": false
        }
      ],
      "logsBloom": "0x00000000000000000000000000000000000000000000000000000000000000000000000000000000000000000000100000000000000000000000000000002000000000000000000000000000400000000000000000000000000000000000000000000000020000000000000000000800000000000000000000000008000000000000000000000000000000000000000000000000000000000000800000000000000000000000000000000000000000000000000000008000000000000000000000000000000000000000000000000000000000000008000000000000000020000000200000000000000000000000000000000000000000000000080000000000",
      "type": "0x2",
      "transactionHash": "0x01f410edcaf5d927bf4eceedd76932d2427444723dc9ea9a1693346a0543c4d2",
      "transactionIndex": "0x3",
      "blockHash": "0x61a996f5fcd8bb6651f6c439ed0727930a3aeef6edab0d77c8644f7926c93143",
      "blockNumber": "0x1b92147",
      "gasUsed": "0x948b",
      "effectiveGasPrice": "0x5eb30f250",
      "from": "0x634989990acb7f95d07ac09a6c35491ac8dfa3cf",
      "to": "0x64dd1cb8a77fb55d4838897fd6f60e28b2e8fed8",
      "contractAddress": null,
      "gasUsedForL1": "0x18",
      "l1BlockNumber": "0x16c1d47"
    },
    {
      "status": "0x1",
      "cumulativeGasUsed": "0x19140",
      "logs": [
        {
          "address": "0x64dd1cb8a77fb55d4838897fd6f60e28b2e8fed8",
          "topics": [
            "0xc3d58168c5ae7397731d063d5bbf3d657854427343f4c083240f7aacaa2d0f62",
            "0x000000000000000000000000634989990acb7f95d07ac09a6c35491ac8dfa3cf",
            "0x0000000000000000000000000000000000000000000000000000000000000000",
            "0x000000000000000000000000634989990acb7f95d07ac09a6c35491ac8dfa3cf"
          ],
          "data": "0x00000000000000000000000000000000000000000000000000000000000000010000000000000000000000000000000000000000000000000000000000000001",
          "blockHash": "0xbfa85dd0331a4e435ea5b261d6173c05918581dddf93c29892a20f959e133e8a",
          "blockNumber": "0x1b92148",
          "transactionHash": "0x9f603084f3d008a7a2b3adf6a58194964f1a9ca9b95c3657da3c1117d9e7736a",
          "transactionIndex": "0x2",
          "logIndex": "0x2",
          "removed": false
        }
      ],
      "logsBloom": "0x00000000000000000000000000000000000000000000000000000000000000000000000000000000000000000000100000000000000000000000000000002000000000000000000000000000400000000000000000000000000000000000000000000000020000000000000000000800000000000000000000000008000000000000000000000000000000000000000000000000000000000000800000000000000000000000000000000000000000000000000000008000000000000000000000000000000000000000000000000000000000000008000000000000000020000000200000000000000000000000000000000000000000000000080000000000",
      "type": "0x2",
      "transactionHash": "0x9f603084f3d008a7a2b3adf6a58194964f1a9ca9b95c3657da3c1117d9e7736a",
      "transactionIndex": "0x2",
      "blockHash": "0xbfa85dd0331a4e435ea5b261d6173c05918581dddf93c29892a20f959e133e8a",
      "blockNumber": "0x1b92148",
      "gasUsed": "0xd763",
      "effectiveGasPrice": "0x5eb30f250",
      "from": "0x634989990acb7f95d07ac09a6c35491ac8dfa3cf",
      "to": "0x64dd1cb8a77fb55d4838897fd6f60e28b2e8fed8",
      "contractAddress": null,
      "gasUsedForL1": "0x18",
      "l1BlockNumber": "0x16c1d47"
    },
    {
      "status": "0x1",
      "cumulativeGasUsed": "0x268a3",
      "logs": [
        {
          "address": "0x64dd1cb8a77fb55d4838897fd6f60e28b2e8fed8",
          "topics": [
            "0xc3d58168c5ae7397731d063d5bbf3d657854427343f4c083240f7aacaa2d0f62",
            "0x000000000000000000000000634989990acb7f95d07ac09a6c35491ac8dfa3cf",
            "0x0000000000000000000000000000000000000000000000000000000000000000",
            "0x000000000000000000000000634989990acb7f95d07ac09a6c35491ac8dfa3cf"
          ],
          "data": "0x00000000000000000000000000000000000000000000000000000000000000020000000000000000000000000000000000000000000000000000000000000001",
          "blockHash": "0xbfa85dd0331a4e435ea5b261d6173c05918581dddf93c29892a20f959e133e8a",
          "blockNumber": "0x1b92148",
          "transactionHash": "0x201ecfe0ebf6d2f70d0049e924d9be5fdac02b0914bfc748ba14466780a9864d",
          "transactionIndex": "0x3",
          "logIndex": "0x3",
          "removed": false
        }
      ],
      "logsBloom": "0x00000000000000000000000000000000000000000000000000000000000000000000000000000000000000000000100000000000000000000000000000002000000000000000000000000000400000000000000000000000000000000000000000000000020000000000000000000800000000000000000000000008000000000000000000000000000000000000000000000000000000000000800000000000000000000000000000000000000000000000000000008000000000000000000000000000000000000000000000000000000000000008000000000000000020000000200000000000000000000000000000000000000000000000080000000000",
      "type": "0x2",
      "transactionHash": "0x201ecfe0ebf6d2f70d0049e924d9be5fdac02b0914bfc748ba14466780a9864d",
      "transactionIndex": "0x3",
      "blockHash": "0xbfa85dd0331a4e435ea5b261d6173c05918581dddf93c29892a20f959e133e8a",
      "blockNumber": "0x1b92148",
      "gasUsed": "0xd763",
      "effectiveGasPrice": "0x5eb30f250",
      "from": "0x634989990acb7f95d07ac09a6c35491ac8dfa3cf",
      "to": "0x64dd1cb8a77fb55d4838897fd6f60e28b2e8fed8",
      "contractAddress": null,
      "gasUsedForL1": "0x18",
      "l1BlockNumber": "0x16c1d47"
    },
    {
      "status": "0x1",
      "cumulativeGasUsed": "0x34006",
      "logs": [
        {
          "address": "0x64dd1cb8a77fb55d4838897fd6f60e28b2e8fed8",
          "topics": [
            "0xc3d58168c5ae7397731d063d5bbf3d657854427343f4c083240f7aacaa2d0f62",
            "0x000000000000000000000000634989990acb7f95d07ac09a6c35491ac8dfa3cf",
            "0x0000000000000000000000000000000000000000000000000000000000000000",
            "0x000000000000000000000000634989990acb7f95d07ac09a6c35491ac8dfa3cf"
          ],
          "data": "0x00000000000000000000000000000000000000000000000000000000000000030000000000000000000000000000000000000000000000000000000000000001",
          "blockHash": "0xbfa85dd0331a4e435ea5b261d6173c05918581dddf93c29892a20f959e133e8a",
          "blockNumber": "0x1b92148",
          "transactionHash": "0x9e1bb839281bb0c98a8bee22bb586951cf00250946d31f840e17116358b3ebf0",
          "transactionIndex": "0x4",
          "logIndex": "0x4",
          "removed": false
        }
      ],
      "logsBloom": "0x00000000000000000000000000000000000000000000000000000000000000000000000000000000000000000000100000000000000000000000000000002000000000000000000000000000400000000000000000000000000000000000000000000000020000000000000000000800000000000000000000000008000000000000000000000000000000000000000000000000000000000000800000000000000000000000000000000000000000000000000000008000000000000000000000000000000000000000000000000000000000000008000000000000000020000000200000000000000000000000000000000000000000000000080000000000",
      "type": "0x2",
      "transactionHash": "0x9e1bb839281bb0c98a8bee22bb586951cf00250946d31f840e17116358b3ebf0",
      "transactionIndex": "0x4",
      "blockHash": "0xbfa85dd0331a4e435ea5b261d6173c05918581dddf93c29892a20f959e133e8a",
      "blockNumber": "0x1b92148",
      "gasUsed": "0xd763",
      "effectiveGasPrice": "0x5eb30f250",
      "from": "0x634989990acb7f95d07ac09a6c35491ac8dfa3cf",
      "to": "0x64dd1cb8a77fb55d4838897fd6f60e28b2e8fed8",
      "contractAddress": null,
      "gasUsedForL1": "0x18",
      "l1BlockNumber": "0x16c1d47"
    },
    {
      "status": "0x1",
      "cumulativeGasUsed": "0x41769",
      "logs": [
        {
          "address": "0x64dd1cb8a77fb55d4838897fd6f60e28b2e8fed8",
          "topics": [
            "0xc3d58168c5ae7397731d063d5bbf3d657854427343f4c083240f7aacaa2d0f62",
            "0x000000000000000000000000634989990acb7f95d07ac09a6c35491ac8dfa3cf",
            "0x0000000000000000000000000000000000000000000000000000000000000000",
            "0x000000000000000000000000634989990acb7f95d07ac09a6c35491ac8dfa3cf"
          ],
          "data": "0x00000000000000000000000000000000000000000000000000000000000000040000000000000000000000000000000000000000000000000000000000000001",
          "blockHash": "0xbfa85dd0331a4e435ea5b261d6173c05918581dddf93c29892a20f959e133e8a",
          "blockNumber": "0x1b92148",
          "transactionHash": "0x44321f313163bda8bb10e3a00412181987b82ed907bb5b9d3339173f9d6405b5",
          "transactionIndex": "0x5",
          "logIndex": "0x5",
          "removed": false
        }
      ],
      "logsBloom": "0x00000000000000000000000000000000000000000000000000000000000000000000000000000000000000000000100000000000000000000000000000002000000000000000000000000000400000000000000000000000000000000000000000000000020000000000000000000800000000000000000000000008000000000000000000000000000000000000000000000000000000000000800000000000000000000000000000000000000000000000000000008000000000000000000000000000000000000000000000000000000000000008000000000000000020000000200000000000000000000000000000000000000000000000080000000000",
      "type": "0x2",
      "transactionHash": "0x44321f313163bda8bb10e3a00412181987b82ed907bb5b9d3339173f9d6405b5",
      "transactionIndex": "0x5",
      "blockHash": "0xbfa85dd0331a4e435ea5b261d6173c05918581dddf93c29892a20f959e133e8a",
      "blockNumber": "0x1b92148",
      "gasUsed": "0xd763",
      "effectiveGasPrice": "0x5eb30f250",
      "from": "0x634989990acb7f95d07ac09a6c35491ac8dfa3cf",
      "to": "0x64dd1cb8a77fb55d4838897fd6f60e28b2e8fed8",
      "contractAddress": null,
      "gasUsedForL1": "0x18",
      "l1BlockNumber": "0x16c1d47"
    },
    {
      "status": "0x1",
      "cumulativeGasUsed": "0x4eecc",
      "logs": [
        {
          "address": "0x64dd1cb8a77fb55d4838897fd6f60e28b2e8fed8",
          "topics": [
            "0xc3d58168c5ae7397731d063d5bbf3d657854427343f4c083240f7aacaa2d0f62",
            "0x000000000000000000000000634989990acb7f95d07ac09a6c35491ac8dfa3cf",
            "0x0000000000000000000000000000000000000000000000000000000000000000",
            "0x000000000000000000000000634989990acb7f95d07ac09a6c35491ac8dfa3cf"
          ],
          "data": "0x00000000000000000000000000000000000000000000000000000000000000050000000000000000000000000000000000000000000000000000000000000001",
          "blockHash": "0xbfa85dd0331a4e435ea5b261d6173c05918581dddf93c29892a20f959e133e8a",
          "blockNumber": "0x1b92148",
          "transactionHash": "0xc0d6ff370d48b0845163981316f3145164c0ec19e4981f6e8f93be61370f48ea",
          "transactionIndex": "0x6",
          "logIndex": "0x6",
          "removed": false
        }
      ],
      "logsBloom": "0x00000000000000000000000000000000000000000000000000000000000000000000000000000000000000000000100000000000000000000000000000002000000000000000000000000000400000000000000000000000000000000000000000000000020000000000000000000800000000000000000000000008000000000000000000000000000000000000000000000000000000000000800000000000000000000000000000000000000000000000000000008000000000000000000000000000000000000000000000000000000000000008000000000000000020000000200000000000000000000000000000000000000000000000080000000000",
      "type": "0x2",
      "transactionHash": "0xc0d6ff370d48b0845163981316f3145164c0ec19e4981f6e8f93be61370f48ea",
      "transactionIndex": "0x6",
      "blockHash": "0xbfa85dd0331a4e435ea5b261d6173c05918581dddf93c29892a20f959e133e8a",
      "blockNumber": "0x1b92148",
      "gasUsed": "0xd763",
      "effectiveGasPrice": "0x5eb30f250",
      "from": "0x634989990acb7f95d07ac09a6c35491ac8dfa3cf",
      "to": "0x64dd1cb8a77fb55d4838897fd6f60e28b2e8fed8",
      "contractAddress": null,
      "gasUsedForL1": "0x18",
      "l1BlockNumber": "0x16c1d47"
    },
    {
      "status": "0x1",
      "cumulativeGasUsed": "0x5c62f",
      "logs": [
        {
          "address": "0x64dd1cb8a77fb55d4838897fd6f60e28b2e8fed8",
          "topics": [
            "0xc3d58168c5ae7397731d063d5bbf3d657854427343f4c083240f7aacaa2d0f62",
            "0x000000000000000000000000634989990acb7f95d07ac09a6c35491ac8dfa3cf",
            "0x0000000000000000000000000000000000000000000000000000000000000000",
            "0x000000000000000000000000634989990acb7f95d07ac09a6c35491ac8dfa3cf"
          ],
          "data": "0x00000000000000000000000000000000000000000000000000000000000000060000000000000000000000000000000000000000000000000000000000000001",
          "blockHash": "0xbfa85dd0331a4e435ea5b261d6173c05918581dddf93c29892a20f959e133e8a",
          "blockNumber": "0x1b92148",
          "transactionHash": "0xf2b1867527acdfb01252ff8efbbc574fc35b7969f7a9580ff8278b7630c49732",
          "transactionIndex": "0x7",
          "logIndex": "0x7",
          "removed": false
        }
      ],
      "logsBloom": "0x00000000000000000000000000000000000000000000000000000000000000000000000000000000000000000000100000000000000000000000000000002000000000000000000000000000400000000000000000000000000000000000000000000000020000000000000000000800000000000000000000000008000000000000000000000000000000000000000000000000000000000000800000000000000000000000000000000000000000000000000000008000000000000000000000000000000000000000000000000000000000000008000000000000000020000000200000000000000000000000000000000000000000000000080000000000",
      "type": "0x2",
      "transactionHash": "0xf2b1867527acdfb01252ff8efbbc574fc35b7969f7a9580ff8278b7630c49732",
      "transactionIndex": "0x7",
      "blockHash": "0xbfa85dd0331a4e435ea5b261d6173c05918581dddf93c29892a20f959e133e8a",
      "blockNumber": "0x1b92148",
      "gasUsed": "0xd763",
      "effectiveGasPrice": "0x5eb30f250",
      "from": "0x634989990acb7f95d07ac09a6c35491ac8dfa3cf",
      "to": "0x64dd1cb8a77fb55d4838897fd6f60e28b2e8fed8",
      "contractAddress": null,
      "gasUsedForL1": "0x18",
      "l1BlockNumber": "0x16c1d47"
    },
    {
      "status": "0x1",
      "cumulativeGasUsed": "0xa605c",
      "logs": [
        {
          "address": "0x64dd1cb8a77fb55d4838897fd6f60e28b2e8fed8",
          "topics": [
            "0xc3d58168c5ae7397731d063d5bbf3d657854427343f4c083240f7aacaa2d0f62",
            "0x000000000000000000000000634989990acb7f95d07ac09a6c35491ac8dfa3cf",
            "0x0000000000000000000000000000000000000000000000000000000000000000",
            "0x000000000000000000000000634989990acb7f95d07ac09a6c35491ac8dfa3cf"
          ],
          "data": "0x00000000000000000000000000000000000000000000000000000000000000070000000000000000000000000000000000000000000000000000000000000001",
          "blockHash": "0xbfa85dd0331a4e435ea5b261d6173c05918581dddf93c29892a20f959e133e8a",
          "blockNumber": "0x1b92148",
          "transactionHash": "0xb43c03b09f1f5aeea25e94bdc642d5159df78f96795a4798eee44698cce36554",
          "transactionIndex": "0x9",
          "logIndex": "0xc",
          "removed": false
        }
      ],
      "logsBloom": "0x00000000000000000000000000000000000000000000000000000000000000000000000000000000000000000000100000000000000000000000000000002000000000000000000000000000400000000000000000000000000000000000000000000000020000000000000000000800000000000000000000000008000000000000000000000000000000000000000000000000000000000000800000000000000000000000000000000000000000000000000000008000000000000000000000000000000000000000000000000000000000000008000000000000000020000000200000000000000000000000000000000000000000000000080000000000",
      "type": "0x2",
      "transactionHash": "0xb43c03b09f1f5aeea25e94bdc642d5159df78f96795a4798eee44698cce36554",
      "transactionIndex": "0x9",
      "blockHash": "0xbfa85dd0331a4e435ea5b261d6173c05918581dddf93c29892a20f959e133e8a",
      "blockNumber": "0x1b92148",
      "gasUsed": "0xd763",
      "effectiveGasPrice": "0x5eb30f250",
      "from": "0x634989990acb7f95d07ac09a6c35491ac8dfa3cf",
      "to": "0x64dd1cb8a77fb55d4838897fd6f60e28b2e8fed8",
      "contractAddress": null,
      "gasUsedForL1": "0x18",
      "l1BlockNumber": "0x16c1d47"
    },
    {
      "status": "0x1",
      "cumulativeGasUsed": "0xd763",
      "logs": [
        {
          "address": "0x64dd1cb8a77fb55d4838897fd6f60e28b2e8fed8",
          "topics": [
            "0xc3d58168c5ae7397731d063d5bbf3d657854427343f4c083240f7aacaa2d0f62",
            "0x000000000000000000000000634989990acb7f95d07ac09a6c35491ac8dfa3cf",
            "0x0000000000000000000000000000000000000000000000000000000000000000",
            "0x000000000000000000000000634989990acb7f95d07ac09a6c35491ac8dfa3cf"
          ],
          "data": "0x00000000000000000000000000000000000000000000000000000000000000080000000000000000000000000000000000000000000000000000000000000001",
          "blockHash": "0x677e883ca8723e09e459a5c7ca24e80d8a03750500f5e668faa36bc6235c4fbe",
          "blockNumber": "0x1b92149",
          "transactionHash": "0x5c4da334f7a08864b7c606f3b42b2a4c03b76367f1d3ae7adcf7b54aa1f255c1",
          "transactionIndex": "0x1",
          "logIndex": "0x0",
          "removed": false
        }
      ],
      "logsBloom": "0x00000000000000000000000000000000000000000000000000000000000000000000000000000000000000000000100000000000000000000000000000002000000000000000000000000000400000000000000000000000000000000000000000000000020000000000000000000800000000000000000000000008000000000000000000000000000000000000000000000000000000000000800000000000000000000000000000000000000000000000000000008000000000000000000000000000000000000000000000000000000000000008000000000000000020000000200000000000000000000000000000000000000000000000080000000000",
      "type": "0x2",
      "transactionHash": "0x5c4da334f7a08864b7c606f3b42b2a4c03b76367f1d3ae7adcf7b54aa1f255c1",
      "transactionIndex": "0x1",
      "blockHash": "0x677e883ca8723e09e459a5c7ca24e80d8a03750500f5e668faa36bc6235c4fbe",
      "blockNumber": "0x1b92149",
      "gasUsed": "0xd763",
      "effectiveGasPrice": "0x5eb30f250",
      "from": "0x634989990acb7f95d07ac09a6c35491ac8dfa3cf",
      "to": "0x64dd1cb8a77fb55d4838897fd6f60e28b2e8fed8",
      "contractAddress": null,
      "gasUsedForL1": "0x18",
      "l1BlockNumber": "0x16c1d47"
    },
    {
      "status": "0x1",
      "cumulativeGasUsed": "0x1aec6",
      "logs": [
        {
          "address": "0x64dd1cb8a77fb55d4838897fd6f60e28b2e8fed8",
          "topics": [
            "0xc3d58168c5ae7397731d063d5bbf3d657854427343f4c083240f7aacaa2d0f62",
            "0x000000000000000000000000634989990acb7f95d07ac09a6c35491ac8dfa3cf",
            "0x0000000000000000000000000000000000000000000000000000000000000000",
            "0x000000000000000000000000634989990acb7f95d07ac09a6c35491ac8dfa3cf"
          ],
          "data": "0x00000000000000000000000000000000000000000000000000000000000000090000000000000000000000000000000000000000000000000000000000000001",
          "blockHash": "0x677e883ca8723e09e459a5c7ca24e80d8a03750500f5e668faa36bc6235c4fbe",
          "blockNumber": "0x1b92149",
          "transactionHash": "0x36a4e48564e2b147dc8d197ed9514911a5bcc596c502b9f02772b964e7b616c4",
          "transactionIndex": "0x2",
          "logIndex": "0x1",
          "removed": false
        }
      ],
      "logsBloom": "0x00000000000000000000000000000000000000000000000000000000000000000000000000000000000000000000100000000000000000000000000000002000000000000000000000000000400000000000000000000000000000000000000000000000020000000000000000000800000000000000000000000008000000000000000000000000000000000000000000000000000000000000800000000000000000000000000000000000000000000000000000008000000000000000000000000000000000000000000000000000000000000008000000000000000020000000200000000000000000000000000000000000000000000000080000000000",
      "type": "0x2",
      "transactionHash": "0x36a4e48564e2b147dc8d197ed9514911a5bcc596c502b9f02772b964e7b616c4",
      "transactionIndex": "0x2",
      "blockHash": "0x677e883ca8723e09e459a5c7ca24e80d8a03750500f5e668faa36bc6235c4fbe",
      "blockNumber": "0x1b92149",
      "gasUsed": "0xd763",
      "effectiveGasPrice": "0x5eb30f250",
      "from": "0x634989990acb7f95d07ac09a6c35491ac8dfa3cf",
      "to": "0x64dd1cb8a77fb55d4838897fd6f60e28b2e8fed8",
      "contractAddress": null,
      "gasUsedForL1": "0x18",
      "l1BlockNumber": "0x16c1d47"
    },
    {
      "status": "0x1",
      "cumulativeGasUsed": "0x28629",
      "logs": [
        {
          "address": "0x64dd1cb8a77fb55d4838897fd6f60e28b2e8fed8",
          "topics": [
            "0xc3d58168c5ae7397731d063d5bbf3d657854427343f4c083240f7aacaa2d0f62",
            "0x000000000000000000000000634989990acb7f95d07ac09a6c35491ac8dfa3cf",
            "0x0000000000000000000000000000000000000000000000000000000000000000",
            "0x000000000000000000000000634989990acb7f95d07ac09a6c35491ac8dfa3cf"
          ],
          "data": "0x000000000000000000000000000000000000000000000000000000000000000a0000000000000000000000000000000000000000000000000000000000000001",
          "blockHash": "0x677e883ca8723e09e459a5c7ca24e80d8a03750500f5e668faa36bc6235c4fbe",
          "blockNumber": "0x1b92149",
          "transactionHash": "0xd87248514f70acfe5b215617384009046f2ca20c9b32b7a55821d8b15bef5c44",
          "transactionIndex": "0x3",
          "logIndex": "0x2",
          "removed": false
        }
      ],
      "logsBloom": "0x00000000000000000000000000000000000000000000000000000000000000000000000000000000000000000000100000000000000000000000000000002000000000000000000000000000400000000000000000000000000000000000000000000000020000000000000000000800000000000000000000000008000000000000000000000000000000000000000000000000000000000000800000000000000000000000000000000000000000000000000000008000000000000000000000000000000000000000000000000000000000000008000000000000000020000000200000000000000000000000000000000000000000000000080000000000",
      "type": "0x2",
      "transactionHash": "0xd87248514f70acfe5b215617384009046f2ca20c9b32b7a55821d8b15bef5c44",
      "transactionIndex": "0x3",
      "blockHash": "0x677e883ca8723e09e459a5c7ca24e80d8a03750500f5e668faa36bc6235c4fbe",
      "blockNumber": "0x1b92149",
      "gasUsed": "0xd763",
      "effectiveGasPrice": "0x5eb30f250",
      "from": "0x634989990acb7f95d07ac09a6c35491ac8dfa3cf",
      "to": "0x64dd1cb8a77fb55d4838897fd6f60e28b2e8fed8",
      "contractAddress": null,
      "gasUsedForL1": "0x18",
      "l1BlockNumber": "0x16c1d47"
    },
    {
      "status": "0x1",
      "cumulativeGasUsed": "0x35d8c",
      "logs": [
        {
          "address": "0x64dd1cb8a77fb55d4838897fd6f60e28b2e8fed8",
          "topics": [
            "0xc3d58168c5ae7397731d063d5bbf3d657854427343f4c083240f7aacaa2d0f62",
            "0x000000000000000000000000634989990acb7f95d07ac09a6c35491ac8dfa3cf",
            "0x0000000000000000000000000000000000000000000000000000000000000000",
            "0x000000000000000000000000634989990acb7f95d07ac09a6c35491ac8dfa3cf"
          ],
          "data": "0x000000000000000000000000000000000000000000000000000000000000000b0000000000000000000000000000000000000000000000000000000000000001",
          "blockHash": "0x677e883ca8723e09e459a5c7ca24e80d8a03750500f5e668faa36bc6235c4fbe",
          "blockNumber": "0x1b92149",
          "transactionHash": "0x7b8892e933a507f7d062b8947fcd06ea2481ce356affd644b7477da499959793",
          "transactionIndex": "0x4",
          "logIndex": "0x3",
          "removed": false
        }
      ],
      "logsBloom": "0x00000000000000000000000000000000000000000000000000000000000000000000000000000000000000000000100000000000000000000000000000002000000000000000000000000000400000000000000000000000000000000000000000000000020000000000000000000800000000000000000000000008000000000000000000000000000000000000000000000000000000000000800000000000000000000000000000000000000000000000000000008000000000000000000000000000000000000000000000000000000000000008000000000000000020000000200000000000000000000000000000000000000000000000080000000000",
      "type": "0x2",
      "transactionHash": "0x7b8892e933a507f7d062b8947fcd06ea2481ce356affd644b7477da499959793",
      "transactionIndex": "0x4",
      "blockHash": "0x677e883ca8723e09e459a5c7ca24e80d8a03750500f5e668faa36bc6235c4fbe",
      "blockNumber": "0x1b92149",
      "gasUsed": "0xd763",
      "effectiveGasPrice": "0x5eb30f250",
      "from": "0x634989990acb7f95d07ac09a6c35491ac8dfa3cf",
      "to": "0x64dd1cb8a77fb55d4838897fd6f60e28b2e8fed8",
      "contractAddress": null,
      "gasUsedForL1": "0x18",
      "l1BlockNumber": "0x16c1d47"
    },
    {
      "status": "0x1",
      "cumulativeGasUsed": "0x434ef",
      "logs": [
        {
          "address": "0x64dd1cb8a77fb55d4838897fd6f60e28b2e8fed8",
          "topics": [
            "0xc3d58168c5ae7397731d063d5bbf3d657854427343f4c083240f7aacaa2d0f62",
            "0x000000000000000000000000634989990acb7f95d07ac09a6c35491ac8dfa3cf",
            "0x0000000000000000000000000000000000000000000000000000000000000000",
            "0x000000000000000000000000634989990acb7f95d07ac09a6c35491ac8dfa3cf"
          ],
          "data": "0x000000000000000000000000000000000000000000000000000000000000000c0000000000000000000000000000000000000000000000000000000000000001",
          "blockHash": "0x677e883ca8723e09e459a5c7ca24e80d8a03750500f5e668faa36bc6235c4fbe",
          "blockNumber": "0x1b92149",
          "transactionHash": "0x347694ff71a7759fe42b85b7a6937e66778cc67d76f99339b4b61c2fbb3fca62",
          "transactionIndex": "0x5",
          "logIndex": "0x4",
          "removed": false
        }
      ],
      "logsBloom": "0x00000000000000000000000000000000000000000000000000000000000000000000000000000000000000000000100000000000000000000000000000002000000000000000000000000000400000000000000000000000000000000000000000000000020000000000000000000800000000000000000000000008000000000000000000000000000000000000000000000000000000000000800000000000000000000000000000000000000000000000000000008000000000000000000000000000000000000000000000000000000000000008000000000000000020000000200000000000000000000000000000000000000000000000080000000000",
      "type": "0x2",
      "transactionHash": "0x347694ff71a7759fe42b85b7a6937e66778cc67d76f99339b4b61c2fbb3fca62",
      "transactionIndex": "0x5",
      "blockHash": "0x677e883ca8723e09e459a5c7ca24e80d8a03750500f5e668faa36bc6235c4fbe",
      "blockNumber": "0x1b92149",
      "gasUsed": "0xd763",
      "effectiveGasPrice": "0x5eb30f250",
      "from": "0x634989990acb7f95d07ac09a6c35491ac8dfa3cf",
      "to": "0x64dd1cb8a77fb55d4838897fd6f60e28b2e8fed8",
      "contractAddress": null,
      "gasUsedForL1": "0x18",
      "l1BlockNumber": "0x16c1d47"
    },
    {
      "status": "0x1",
      "cumulativeGasUsed": "0x50c52",
      "logs": [
        {
          "address": "0x64dd1cb8a77fb55d4838897fd6f60e28b2e8fed8",
          "topics": [
            "0xc3d58168c5ae7397731d063d5bbf3d657854427343f4c083240f7aacaa2d0f62",
            "0x000000000000000000000000634989990acb7f95d07ac09a6c35491ac8dfa3cf",
            "0x0000000000000000000000000000000000000000000000000000000000000000",
            "0x000000000000000000000000634989990acb7f95d07ac09a6c35491ac8dfa3cf"
          ],
          "data": "0x000000000000000000000000000000000000000000000000000000000000000d0000000000000000000000000000000000000000000000000000000000000001",
          "blockHash": "0x677e883ca8723e09e459a5c7ca24e80d8a03750500f5e668faa36bc6235c4fbe",
          "blockNumber": "0x1b92149",
          "transactionHash": "0xfb5f949b0c2fa097df6ac0318740c6f63c6773760f1b8906db0d3eac6aa062ec",
          "transactionIndex": "0x6",
          "logIndex": "0x5",
          "removed": false
        }
      ],
      "logsBloom": "0x00000000000000000000000000000000000000000000000000000000000000000000000000000000000000000000100000000000000000000000000000002000000000000000000000000000400000000000000000000000000000000000000000000000020000000000000000000800000000000000000000000008000000000000000000000000000000000000000000000000000000000000800000000000000000000000000000000000000000000000000000008000000000000000000000000000000000000000000000000000000000000008000000000000000020000000200000000000000000000000000000000000000000000000080000000000",
      "type": "0x2",
      "transactionHash": "0xfb5f949b0c2fa097df6ac0318740c6f63c6773760f1b8906db0d3eac6aa062ec",
      "transactionIndex": "0x6",
      "blockHash": "0x677e883ca8723e09e459a5c7ca24e80d8a03750500f5e668faa36bc6235c4fbe",
      "blockNumber": "0x1b92149",
      "gasUsed": "0xd763",
      "effectiveGasPrice": "0x5eb30f250",
      "from": "0x634989990acb7f95d07ac09a6c35491ac8dfa3cf",
      "to": "0x64dd1cb8a77fb55d4838897fd6f60e28b2e8fed8",
      "contractAddress": null,
      "gasUsedForL1": "0x18",
      "l1BlockNumber": "0x16c1d47"
    },
    {
      "status": "0x1",
      "cumulativeGasUsed": "0x5e3b5",
      "logs": [
        {
          "address": "0x64dd1cb8a77fb55d4838897fd6f60e28b2e8fed8",
          "topics": [
            "0xc3d58168c5ae7397731d063d5bbf3d657854427343f4c083240f7aacaa2d0f62",
            "0x000000000000000000000000634989990acb7f95d07ac09a6c35491ac8dfa3cf",
            "0x0000000000000000000000000000000000000000000000000000000000000000",
            "0x000000000000000000000000634989990acb7f95d07ac09a6c35491ac8dfa3cf"
          ],
          "data": "0x000000000000000000000000000000000000000000000000000000000000000e0000000000000000000000000000000000000000000000000000000000000001",
          "blockHash": "0x677e883ca8723e09e459a5c7ca24e80d8a03750500f5e668faa36bc6235c4fbe",
          "blockNumber": "0x1b92149",
          "transactionHash": "0x466eff042a0e29640569997d370b51eff9202d6bea221759b7cf504bfa2dbeb7",
          "transactionIndex": "0x7",
          "logIndex": "0x6",
          "removed": false
        }
      ],
      "logsBloom": "0x00000000000000000000000000000000000000000000000000000000000000000000000000000000000000000000100000000000000000000000000000002000000000000000000000000000400000000000000000000000000000000000000000000000020000000000000000000800000000000000000000000008000000000000000000000000000000000000000000000000000000000000800000000000000000000000000000000000000000000000000000008000000000000000000000000000000000000000000000000000000000000008000000000000000020000000200000000000000000000000000000000000000000000000080000000000",
      "type": "0x2",
      "transactionHash": "0x466eff042a0e29640569997d370b51eff9202d6bea221759b7cf504bfa2dbeb7",
      "transactionIndex": "0x7",
      "blockHash": "0x677e883ca8723e09e459a5c7ca24e80d8a03750500f5e668faa36bc6235c4fbe",
      "blockNumber": "0x1b92149",
      "gasUsed": "0xd763",
      "effectiveGasPrice": "0x5eb30f250",
      "from": "0x634989990acb7f95d07ac09a6c35491ac8dfa3cf",
      "to": "0x64dd1cb8a77fb55d4838897fd6f60e28b2e8fed8",
      "contractAddress": null,
      "gasUsedForL1": "0x18",
      "l1BlockNumber": "0x16c1d47"
    },
    {
      "status": "0x1",
      "cumulativeGasUsed": "0xd763",
      "logs": [
        {
          "address": "0x64dd1cb8a77fb55d4838897fd6f60e28b2e8fed8",
          "topics": [
            "0xc3d58168c5ae7397731d063d5bbf3d657854427343f4c083240f7aacaa2d0f62",
            "0x000000000000000000000000634989990acb7f95d07ac09a6c35491ac8dfa3cf",
            "0x0000000000000000000000000000000000000000000000000000000000000000",
            "0x000000000000000000000000634989990acb7f95d07ac09a6c35491ac8dfa3cf"
          ],
          "data": "0x000000000000000000000000000000000000000000000000000000000000000f0000000000000000000000000000000000000000000000000000000000000001",
          "blockHash": "0x8954ad22e5c4ec4a5a7a57be502869bf87b06715225ffced62b4d1344a9ef4d3",
          "blockNumber": "0x1b9214a",
          "transactionHash": "0x1e8c5aeb0545916121bf2629977cadfb410ff94e715a934eff8bb323f776ac60",
          "transactionIndex": "0x1",
          "logIndex": "0x0",
          "removed": false
        }
      ],
      "logsBloom": "0x00000000000000000000000000000000000000000000000000000000000000000000000000000000000000000000100000000000000000000000000000002000000000000000000000000000400000000000000000000000000000000000000000000000020000000000000000000800000000000000000000000008000000000000000000000000000000000000000000000000000000000000800000000000000000000000000000000000000000000000000000008000000000000000000000000000000000000000000000000000000000000008000000000000000020000000200000000000000000000000000000000000000000000000080000000000",
      "type": "0x2",
      "transactionHash": "0x1e8c5aeb0545916121bf2629977cadfb410ff94e715a934eff8bb323f776ac60",
      "transactionIndex": "0x1",
      "blockHash": "0x8954ad22e5c4ec4a5a7a57be502869bf87b06715225ffced62b4d1344a9ef4d3",
      "blockNumber": "0x1b9214a",
      "gasUsed": "0xd763",
      "effectiveGasPrice": "0x5eb30f250",
      "from": "0x634989990acb7f95d07ac09a6c35491ac8dfa3cf",
      "to": "0x64dd1cb8a77fb55d4838897fd6f60e28b2e8fed8",
      "contractAddress": null,
      "gasUsedForL1": "0x18",
      "l1BlockNumber": "0x16c1d47"
    },
    {
      "status": "0x1",
      "cumulativeGasUsed": "0x1aec6",
      "logs": [
        {
          "address": "0x64dd1cb8a77fb55d4838897fd6f60e28b2e8fed8",
          "topics": [
            "0xc3d58168c5ae7397731d063d5bbf3d657854427343f4c083240f7aacaa2d0f62",
            "0x000000000000000000000000634989990acb7f95d07ac09a6c35491ac8dfa3cf",
            "0x0000000000000000000000000000000000000000000000000000000000000000",
            "0x000000000000000000000000634989990acb7f95d07ac09a6c35491ac8dfa3cf"
          ],
          "data": "0x00000000000000000000000000000000000000000000000000000000000000100000000000000000000000000000000000000000000000000000000000000001",
          "blockHash": "0x8954ad22e5c4ec4a5a7a57be502869bf87b06715225ffced62b4d1344a9ef4d3",
          "blockNumber": "0x1b9214a",
          "transactionHash": "0x218e8a0ee177cac890274153961f8b42516a377c0e6109f3e0fb8cd9663fde3d",
          "transactionIndex": "0x2",
          "logIndex": "0x1",
          "removed": false
        }
      ],
      "logsBloom": "0x00000000000000000000000000000000000000000000000000000000000000000000000000000000000000000000100000000000000000000000000000002000000000000000000000000000400000000000000000000000000000000000000000000000020000000000000000000800000000000000000000000008000000000000000000000000000000000000000000000000000000000000800000000000000000000000000000000000000000000000000000008000000000000000000000000000000000000000000000000000000000000008000000000000000020000000200000000000000000000000000000000000000000000000080000000000",
      "type": "0x2",
      "transactionHash": "0x218e8a0ee177cac890274153961f8b42516a377c0e6109f3e0fb8cd9663fde3d",
      "transactionIndex": "0x2",
      "blockHash": "0x8954ad22e5c4ec4a5a7a57be502869bf87b06715225ffced62b4d1344a9ef4d3",
      "blockNumber": "0x1b9214a",
      "gasUsed": "0xd763",
      "effectiveGasPrice": "0x5eb30f250",
      "from": "0x634989990acb7f95d07ac09a6c35491ac8dfa3cf",
      "to": "0x64dd1cb8a77fb55d4838897fd6f60e28b2e8fed8",
      "contractAddress": null,
      "gasUsedForL1": "0x18",
      "l1BlockNumber": "0x16c1d47"
    },
    {
      "status": "0x1",
      "cumulativeGasUsed": "0x28629",
      "logs": [
        {
          "address": "0x64dd1cb8a77fb55d4838897fd6f60e28b2e8fed8",
          "topics": [
            "0xc3d58168c5ae7397731d063d5bbf3d657854427343f4c083240f7aacaa2d0f62",
            "0x000000000000000000000000634989990acb7f95d07ac09a6c35491ac8dfa3cf",
            "0x0000000000000000000000000000000000000000000000000000000000000000",
            "0x000000000000000000000000634989990acb7f95d07ac09a6c35491ac8dfa3cf"
          ],
          "data": "0x00000000000000000000000000000000000000000000000000000000000000110000000000000000000000000000000000000000000000000000000000000001",
          "blockHash": "0x8954ad22e5c4ec4a5a7a57be502869bf87b06715225ffced62b4d1344a9ef4d3",
          "blockNumber": "0x1b9214a",
          "transactionHash": "0x4917916235a1cdecc7c9ad4c6577d1b3cd7192ce5eb5211d2d3004b901fbbbf2",
          "transactionIndex": "0x3",
          "logIndex": "0x2",
          "removed": false
        }
      ],
      "logsBloom": "0x00000000000000000000000000000000000000000000000000000000000000000000000000000000000000000000100000000000000000000000000000002000000000000000000000000000400000000000000000000000000000000000000000000000020000000000000000000800000000000000000000000008000000000000000000000000000000000000000000000000000000000000800000000000000000000000000000000000000000000000000000008000000000000000000000000000000000000000000000000000000000000008000000000000000020000000200000000000000000000000000000000000000000000000080000000000",
      "type": "0x2",
      "transactionHash": "0x4917916235a1cdecc7c9ad4c6577d1b3cd7192ce5eb5211d2d3004b901fbbbf2",
      "transactionIndex": "0x3",
      "blockHash": "0x8954ad22e5c4ec4a5a7a57be502869bf87b06715225ffced62b4d1344a9ef4d3",
      "blockNumber": "0x1b9214a",
      "gasUsed": "0xd763",
      "effectiveGasPrice": "0x5eb30f250",
      "from": "0x634989990acb7f95d07ac09a6c35491ac8dfa3cf",
      "to": "0x64dd1cb8a77fb55d4838897fd6f60e28b2e8fed8",
      "contractAddress": null,
      "gasUsedForL1": "0x18",
      "l1BlockNumber": "0x16c1d47"
    },
    {
      "status": "0x1",
      "cumulativeGasUsed": "0x35d8c",
      "logs": [
        {
          "address": "0x64dd1cb8a77fb55d4838897fd6f60e28b2e8fed8",
          "topics": [
            "0xc3d58168c5ae7397731d063d5bbf3d657854427343f4c083240f7aacaa2d0f62",
            "0x000000000000000000000000634989990acb7f95d07ac09a6c35491ac8dfa3cf",
            "0x0000000000000000000000000000000000000000000000000000000000000000",
            "0x000000000000000000000000634989990acb7f95d07ac09a6c35491ac8dfa3cf"
          ],
          "data": "0x00000000000000000000000000000000000000000000000000000000000000120000000000000000000000000000000000000000000000000000000000000001",
          "blockHash": "0x8954ad22e5c4ec4a5a7a57be502869bf87b06715225ffced62b4d1344a9ef4d3",
          "blockNumber": "0x1b9214a",
          "transactionHash": "0xafe587525aa6a6719a9e9585f32de3e2a9f499b93a9003acc2e622daa8ad32ea",
          "transactionIndex": "0x4",
          "logIndex": "0x3",
          "removed": false
        }
      ],
      "logsBloom": "0x00000000000000000000000000000000000000000000000000000000000000000000000000000000000000000000100000000000000000000000000000002000000000000000000000000000400000000000000000000000000000000000000000000000020000000000000000000800000000000000000000000008000000000000000000000000000000000000000000000000000000000000800000000000000000000000000000000000000000000000000000008000000000000000000000000000000000000000000000000000000000000008000000000000000020000000200000000000000000000000000000000000000000000000080000000000",
      "type": "0x2",
      "transactionHash": "0xafe587525aa6a6719a9e9585f32de3e2a9f499b93a9003acc2e622daa8ad32ea",
      "transactionIndex": "0x4",
      "blockHash": "0x8954ad22e5c4ec4a5a7a57be502869bf87b06715225ffced62b4d1344a9ef4d3",
      "blockNumber": "0x1b9214a",
      "gasUsed": "0xd763",
      "effectiveGasPrice": "0x5eb30f250",
      "from": "0x634989990acb7f95d07ac09a6c35491ac8dfa3cf",
      "to": "0x64dd1cb8a77fb55d4838897fd6f60e28b2e8fed8",
      "contractAddress": null,
      "gasUsedForL1": "0x18",
      "l1BlockNumber": "0x16c1d47"
    },
    {
      "status": "0x1",
      "cumulativeGasUsed": "0x434ef",
      "logs": [
        {
          "address": "0x64dd1cb8a77fb55d4838897fd6f60e28b2e8fed8",
          "topics": [
            "0xc3d58168c5ae7397731d063d5bbf3d657854427343f4c083240f7aacaa2d0f62",
            "0x000000000000000000000000634989990acb7f95d07ac09a6c35491ac8dfa3cf",
            "0x0000000000000000000000000000000000000000000000000000000000000000",
            "0x000000000000000000000000634989990acb7f95d07ac09a6c35491ac8dfa3cf"
          ],
          "data": "0x00000000000000000000000000000000000000000000000000000000000000130000000000000000000000000000000000000000000000000000000000000001",
          "blockHash": "0x8954ad22e5c4ec4a5a7a57be502869bf87b06715225ffced62b4d1344a9ef4d3",
          "blockNumber": "0x1b9214a",
          "transactionHash": "0x540bf0c5f6d45a2653d00bc31318b42b661f5243a9d4677eca858a4d119f740e",
          "transactionIndex": "0x5",
          "logIndex": "0x4",
          "removed": false
        }
      ],
      "logsBloom": "0x00000000000000000000000000000000000000000000000000000000000000000000000000000000000000000000100000000000000000000000000000002000000000000000000000000000400000000000000000000000000000000000000000000000020000000000000000000800000000000000000000000008000000000000000000000000000000000000000000000000000000000000800000000000000000000000000000000000000000000000000000008000000000000000000000000000000000000000000000000000000000000008000000000000000020000000200000000000000000000000000000000000000000000000080000000000",
      "type": "0x2",
      "transactionHash": "0x540bf0c5f6d45a2653d00bc31318b42b661f5243a9d4677eca858a4d119f740e",
      "transactionIndex": "0x5",
      "blockHash": "0x8954ad22e5c4ec4a5a7a57be502869bf87b06715225ffced62b4d1344a9ef4d3",
      "blockNumber": "0x1b9214a",
      "gasUsed": "0xd763",
      "effectiveGasPrice": "0x5eb30f250",
      "from": "0x634989990acb7f95d07ac09a6c35491ac8dfa3cf",
      "to": "0x64dd1cb8a77fb55d4838897fd6f60e28b2e8fed8",
      "contractAddress": null,
      "gasUsedForL1": "0x18",
      "l1BlockNumber": "0x16c1d47"
    },
    {
      "status": "0x1",
      "cumulativeGasUsed": "0x50c52",
      "logs": [
        {
          "address": "0x64dd1cb8a77fb55d4838897fd6f60e28b2e8fed8",
          "topics": [
            "0xc3d58168c5ae7397731d063d5bbf3d657854427343f4c083240f7aacaa2d0f62",
            "0x000000000000000000000000634989990acb7f95d07ac09a6c35491ac8dfa3cf",
            "0x0000000000000000000000000000000000000000000000000000000000000000",
            "0x000000000000000000000000634989990acb7f95d07ac09a6c35491ac8dfa3cf"
          ],
          "data": "0x00000000000000000000000000000000000000000000000000000000000000140000000000000000000000000000000000000000000000000000000000000001",
          "blockHash": "0x8954ad22e5c4ec4a5a7a57be502869bf87b06715225ffced62b4d1344a9ef4d3",
          "blockNumber": "0x1b9214a",
          "transactionHash": "0x7efe25b4942daa60efb7a7391bd129f59db72e97ddb75b0a3524f6aab511b638",
          "transactionIndex": "0x6",
          "logIndex": "0x5",
          "removed": false
        }
      ],
      "logsBloom": "0x00000000000000000000000000000000000000000000000000000000000000000000000000000000000000000000100000000000000000000000000000002000000000000000000000000000400000000000000000000000000000000000000000000000020000000000000000000800000000000000000000000008000000000000000000000000000000000000000000000000000000000000800000000000000000000000000000000000000000000000000000008000000000000000000000000000000000000000000000000000000000000008000000000000000020000000200000000000000000000000000000000000000000000000080000000000",
      "type": "0x2",
      "transactionHash": "0x7efe25b4942daa60efb7a7391bd129f59db72e97ddb75b0a3524f6aab511b638",
      "transactionIndex": "0x6",
      "blockHash": "0x8954ad22e5c4ec4a5a7a57be502869bf87b06715225ffced62b4d1344a9ef4d3",
      "blockNumber": "0x1b9214a",
      "gasUsed": "0xd763",
      "effectiveGasPrice": "0x5eb30f250",
      "from": "0x634989990acb7f95d07ac09a6c35491ac8dfa3cf",
      "to": "0x64dd1cb8a77fb55d4838897fd6f60e28b2e8fed8",
      "contractAddress": null,
      "gasUsedForL1": "0x18",
      "l1BlockNumber": "0x16c1d47"
    },
    {
      "status": "0x1",
      "cumulativeGasUsed": "0x5e3b5",
      "logs": [
        {
          "address": "0x64dd1cb8a77fb55d4838897fd6f60e28b2e8fed8",
          "topics": [
            "0xc3d58168c5ae7397731d063d5bbf3d657854427343f4c083240f7aacaa2d0f62",
            "0x000000000000000000000000634989990acb7f95d07ac09a6c35491ac8dfa3cf",
            "0x0000000000000000000000000000000000000000000000000000000000000000",
            "0x000000000000000000000000634989990acb7f95d07ac09a6c35491ac8dfa3cf"
          ],
          "data": "0x00000000000000000000000000000000000000000000000000000000000000150000000000000000000000000000000000000000000000000000000000000001",
          "blockHash": "0x8954ad22e5c4ec4a5a7a57be502869bf87b06715225ffced62b4d1344a9ef4d3",
          "blockNumber": "0x1b9214a",
          "transactionHash": "0x03c6c63ad8c32251b35f8d2f5294b368b8cbd92ec54b09adfaab7e112c2adb4e",
          "transactionIndex": "0x7",
          "logIndex": "0x6",
          "removed": false
        }
      ],
      "logsBloom": "0x00000000000000000000000000000000000000000000000000000000000000000000000000000000000000000000100000000000000000000000000000002000000000000000000000000000400000000000000000000000000000000000000000000000020000000000000000000800000000000000000000000008000000000000000000000000000000000000000000000000000000000000800000000000000000000000000000000000000000000000000000008000000000000000000000000000000000000000000000000000000000000008000000000000000020000000200000000000000000000000000000000000000000000000080000000000",
      "type": "0x2",
      "transactionHash": "0x03c6c63ad8c32251b35f8d2f5294b368b8cbd92ec54b09adfaab7e112c2adb4e",
      "transactionIndex": "0x7",
      "blockHash": "0x8954ad22e5c4ec4a5a7a57be502869bf87b06715225ffced62b4d1344a9ef4d3",
      "blockNumber": "0x1b9214a",
      "gasUsed": "0xd763",
      "effectiveGasPrice": "0x5eb30f250",
      "from": "0x634989990acb7f95d07ac09a6c35491ac8dfa3cf",
      "to": "0x64dd1cb8a77fb55d4838897fd6f60e28b2e8fed8",
      "contractAddress": null,
      "gasUsedForL1": "0x18",
      "l1BlockNumber": "0x16c1d47"
    },
    {
      "status": "0x1",
      "cumulativeGasUsed": "0xd763",
      "logs": [
        {
          "address": "0x64dd1cb8a77fb55d4838897fd6f60e28b2e8fed8",
          "topics": [
            "0xc3d58168c5ae7397731d063d5bbf3d657854427343f4c083240f7aacaa2d0f62",
            "0x000000000000000000000000634989990acb7f95d07ac09a6c35491ac8dfa3cf",
            "0x0000000000000000000000000000000000000000000000000000000000000000",
            "0x000000000000000000000000634989990acb7f95d07ac09a6c35491ac8dfa3cf"
          ],
          "data": "0x00000000000000000000000000000000000000000000000000000000000000160000000000000000000000000000000000000000000000000000000000000001",
          "blockHash": "0x597ce6102c5c9768ab0f6fe069dd7a4e2694429d2fecd2f84d65220e9c357d11",
          "blockNumber": "0x1b9214b",
          "transactionHash": "0xf1b78510dae9399b6008466663cec4539a43e773843584bfd5542a93d845e6da",
          "transactionIndex": "0x1",
          "logIndex": "0x0",
          "removed": false
        }
      ],
      "logsBloom": "0x00000000000000000000000000000000000000000000000000000000000000000000000000000000000000000000100000000000000000000000000000002000000000000000000000000000400000000000000000000000000000000000000000000000020000000000000000000800000000000000000000000008000000000000000000000000000000000000000000000000000000000000800000000000000000000000000000000000000000000000000000008000000000000000000000000000000000000000000000000000000000000008000000000000000020000000200000000000000000000000000000000000000000000000080000000000",
      "type": "0x2",
      "transactionHash": "0xf1b78510dae9399b6008466663cec4539a43e773843584bfd5542a93d845e6da",
      "transactionIndex": "0x1",
      "blockHash": "0x597ce6102c5c9768ab0f6fe069dd7a4e2694429d2fecd2f84d65220e9c357d11",
      "blockNumber": "0x1b9214b",
      "gasUsed": "0xd763",
      "effectiveGasPrice": "0x5eb30f250",
      "from": "0x634989990acb7f95d07ac09a6c35491ac8dfa3cf",
      "to": "0x64dd1cb8a77fb55d4838897fd6f60e28b2e8fed8",
      "contractAddress": null,
      "gasUsedForL1": "0x18",
      "l1BlockNumber": "0x16c1d47"
    },
    {
      "status": "0x1",
      "cumulativeGasUsed": "0x1aec6",
      "logs": [
        {
          "address": "0x64dd1cb8a77fb55d4838897fd6f60e28b2e8fed8",
          "topics": [
            "0xc3d58168c5ae7397731d063d5bbf3d657854427343f4c083240f7aacaa2d0f62",
            "0x000000000000000000000000634989990acb7f95d07ac09a6c35491ac8dfa3cf",
            "0x0000000000000000000000000000000000000000000000000000000000000000",
            "0x000000000000000000000000634989990acb7f95d07ac09a6c35491ac8dfa3cf"
          ],
          "data": "0x00000000000000000000000000000000000000000000000000000000000000170000000000000000000000000000000000000000000000000000000000000001",
          "blockHash": "0x597ce6102c5c9768ab0f6fe069dd7a4e2694429d2fecd2f84d65220e9c357d11",
          "blockNumber": "0x1b9214b",
          "transactionHash": "0x0b350447db4ff16e232267ae5c3d2175832f4a186f0c214092164e1ef8db47c2",
          "transactionIndex": "0x2",
          "logIndex": "0x1",
          "removed": false
        }
      ],
      "logsBloom": "0x00000000000000000000000000000000000000000000000000000000000000000000000000000000000000000000100000000000000000000000000000002000000000000000000000000000400000000000000000000000000000000000000000000000020000000000000000000800000000000000000000000008000000000000000000000000000000000000000000000000000000000000800000000000000000000000000000000000000000000000000000008000000000000000000000000000000000000000000000000000000000000008000000000000000020000000200000000000000000000000000000000000000000000000080000000000",
      "type": "0x2",
      "transactionHash": "0x0b350447db4ff16e232267ae5c3d2175832f4a186f0c214092164e1ef8db47c2",
      "transactionIndex": "0x2",
      "blockHash": "0x597ce6102c5c9768ab0f6fe069dd7a4e2694429d2fecd2f84d65220e9c357d11",
      "blockNumber": "0x1b9214b",
      "gasUsed": "0xd763",
      "effectiveGasPrice": "0x5eb30f250",
      "from": "0x634989990acb7f95d07ac09a6c35491ac8dfa3cf",
      "to": "0x64dd1cb8a77fb55d4838897fd6f60e28b2e8fed8",
      "contractAddress": null,
      "gasUsedForL1": "0x18",
      "l1BlockNumber": "0x16c1d47"
    },
    {
      "status": "0x1",
      "cumulativeGasUsed": "0x28629",
      "logs": [
        {
          "address": "0x64dd1cb8a77fb55d4838897fd6f60e28b2e8fed8",
          "topics": [
            "0xc3d58168c5ae7397731d063d5bbf3d657854427343f4c083240f7aacaa2d0f62",
            "0x000000000000000000000000634989990acb7f95d07ac09a6c35491ac8dfa3cf",
            "0x0000000000000000000000000000000000000000000000000000000000000000",
            "0x000000000000000000000000634989990acb7f95d07ac09a6c35491ac8dfa3cf"
          ],
          "data": "0x00000000000000000000000000000000000000000000000000000000000000180000000000000000000000000000000000000000000000000000000000000001",
          "blockHash": "0x597ce6102c5c9768ab0f6fe069dd7a4e2694429d2fecd2f84d65220e9c357d11",
          "blockNumber": "0x1b9214b",
          "transactionHash": "0x92fc2983bfbacfbfe8fd6a91eaf4308761761f8891c890f9c15d0e347fb13a7d",
          "transactionIndex": "0x3",
          "logIndex": "0x2",
          "removed": false
        }
      ],
      "logsBloom": "0x00000000000000000000000000000000000000000000000000000000000000000000000000000000000000000000100000000000000000000000000000002000000000000000000000000000400000000000000000000000000000000000000000000000020000000000000000000800000000000000000000000008000000000000000000000000000000000000000000000000000000000000800000000000000000000000000000000000000000000000000000008000000000000000000000000000000000000000000000000000000000000008000000000000000020000000200000000000000000000000000000000000000000000000080000000000",
      "type": "0x2",
      "transactionHash": "0x92fc2983bfbacfbfe8fd6a91eaf4308761761f8891c890f9c15d0e347fb13a7d",
      "transactionIndex": "0x3",
      "blockHash": "0x597ce6102c5c9768ab0f6fe069dd7a4e2694429d2fecd2f84d65220e9c357d11",
      "blockNumber": "0x1b9214b",
      "gasUsed": "0xd763",
      "effectiveGasPrice": "0x5eb30f250",
      "from": "0x634989990acb7f95d07ac09a6c35491ac8dfa3cf",
      "to": "0x64dd1cb8a77fb55d4838897fd6f60e28b2e8fed8",
      "contractAddress": null,
      "gasUsedForL1": "0x18",
      "l1BlockNumber": "0x16c1d47"
    },
    {
      "status": "0x1",
      "cumulativeGasUsed": "0x35d8c",
      "logs": [
        {
          "address": "0x64dd1cb8a77fb55d4838897fd6f60e28b2e8fed8",
          "topics": [
            "0xc3d58168c5ae7397731d063d5bbf3d657854427343f4c083240f7aacaa2d0f62",
            "0x000000000000000000000000634989990acb7f95d07ac09a6c35491ac8dfa3cf",
            "0x0000000000000000000000000000000000000000000000000000000000000000",
            "0x000000000000000000000000634989990acb7f95d07ac09a6c35491ac8dfa3cf"
          ],
          "data": "0x00000000000000000000000000000000000000000000000000000000000000190000000000000000000000000000000000000000000000000000000000000001",
          "blockHash": "0x597ce6102c5c9768ab0f6fe069dd7a4e2694429d2fecd2f84d65220e9c357d11",
          "blockNumber": "0x1b9214b",
          "transactionHash": "0x31024d80aa18cad437afa98a8ec4b7a3e59e6207564fdf62c8f9d82aac6f74f2",
          "transactionIndex": "0x4",
          "logIndex": "0x3",
          "removed": false
        }
      ],
      "logsBloom": "0x00000000000000000000000000000000000000000000000000000000000000000000000000000000000000000000100000000000000000000000000000002000000000000000000000000000400000000000000000000000000000000000000000000000020000000000000000000800000000000000000000000008000000000000000000000000000000000000000000000000000000000000800000000000000000000000000000000000000000000000000000008000000000000000000000000000000000000000000000000000000000000008000000000000000020000000200000000000000000000000000000000000000000000000080000000000",
      "type": "0x2",
      "transactionHash": "0x31024d80aa18cad437afa98a8ec4b7a3e59e6207564fdf62c8f9d82aac6f74f2",
      "transactionIndex": "0x4",
      "blockHash": "0x597ce6102c5c9768ab0f6fe069dd7a4e2694429d2fecd2f84d65220e9c357d11",
      "blockNumber": "0x1b9214b",
      "gasUsed": "0xd763",
      "effectiveGasPrice": "0x5eb30f250",
      "from": "0x634989990acb7f95d07ac09a6c35491ac8dfa3cf",
      "to": "0x64dd1cb8a77fb55d4838897fd6f60e28b2e8fed8",
      "contractAddress": null,
      "gasUsedForL1": "0x18",
      "l1BlockNumber": "0x16c1d47"
    },
    {
      "status": "0x1",
      "cumulativeGasUsed": "0x434ef",
      "logs": [
        {
          "address": "0x64dd1cb8a77fb55d4838897fd6f60e28b2e8fed8",
          "topics": [
            "0xc3d58168c5ae7397731d063d5bbf3d657854427343f4c083240f7aacaa2d0f62",
            "0x000000000000000000000000634989990acb7f95d07ac09a6c35491ac8dfa3cf",
            "0x0000000000000000000000000000000000000000000000000000000000000000",
            "0x000000000000000000000000634989990acb7f95d07ac09a6c35491ac8dfa3cf"
          ],
          "data": "0x000000000000000000000000000000000000000000000000000000000000001a0000000000000000000000000000000000000000000000000000000000000001",
          "blockHash": "0x597ce6102c5c9768ab0f6fe069dd7a4e2694429d2fecd2f84d65220e9c357d11",
          "blockNumber": "0x1b9214b",
          "transactionHash": "0x81e9ec62463307c200201f067b7f7a5f54a2a046747ba6ab006dd3639476989a",
          "transactionIndex": "0x5",
          "logIndex": "0x4",
          "removed": false
        }
      ],
      "logsBloom": "0x00000000000000000000000000000000000000000000000000000000000000000000000000000000000000000000100000000000000000000000000000002000000000000000000000000000400000000000000000000000000000000000000000000000020000000000000000000800000000000000000000000008000000000000000000000000000000000000000000000000000000000000800000000000000000000000000000000000000000000000000000008000000000000000000000000000000000000000000000000000000000000008000000000000000020000000200000000000000000000000000000000000000000000000080000000000",
      "type": "0x2",
      "transactionHash": "0x81e9ec62463307c200201f067b7f7a5f54a2a046747ba6ab006dd3639476989a",
      "transactionIndex": "0x5",
      "blockHash": "0x597ce6102c5c9768ab0f6fe069dd7a4e2694429d2fecd2f84d65220e9c357d11",
      "blockNumber": "0x1b9214b",
      "gasUsed": "0xd763",
      "effectiveGasPrice": "0x5eb30f250",
      "from": "0x634989990acb7f95d07ac09a6c35491ac8dfa3cf",
      "to": "0x64dd1cb8a77fb55d4838897fd6f60e28b2e8fed8",
      "contractAddress": null,
      "gasUsedForL1": "0x18",
      "l1BlockNumber": "0x16c1d47"
    },
    {
      "status": "0x1",
      "cumulativeGasUsed": "0x50c52",
      "logs": [
        {
          "address": "0x64dd1cb8a77fb55d4838897fd6f60e28b2e8fed8",
          "topics": [
            "0xc3d58168c5ae7397731d063d5bbf3d657854427343f4c083240f7aacaa2d0f62",
            "0x000000000000000000000000634989990acb7f95d07ac09a6c35491ac8dfa3cf",
            "0x0000000000000000000000000000000000000000000000000000000000000000",
            "0x000000000000000000000000634989990acb7f95d07ac09a6c35491ac8dfa3cf"
          ],
          "data": "0x000000000000000000000000000000000000000000000000000000000000001b0000000000000000000000000000000000000000000000000000000000000001",
          "blockHash": "0x597ce6102c5c9768ab0f6fe069dd7a4e2694429d2fecd2f84d65220e9c357d11",
          "blockNumber": "0x1b9214b",
          "transactionHash": "0xeb3af73dc556b78bf34c70ad3e8151e616073dd3bfca334afe2aaa1db04f2583",
          "transactionIndex": "0x6",
          "logIndex": "0x5",
          "removed": false
        }
      ],
      "logsBloom": "0x00000000000000000000000000000000000000000000000000000000000000000000000000000000000000000000100000000000000000000000000000002000000000000000000000000000400000000000000000000000000000000000000000000000020000000000000000000800000000000000000000000008000000000000000000000000000000000000000000000000000000000000800000000000000000000000000000000000000000000000000000008000000000000000000000000000000000000000000000000000000000000008000000000000000020000000200000000000000000000000000000000000000000000000080000000000",
      "type": "0x2",
      "transactionHash": "0xeb3af73dc556b78bf34c70ad3e8151e616073dd3bfca334afe2aaa1db04f2583",
      "transactionIndex": "0x6",
      "blockHash": "0x597ce6102c5c9768ab0f6fe069dd7a4e2694429d2fecd2f84d65220e9c357d11",
      "blockNumber": "0x1b9214b",
      "gasUsed": "0xd763",
      "effectiveGasPrice": "0x5eb30f250",
      "from": "0x634989990acb7f95d07ac09a6c35491ac8dfa3cf",
      "to": "0x64dd1cb8a77fb55d4838897fd6f60e28b2e8fed8",
      "contractAddress": null,
      "gasUsedForL1": "0x18",
      "l1BlockNumber": "0x16c1d47"
    },
    {
      "status": "0x1",
      "cumulativeGasUsed": "0x5e3b5",
      "logs": [
        {
          "address": "0x64dd1cb8a77fb55d4838897fd6f60e28b2e8fed8",
          "topics": [
            "0xc3d58168c5ae7397731d063d5bbf3d657854427343f4c083240f7aacaa2d0f62",
            "0x000000000000000000000000634989990acb7f95d07ac09a6c35491ac8dfa3cf",
            "0x0000000000000000000000000000000000000000000000000000000000000000",
            "0x000000000000000000000000634989990acb7f95d07ac09a6c35491ac8dfa3cf"
          ],
          "data": "0x000000000000000000000000000000000000000000000000000000000000001c0000000000000000000000000000000000000000000000000000000000000001",
          "blockHash": "0x597ce6102c5c9768ab0f6fe069dd7a4e2694429d2fecd2f84d65220e9c357d11",
          "blockNumber": "0x1b9214b",
          "transactionHash": "0xe336a2f6c842dbc731fd25dcaf578580e925cdac4f73f34e11300b7e791f1e0e",
          "transactionIndex": "0x7",
          "logIndex": "0x6",
          "removed": false
        }
      ],
      "logsBloom": "0x00000000000000000000000000000000000000000000000000000000000000000000000000000000000000000000100000000000000000000000000000002000000000000000000000000000400000000000000000000000000000000000000000000000020000000000000000000800000000000000000000000008000000000000000000000000000000000000000000000000000000000000800000000000000000000000000000000000000000000000000000008000000000000000000000000000000000000000000000000000000000000008000000000000000020000000200000000000000000000000000000000000000000000000080000000000",
      "type": "0x2",
      "transactionHash": "0xe336a2f6c842dbc731fd25dcaf578580e925cdac4f73f34e11300b7e791f1e0e",
      "transactionIndex": "0x7",
      "blockHash": "0x597ce6102c5c9768ab0f6fe069dd7a4e2694429d2fecd2f84d65220e9c357d11",
      "blockNumber": "0x1b9214b",
      "gasUsed": "0xd763",
      "effectiveGasPrice": "0x5eb30f250",
      "from": "0x634989990acb7f95d07ac09a6c35491ac8dfa3cf",
      "to": "0x64dd1cb8a77fb55d4838897fd6f60e28b2e8fed8",
      "contractAddress": null,
      "gasUsedForL1": "0x18",
      "l1BlockNumber": "0x16c1d47"
    },
    {
      "status": "0x1",
      "cumulativeGasUsed": "0xd763",
      "logs": [
        {
          "address": "0x64dd1cb8a77fb55d4838897fd6f60e28b2e8fed8",
          "topics": [
            "0xc3d58168c5ae7397731d063d5bbf3d657854427343f4c083240f7aacaa2d0f62",
            "0x000000000000000000000000634989990acb7f95d07ac09a6c35491ac8dfa3cf",
            "0x0000000000000000000000000000000000000000000000000000000000000000",
            "0x000000000000000000000000634989990acb7f95d07ac09a6c35491ac8dfa3cf"
          ],
          "data": "0x000000000000000000000000000000000000000000000000000000000000001d0000000000000000000000000000000000000000000000000000000000000001",
          "blockHash": "0x235ccf724325f74cf937be27a24047c0c76f063e253d137698430a90c1cc3c96",
          "blockNumber": "0x1b9214c",
          "transactionHash": "0xdac71e5c59ffbfd1e7932356c1b8c34767f8e409a1d2dbd442053d207523f9f3",
          "transactionIndex": "0x1",
          "logIndex": "0x0",
          "removed": false
        }
      ],
      "logsBloom": "0x00000000000000000000000000000000000000000000000000000000000000000000000000000000000000000000100000000000000000000000000000002000000000000000000000000000400000000000000000000000000000000000000000000000020000000000000000000800000000000000000000000008000000000000000000000000000000000000000000000000000000000000800000000000000000000000000000000000000000000000000000008000000000000000000000000000000000000000000000000000000000000008000000000000000020000000200000000000000000000000000000000000000000000000080000000000",
      "type": "0x2",
      "transactionHash": "0xdac71e5c59ffbfd1e7932356c1b8c34767f8e409a1d2dbd442053d207523f9f3",
      "transactionIndex": "0x1",
      "blockHash": "0x235ccf724325f74cf937be27a24047c0c76f063e253d137698430a90c1cc3c96",
      "blockNumber": "0x1b9214c",
      "gasUsed": "0xd763",
      "effectiveGasPrice": "0x5eb30f250",
      "from": "0x634989990acb7f95d07ac09a6c35491ac8dfa3cf",
      "to": "0x64dd1cb8a77fb55d4838897fd6f60e28b2e8fed8",
      "contractAddress": null,
      "gasUsedForL1": "0x18",
      "l1BlockNumber": "0x16c1d47"
    },
    {
      "status": "0x1",
      "cumulativeGasUsed": "0x1aec6",
      "logs": [
        {
          "address": "0x64dd1cb8a77fb55d4838897fd6f60e28b2e8fed8",
          "topics": [
            "0xc3d58168c5ae7397731d063d5bbf3d657854427343f4c083240f7aacaa2d0f62",
            "0x000000000000000000000000634989990acb7f95d07ac09a6c35491ac8dfa3cf",
            "0x0000000000000000000000000000000000000000000000000000000000000000",
            "0x000000000000000000000000634989990acb7f95d07ac09a6c35491ac8dfa3cf"
          ],
          "data": "0x000000000000000000000000000000000000000000000000000000000000001e0000000000000000000000000000000000000000000000000000000000000001",
          "blockHash": "0x235ccf724325f74cf937be27a24047c0c76f063e253d137698430a90c1cc3c96",
          "blockNumber": "0x1b9214c",
          "transactionHash": "0xbf918b7366cf0bb90a73ca0d23e9fb50fce9be148479f591c19f90e4ecb3088a",
          "transactionIndex": "0x2",
          "logIndex": "0x1",
          "removed": false
        }
      ],
      "logsBloom": "0x00000000000000000000000000000000000000000000000000000000000000000000000000000000000000000000100000000000000000000000000000002000000000000000000000000000400000000000000000000000000000000000000000000000020000000000000000000800000000000000000000000008000000000000000000000000000000000000000000000000000000000000800000000000000000000000000000000000000000000000000000008000000000000000000000000000000000000000000000000000000000000008000000000000000020000000200000000000000000000000000000000000000000000000080000000000",
      "type": "0x2",
      "transactionHash": "0xbf918b7366cf0bb90a73ca0d23e9fb50fce9be148479f591c19f90e4ecb3088a",
      "transactionIndex": "0x2",
      "blockHash": "0x235ccf724325f74cf937be27a24047c0c76f063e253d137698430a90c1cc3c96",
      "blockNumber": "0x1b9214c",
      "gasUsed": "0xd763",
      "effectiveGasPrice": "0x5eb30f250",
      "from": "0x634989990acb7f95d07ac09a6c35491ac8dfa3cf",
      "to": "0x64dd1cb8a77fb55d4838897fd6f60e28b2e8fed8",
      "contractAddress": null,
      "gasUsedForL1": "0x18",
      "l1BlockNumber": "0x16c1d47"
    },
    {
      "status": "0x1",
      "cumulativeGasUsed": "0x28629",
      "logs": [
        {
          "address": "0x64dd1cb8a77fb55d4838897fd6f60e28b2e8fed8",
          "topics": [
            "0xc3d58168c5ae7397731d063d5bbf3d657854427343f4c083240f7aacaa2d0f62",
            "0x000000000000000000000000634989990acb7f95d07ac09a6c35491ac8dfa3cf",
            "0x0000000000000000000000000000000000000000000000000000000000000000",
            "0x000000000000000000000000634989990acb7f95d07ac09a6c35491ac8dfa3cf"
          ],
          "data": "0x000000000000000000000000000000000000000000000000000000000000001f0000000000000000000000000000000000000000000000000000000000000001",
          "blockHash": "0x235ccf724325f74cf937be27a24047c0c76f063e253d137698430a90c1cc3c96",
          "blockNumber": "0x1b9214c",
          "transactionHash": "0xcfca1a9a2d55bb179fc44214d662dfd02f09553d63a07cee5ba7905f0b945d51",
          "transactionIndex": "0x3",
          "logIndex": "0x2",
          "removed": false
        }
      ],
      "logsBloom": "0x00000000000000000000000000000000000000000000000000000000000000000000000000000000000000000000100000000000000000000000000000002000000000000000000000000000400000000000000000000000000000000000000000000000020000000000000000000800000000000000000000000008000000000000000000000000000000000000000000000000000000000000800000000000000000000000000000000000000000000000000000008000000000000000000000000000000000000000000000000000000000000008000000000000000020000000200000000000000000000000000000000000000000000000080000000000",
      "type": "0x2",
      "transactionHash": "0xcfca1a9a2d55bb179fc44214d662dfd02f09553d63a07cee5ba7905f0b945d51",
      "transactionIndex": "0x3",
      "blockHash": "0x235ccf724325f74cf937be27a24047c0c76f063e253d137698430a90c1cc3c96",
      "blockNumber": "0x1b9214c",
      "gasUsed": "0xd763",
      "effectiveGasPrice": "0x5eb30f250",
      "from": "0x634989990acb7f95d07ac09a6c35491ac8dfa3cf",
      "to": "0x64dd1cb8a77fb55d4838897fd6f60e28b2e8fed8",
      "contractAddress": null,
      "gasUsedForL1": "0x18",
      "l1BlockNumber": "0x16c1d47"
    },
    {
      "status": "0x1",
      "cumulativeGasUsed": "0x35d8c",
      "logs": [
        {
          "address": "0x64dd1cb8a77fb55d4838897fd6f60e28b2e8fed8",
          "topics": [
            "0xc3d58168c5ae7397731d063d5bbf3d657854427343f4c083240f7aacaa2d0f62",
            "0x000000000000000000000000634989990acb7f95d07ac09a6c35491ac8dfa3cf",
            "0x0000000000000000000000000000000000000000000000000000000000000000",
            "0x000000000000000000000000634989990acb7f95d07ac09a6c35491ac8dfa3cf"
          ],
          "data": "0x00000000000000000000000000000000000000000000000000000000000000200000000000000000000000000000000000000000000000000000000000000001",
          "blockHash": "0x235ccf724325f74cf937be27a24047c0c76f063e253d137698430a90c1cc3c96",
          "blockNumber": "0x1b9214c",
          "transactionHash": "0x6679b9459676bb3163c5fb04462186f34e18c738d179a7f940554e1055471928",
          "transactionIndex": "0x4",
          "logIndex": "0x3",
          "removed": false
        }
      ],
      "logsBloom": "0x00000000000000000000000000000000000000000000000000000000000000000000000000000000000000000000100000000000000000000000000000002000000000000000000000000000400000000000000000000000000000000000000000000000020000000000000000000800000000000000000000000008000000000000000000000000000000000000000000000000000000000000800000000000000000000000000000000000000000000000000000008000000000000000000000000000000000000000000000000000000000000008000000000000000020000000200000000000000000000000000000000000000000000000080000000000",
      "type": "0x2",
      "transactionHash": "0x6679b9459676bb3163c5fb04462186f34e18c738d179a7f940554e1055471928",
      "transactionIndex": "0x4",
      "blockHash": "0x235ccf724325f74cf937be27a24047c0c76f063e253d137698430a90c1cc3c96",
      "blockNumber": "0x1b9214c",
      "gasUsed": "0xd763",
      "effectiveGasPrice": "0x5eb30f250",
      "from": "0x634989990acb7f95d07ac09a6c35491ac8dfa3cf",
      "to": "0x64dd1cb8a77fb55d4838897fd6f60e28b2e8fed8",
      "contractAddress": null,
      "gasUsedForL1": "0x18",
      "l1BlockNumber": "0x16c1d47"
    },
    {
      "status": "0x1",
      "cumulativeGasUsed": "0x434ef",
      "logs": [
        {
          "address": "0x64dd1cb8a77fb55d4838897fd6f60e28b2e8fed8",
          "topics": [
            "0xc3d58168c5ae7397731d063d5bbf3d657854427343f4c083240f7aacaa2d0f62",
            "0x000000000000000000000000634989990acb7f95d07ac09a6c35491ac8dfa3cf",
            "0x0000000000000000000000000000000000000000000000000000000000000000",
            "0x000000000000000000000000634989990acb7f95d07ac09a6c35491ac8dfa3cf"
          ],
          "data": "0x00000000000000000000000000000000000000000000000000000000000000210000000000000000000000000000000000000000000000000000000000000001",
          "blockHash": "0x235ccf724325f74cf937be27a24047c0c76f063e253d137698430a90c1cc3c96",
          "blockNumber": "0x1b9214c",
          "transactionHash": "0x893f63712413cdaca00ddda8f01acb69554aaf754a93a03e2b5b65e3c62a027c",
          "transactionIndex": "0x5",
          "logIndex": "0x4",
          "removed": false
        }
      ],
      "logsBloom": "0x00000000000000000000000000000000000000000000000000000000000000000000000000000000000000000000100000000000000000000000000000002000000000000000000000000000400000000000000000000000000000000000000000000000020000000000000000000800000000000000000000000008000000000000000000000000000000000000000000000000000000000000800000000000000000000000000000000000000000000000000000008000000000000000000000000000000000000000000000000000000000000008000000000000000020000000200000000000000000000000000000000000000000000000080000000000",
      "type": "0x2",
      "transactionHash": "0x893f63712413cdaca00ddda8f01acb69554aaf754a93a03e2b5b65e3c62a027c",
      "transactionIndex": "0x5",
      "blockHash": "0x235ccf724325f74cf937be27a24047c0c76f063e253d137698430a90c1cc3c96",
      "blockNumber": "0x1b9214c",
      "gasUsed": "0xd763",
      "effectiveGasPrice": "0x5eb30f250",
      "from": "0x634989990acb7f95d07ac09a6c35491ac8dfa3cf",
      "to": "0x64dd1cb8a77fb55d4838897fd6f60e28b2e8fed8",
      "contractAddress": null,
      "gasUsedForL1": "0x18",
      "l1BlockNumber": "0x16c1d47"
    },
    {
      "status": "0x1",
      "cumulativeGasUsed": "0x50c52",
      "logs": [
        {
          "address": "0x64dd1cb8a77fb55d4838897fd6f60e28b2e8fed8",
          "topics": [
            "0xc3d58168c5ae7397731d063d5bbf3d657854427343f4c083240f7aacaa2d0f62",
            "0x000000000000000000000000634989990acb7f95d07ac09a6c35491ac8dfa3cf",
            "0x0000000000000000000000000000000000000000000000000000000000000000",
            "0x000000000000000000000000634989990acb7f95d07ac09a6c35491ac8dfa3cf"
          ],
          "data": "0x00000000000000000000000000000000000000000000000000000000000000220000000000000000000000000000000000000000000000000000000000000001",
          "blockHash": "0x235ccf724325f74cf937be27a24047c0c76f063e253d137698430a90c1cc3c96",
          "blockNumber": "0x1b9214c",
          "transactionHash": "0x5c9f034fc4612f8beec567e4f1860b5a5e82effb939206e48f1692ec691597fb",
          "transactionIndex": "0x6",
          "logIndex": "0x5",
          "removed": false
        }
      ],
      "logsBloom": "0x00000000000000000000000000000000000000000000000000000000000000000000000000000000000000000000100000000000000000000000000000002000000000000000000000000000400000000000000000000000000000000000000000000000020000000000000000000800000000000000000000000008000000000000000000000000000000000000000000000000000000000000800000000000000000000000000000000000000000000000000000008000000000000000000000000000000000000000000000000000000000000008000000000000000020000000200000000000000000000000000000000000000000000000080000000000",
      "type": "0x2",
      "transactionHash": "0x5c9f034fc4612f8beec567e4f1860b5a5e82effb939206e48f1692ec691597fb",
      "transactionIndex": "0x6",
      "blockHash": "0x235ccf724325f74cf937be27a24047c0c76f063e253d137698430a90c1cc3c96",
      "blockNumber": "0x1b9214c",
      "gasUsed": "0xd763",
      "effectiveGasPrice": "0x5eb30f250",
      "from": "0x634989990acb7f95d07ac09a6c35491ac8dfa3cf",
      "to": "0x64dd1cb8a77fb55d4838897fd6f60e28b2e8fed8",
      "contractAddress": null,
      "gasUsedForL1": "0x18",
      "l1BlockNumber": "0x16c1d47"
    },
    {
      "status": "0x1",
      "cumulativeGasUsed": "0x5e3b5",
      "logs": [
        {
          "address": "0x64dd1cb8a77fb55d4838897fd6f60e28b2e8fed8",
          "topics": [
            "0xc3d58168c5ae7397731d063d5bbf3d657854427343f4c083240f7aacaa2d0f62",
            "0x000000000000000000000000634989990acb7f95d07ac09a6c35491ac8dfa3cf",
            "0x0000000000000000000000000000000000000000000000000000000000000000",
            "0x000000000000000000000000634989990acb7f95d07ac09a6c35491ac8dfa3cf"
          ],
          "data": "0x00000000000000000000000000000000000000000000000000000000000000230000000000000000000000000000000000000000000000000000000000000001",
          "blockHash": "0x235ccf724325f74cf937be27a24047c0c76f063e253d137698430a90c1cc3c96",
          "blockNumber": "0x1b9214c",
          "transactionHash": "0x62be47d0a770c85e0350310d56e1b73bf8aaf2d94dae70a9527ad1826e63c4b9",
          "transactionIndex": "0x7",
          "logIndex": "0x6",
          "removed": false
        }
      ],
      "logsBloom": "0x00000000000000000000000000000000000000000000000000000000000000000000000000000000000000000000100000000000000000000000000000002000000000000000000000000000400000000000000000000000000000000000000000000000020000000000000000000800000000000000000000000008000000000000000000000000000000000000000000000000000000000000800000000000000000000000000000000000000000000000000000008000000000000000000000000000000000000000000000000000000000000008000000000000000020000000200000000000000000000000000000000000000000000000080000000000",
      "type": "0x2",
      "transactionHash": "0x62be47d0a770c85e0350310d56e1b73bf8aaf2d94dae70a9527ad1826e63c4b9",
      "transactionIndex": "0x7",
      "blockHash": "0x235ccf724325f74cf937be27a24047c0c76f063e253d137698430a90c1cc3c96",
      "blockNumber": "0x1b9214c",
      "gasUsed": "0xd763",
      "effectiveGasPrice": "0x5eb30f250",
      "from": "0x634989990acb7f95d07ac09a6c35491ac8dfa3cf",
      "to": "0x64dd1cb8a77fb55d4838897fd6f60e28b2e8fed8",
      "contractAddress": null,
      "gasUsedForL1": "0x18",
      "l1BlockNumber": "0x16c1d47"
    },
    {
      "status": "0x1",
      "cumulativeGasUsed": "0xd763",
      "logs": [
        {
          "address": "0x64dd1cb8a77fb55d4838897fd6f60e28b2e8fed8",
          "topics": [
            "0xc3d58168c5ae7397731d063d5bbf3d657854427343f4c083240f7aacaa2d0f62",
            "0x000000000000000000000000634989990acb7f95d07ac09a6c35491ac8dfa3cf",
            "0x0000000000000000000000000000000000000000000000000000000000000000",
            "0x000000000000000000000000634989990acb7f95d07ac09a6c35491ac8dfa3cf"
          ],
          "data": "0x00000000000000000000000000000000000000000000000000000000000000240000000000000000000000000000000000000000000000000000000000000001",
          "blockHash": "0x0cf160a5ca0160afa9413af854ae55a5b8764dade1f6d7882f4204ee42307103",
          "blockNumber": "0x1b9214d",
          "transactionHash": "0xd090ffe2851d35b2ab473345a473b8876b68ad30fc88e7c034d0ca38720e7f53",
          "transactionIndex": "0x1",
          "logIndex": "0x0",
          "removed": false
        }
      ],
      "logsBloom": "0x00000000000000000000000000000000000000000000000000000000000000000000000000000000000000000000100000000000000000000000000000002000000000000000000000000000400000000000000000000000000000000000000000000000020000000000000000000800000000000000000000000008000000000000000000000000000000000000000000000000000000000000800000000000000000000000000000000000000000000000000000008000000000000000000000000000000000000000000000000000000000000008000000000000000020000000200000000000000000000000000000000000000000000000080000000000",
      "type": "0x2",
      "transactionHash": "0xd090ffe2851d35b2ab473345a473b8876b68ad30fc88e7c034d0ca38720e7f53",
      "transactionIndex": "0x1",
      "blockHash": "0x0cf160a5ca0160afa9413af854ae55a5b8764dade1f6d7882f4204ee42307103",
      "blockNumber": "0x1b9214d",
      "gasUsed": "0xd763",
      "effectiveGasPrice": "0x5eb30f250",
      "from": "0x634989990acb7f95d07ac09a6c35491ac8dfa3cf",
      "to": "0x64dd1cb8a77fb55d4838897fd6f60e28b2e8fed8",
      "contractAddress": null,
      "gasUsedForL1": "0x18",
      "l1BlockNumber": "0x16c1d47"
    },
    {
      "status": "0x1",
      "cumulativeGasUsed": "0x1aec6",
      "logs": [
        {
          "address": "0x64dd1cb8a77fb55d4838897fd6f60e28b2e8fed8",
          "topics": [
            "0xc3d58168c5ae7397731d063d5bbf3d657854427343f4c083240f7aacaa2d0f62",
            "0x000000000000000000000000634989990acb7f95d07ac09a6c35491ac8dfa3cf",
            "0x0000000000000000000000000000000000000000000000000000000000000000",
            "0x000000000000000000000000634989990acb7f95d07ac09a6c35491ac8dfa3cf"
          ],
          "data": "0x00000000000000000000000000000000000000000000000000000000000000250000000000000000000000000000000000000000000000000000000000000001",
          "blockHash": "0x0cf160a5ca0160afa9413af854ae55a5b8764dade1f6d7882f4204ee42307103",
          "blockNumber": "0x1b9214d",
          "transactionHash": "0x0658baf405e1dc41cca479e5f7c4cd347fe26400fa88ca7383c2e579d0b99223",
          "transactionIndex": "0x2",
          "logIndex": "0x1",
          "removed": false
        }
      ],
      "logsBloom": "0x00000000000000000000000000000000000000000000000000000000000000000000000000000000000000000000100000000000000000000000000000002000000000000000000000000000400000000000000000000000000000000000000000000000020000000000000000000800000000000000000000000008000000000000000000000000000000000000000000000000000000000000800000000000000000000000000000000000000000000000000000008000000000000000000000000000000000000000000000000000000000000008000000000000000020000000200000000000000000000000000000000000000000000000080000000000",
      "type": "0x2",
      "transactionHash": "0x0658baf405e1dc41cca479e5f7c4cd347fe26400fa88ca7383c2e579d0b99223",
      "transactionIndex": "0x2",
      "blockHash": "0x0cf160a5ca0160afa9413af854ae55a5b8764dade1f6d7882f4204ee42307103",
      "blockNumber": "0x1b9214d",
      "gasUsed": "0xd763",
      "effectiveGasPrice": "0x5eb30f250",
      "from": "0x634989990acb7f95d07ac09a6c35491ac8dfa3cf",
      "to": "0x64dd1cb8a77fb55d4838897fd6f60e28b2e8fed8",
      "contractAddress": null,
      "gasUsedForL1": "0x18",
      "l1BlockNumber": "0x16c1d47"
    },
    {
      "status": "0x1",
      "cumulativeGasUsed": "0x28629",
      "logs": [
        {
          "address": "0x64dd1cb8a77fb55d4838897fd6f60e28b2e8fed8",
          "topics": [
            "0xc3d58168c5ae7397731d063d5bbf3d657854427343f4c083240f7aacaa2d0f62",
            "0x000000000000000000000000634989990acb7f95d07ac09a6c35491ac8dfa3cf",
            "0x0000000000000000000000000000000000000000000000000000000000000000",
            "0x000000000000000000000000634989990acb7f95d07ac09a6c35491ac8dfa3cf"
          ],
          "data": "0x00000000000000000000000000000000000000000000000000000000000000260000000000000000000000000000000000000000000000000000000000000001",
          "blockHash": "0x0cf160a5ca0160afa9413af854ae55a5b8764dade1f6d7882f4204ee42307103",
          "blockNumber": "0x1b9214d",
          "transactionHash": "0x64c4246d0a1d07b640a68d869d414625a95684f07609d4272dd0a5f4601c50e5",
          "transactionIndex": "0x3",
          "logIndex": "0x2",
          "removed": false
        }
      ],
      "logsBloom": "0x00000000000000000000000000000000000000000000000000000000000000000000000000000000000000000000100000000000000000000000000000002000000000000000000000000000400000000000000000000000000000000000000000000000020000000000000000000800000000000000000000000008000000000000000000000000000000000000000000000000000000000000800000000000000000000000000000000000000000000000000000008000000000000000000000000000000000000000000000000000000000000008000000000000000020000000200000000000000000000000000000000000000000000000080000000000",
      "type": "0x2",
      "transactionHash": "0x64c4246d0a1d07b640a68d869d414625a95684f07609d4272dd0a5f4601c50e5",
      "transactionIndex": "0x3",
      "blockHash": "0x0cf160a5ca0160afa9413af854ae55a5b8764dade1f6d7882f4204ee42307103",
      "blockNumber": "0x1b9214d",
      "gasUsed": "0xd763",
      "effectiveGasPrice": "0x5eb30f250",
      "from": "0x634989990acb7f95d07ac09a6c35491ac8dfa3cf",
      "to": "0x64dd1cb8a77fb55d4838897fd6f60e28b2e8fed8",
      "contractAddress": null,
      "gasUsedForL1": "0x18",
      "l1BlockNumber": "0x16c1d47"
    },
    {
      "status": "0x1",
      "cumulativeGasUsed": "0x35d8c",
      "logs": [
        {
          "address": "0x64dd1cb8a77fb55d4838897fd6f60e28b2e8fed8",
          "topics": [
            "0xc3d58168c5ae7397731d063d5bbf3d657854427343f4c083240f7aacaa2d0f62",
            "0x000000000000000000000000634989990acb7f95d07ac09a6c35491ac8dfa3cf",
            "0x0000000000000000000000000000000000000000000000000000000000000000",
            "0x000000000000000000000000634989990acb7f95d07ac09a6c35491ac8dfa3cf"
          ],
          "data": "0x00000000000000000000000000000000000000000000000000000000000000270000000000000000000000000000000000000000000000000000000000000001",
          "blockHash": "0x0cf160a5ca0160afa9413af854ae55a5b8764dade1f6d7882f4204ee42307103",
          "blockNumber": "0x1b9214d",
          "transactionHash": "0xe5a280eabfbc9e0c136192716bde41d51ed7df2730383150c83845eaaefcfbae",
          "transactionIndex": "0x4",
          "logIndex": "0x3",
          "removed": false
        }
      ],
      "logsBloom": "0x00000000000000000000000000000000000000000000000000000000000000000000000000000000000000000000100000000000000000000000000000002000000000000000000000000000400000000000000000000000000000000000000000000000020000000000000000000800000000000000000000000008000000000000000000000000000000000000000000000000000000000000800000000000000000000000000000000000000000000000000000008000000000000000000000000000000000000000000000000000000000000008000000000000000020000000200000000000000000000000000000000000000000000000080000000000",
      "type": "0x2",
      "transactionHash": "0xe5a280eabfbc9e0c136192716bde41d51ed7df2730383150c83845eaaefcfbae",
      "transactionIndex": "0x4",
      "blockHash": "0x0cf160a5ca0160afa9413af854ae55a5b8764dade1f6d7882f4204ee42307103",
      "blockNumber": "0x1b9214d",
      "gasUsed": "0xd763",
      "effectiveGasPrice": "0x5eb30f250",
      "from": "0x634989990acb7f95d07ac09a6c35491ac8dfa3cf",
      "to": "0x64dd1cb8a77fb55d4838897fd6f60e28b2e8fed8",
      "contractAddress": null,
      "gasUsedForL1": "0x18",
      "l1BlockNumber": "0x16c1d47"
    },
    {
      "status": "0x1",
      "cumulativeGasUsed": "0x434ef",
      "logs": [
        {
          "address": "0x64dd1cb8a77fb55d4838897fd6f60e28b2e8fed8",
          "topics": [
            "0xc3d58168c5ae7397731d063d5bbf3d657854427343f4c083240f7aacaa2d0f62",
            "0x000000000000000000000000634989990acb7f95d07ac09a6c35491ac8dfa3cf",
            "0x0000000000000000000000000000000000000000000000000000000000000000",
            "0x000000000000000000000000634989990acb7f95d07ac09a6c35491ac8dfa3cf"
          ],
          "data": "0x00000000000000000000000000000000000000000000000000000000000000280000000000000000000000000000000000000000000000000000000000000001",
          "blockHash": "0x0cf160a5ca0160afa9413af854ae55a5b8764dade1f6d7882f4204ee42307103",
          "blockNumber": "0x1b9214d",
          "transactionHash": "0x9ad0e264813e50828a334c42bbbe0af8fd3f4c822b621e57a0eb00221330b5a8",
          "transactionIndex": "0x5",
          "logIndex": "0x4",
          "removed": false
        }
      ],
      "logsBloom": "0x00000000000000000000000000000000000000000000000000000000000000000000000000000000000000000000100000000000000000000000000000002000000000000000000000000000400000000000000000000000000000000000000000000000020000000000000000000800000000000000000000000008000000000000000000000000000000000000000000000000000000000000800000000000000000000000000000000000000000000000000000008000000000000000000000000000000000000000000000000000000000000008000000000000000020000000200000000000000000000000000000000000000000000000080000000000",
      "type": "0x2",
      "transactionHash": "0x9ad0e264813e50828a334c42bbbe0af8fd3f4c822b621e57a0eb00221330b5a8",
      "transactionIndex": "0x5",
      "blockHash": "0x0cf160a5ca0160afa9413af854ae55a5b8764dade1f6d7882f4204ee42307103",
      "blockNumber": "0x1b9214d",
      "gasUsed": "0xd763",
      "effectiveGasPrice": "0x5eb30f250",
      "from": "0x634989990acb7f95d07ac09a6c35491ac8dfa3cf",
      "to": "0x64dd1cb8a77fb55d4838897fd6f60e28b2e8fed8",
      "contractAddress": null,
      "gasUsedForL1": "0x18",
      "l1BlockNumber": "0x16c1d47"
    },
    {
      "status": "0x1",
      "cumulativeGasUsed": "0x50c52",
      "logs": [
        {
          "address": "0x64dd1cb8a77fb55d4838897fd6f60e28b2e8fed8",
          "topics": [
            "0xc3d58168c5ae7397731d063d5bbf3d657854427343f4c083240f7aacaa2d0f62",
            "0x000000000000000000000000634989990acb7f95d07ac09a6c35491ac8dfa3cf",
            "0x0000000000000000000000000000000000000000000000000000000000000000",
            "0x000000000000000000000000634989990acb7f95d07ac09a6c35491ac8dfa3cf"
          ],
          "data": "0x00000000000000000000000000000000000000000000000000000000000000290000000000000000000000000000000000000000000000000000000000000001",
          "blockHash": "0x0cf160a5ca0160afa9413af854ae55a5b8764dade1f6d7882f4204ee42307103",
          "blockNumber": "0x1b9214d",
          "transactionHash": "0x3b63e471f97a85359a2216d3ee352b721e666ab8d9962d036c175a0a05e326e6",
          "transactionIndex": "0x6",
          "logIndex": "0x5",
          "removed": false
        }
      ],
      "logsBloom": "0x00000000000000000000000000000000000000000000000000000000000000000000000000000000000000000000100000000000000000000000000000002000000000000000000000000000400000000000000000000000000000000000000000000000020000000000000000000800000000000000000000000008000000000000000000000000000000000000000000000000000000000000800000000000000000000000000000000000000000000000000000008000000000000000000000000000000000000000000000000000000000000008000000000000000020000000200000000000000000000000000000000000000000000000080000000000",
      "type": "0x2",
      "transactionHash": "0x3b63e471f97a85359a2216d3ee352b721e666ab8d9962d036c175a0a05e326e6",
      "transactionIndex": "0x6",
      "blockHash": "0x0cf160a5ca0160afa9413af854ae55a5b8764dade1f6d7882f4204ee42307103",
      "blockNumber": "0x1b9214d",
      "gasUsed": "0xd763",
      "effectiveGasPrice": "0x5eb30f250",
      "from": "0x634989990acb7f95d07ac09a6c35491ac8dfa3cf",
      "to": "0x64dd1cb8a77fb55d4838897fd6f60e28b2e8fed8",
      "contractAddress": null,
      "gasUsedForL1": "0x18",
      "l1BlockNumber": "0x16c1d47"
    },
    {
      "status": "0x1",
      "cumulativeGasUsed": "0x5e3b5",
      "logs": [
        {
          "address": "0x64dd1cb8a77fb55d4838897fd6f60e28b2e8fed8",
          "topics": [
            "0xc3d58168c5ae7397731d063d5bbf3d657854427343f4c083240f7aacaa2d0f62",
            "0x000000000000000000000000634989990acb7f95d07ac09a6c35491ac8dfa3cf",
            "0x0000000000000000000000000000000000000000000000000000000000000000",
            "0x000000000000000000000000634989990acb7f95d07ac09a6c35491ac8dfa3cf"
          ],
          "data": "0x000000000000000000000000000000000000000000000000000000000000002a0000000000000000000000000000000000000000000000000000000000000001",
          "blockHash": "0x0cf160a5ca0160afa9413af854ae55a5b8764dade1f6d7882f4204ee42307103",
          "blockNumber": "0x1b9214d",
          "transactionHash": "0xf8d327375fda2b6952dc6430436267aadb5f5468c8b83a9761c7efd7af0c0b6e",
          "transactionIndex": "0x7",
          "logIndex": "0x6",
          "removed": false
        }
      ],
      "logsBloom": "0x00000000000000000000000000000000000000000000000000000000000000000000000000000000000000000000100000000000000000000000000000002000000000000000000000000000400000000000000000000000000000000000000000000000020000000000000000000800000000000000000000000008000000000000000000000000000000000000000000000000000000000000800000000000000000000000000000000000000000000000000000008000000000000000000000000000000000000000000000000000000000000008000000000000000020000000200000000000000000000000000000000000000000000000080000000000",
      "type": "0x2",
      "transactionHash": "0xf8d327375fda2b6952dc6430436267aadb5f5468c8b83a9761c7efd7af0c0b6e",
      "transactionIndex": "0x7",
      "blockHash": "0x0cf160a5ca0160afa9413af854ae55a5b8764dade1f6d7882f4204ee42307103",
      "blockNumber": "0x1b9214d",
      "gasUsed": "0xd763",
      "effectiveGasPrice": "0x5eb30f250",
      "from": "0x634989990acb7f95d07ac09a6c35491ac8dfa3cf",
      "to": "0x64dd1cb8a77fb55d4838897fd6f60e28b2e8fed8",
      "contractAddress": null,
      "gasUsedForL1": "0x18",
      "l1BlockNumber": "0x16c1d47"
    },
    {
      "status": "0x1",
      "cumulativeGasUsed": "0xd763",
      "logs": [
        {
          "address": "0x64dd1cb8a77fb55d4838897fd6f60e28b2e8fed8",
          "topics": [
            "0xc3d58168c5ae7397731d063d5bbf3d657854427343f4c083240f7aacaa2d0f62",
            "0x000000000000000000000000634989990acb7f95d07ac09a6c35491ac8dfa3cf",
            "0x0000000000000000000000000000000000000000000000000000000000000000",
            "0x000000000000000000000000634989990acb7f95d07ac09a6c35491ac8dfa3cf"
          ],
          "data": "0x000000000000000000000000000000000000000000000000000000000000002b0000000000000000000000000000000000000000000000000000000000000001",
          "blockHash": "0x966eb7e2cd4d65f3568cef49240c4d1d8d713fb26a09e1c3e08bc66f9ce68638",
          "blockNumber": "0x1b9214e",
          "transactionHash": "0xf29ec9de8d4d982592b1df67993de32360fd72a0bc7b98263132ca743621b3cf",
          "transactionIndex": "0x1",
          "logIndex": "0x0",
          "removed": false
        }
      ],
      "logsBloom": "0x00000000000000000000000000000000000000000000000000000000000000000000000000000000000000000000100000000000000000000000000000002000000000000000000000000000400000000000000000000000000000000000000000000000020000000000000000000800000000000000000000000008000000000000000000000000000000000000000000000000000000000000800000000000000000000000000000000000000000000000000000008000000000000000000000000000000000000000000000000000000000000008000000000000000020000000200000000000000000000000000000000000000000000000080000000000",
      "type": "0x2",
      "transactionHash": "0xf29ec9de8d4d982592b1df67993de32360fd72a0bc7b98263132ca743621b3cf",
      "transactionIndex": "0x1",
      "blockHash": "0x966eb7e2cd4d65f3568cef49240c4d1d8d713fb26a09e1c3e08bc66f9ce68638",
      "blockNumber": "0x1b9214e",
      "gasUsed": "0xd763",
      "effectiveGasPrice": "0x5eb30f250",
      "from": "0x634989990acb7f95d07ac09a6c35491ac8dfa3cf",
      "to": "0x64dd1cb8a77fb55d4838897fd6f60e28b2e8fed8",
      "contractAddress": null,
      "gasUsedForL1": "0x18",
      "l1BlockNumber": "0x16c1d47"
    },
    {
      "status": "0x1",
      "cumulativeGasUsed": "0x1aec6",
      "logs": [
        {
          "address": "0x64dd1cb8a77fb55d4838897fd6f60e28b2e8fed8",
          "topics": [
            "0xc3d58168c5ae7397731d063d5bbf3d657854427343f4c083240f7aacaa2d0f62",
            "0x000000000000000000000000634989990acb7f95d07ac09a6c35491ac8dfa3cf",
            "0x0000000000000000000000000000000000000000000000000000000000000000",
            "0x000000000000000000000000634989990acb7f95d07ac09a6c35491ac8dfa3cf"
          ],
          "data": "0x000000000000000000000000000000000000000000000000000000000000002c0000000000000000000000000000000000000000000000000000000000000001",
          "blockHash": "0x966eb7e2cd4d65f3568cef49240c4d1d8d713fb26a09e1c3e08bc66f9ce68638",
          "blockNumber": "0x1b9214e",
          "transactionHash": "0x677c39014bfd443915824e9cba8e6b8edd1c0c973231d4b2a7a099f080539e80",
          "transactionIndex": "0x2",
          "logIndex": "0x1",
          "removed": false
        }
      ],
      "logsBloom": "0x00000000000000000000000000000000000000000000000000000000000000000000000000000000000000000000100000000000000000000000000000002000000000000000000000000000400000000000000000000000000000000000000000000000020000000000000000000800000000000000000000000008000000000000000000000000000000000000000000000000000000000000800000000000000000000000000000000000000000000000000000008000000000000000000000000000000000000000000000000000000000000008000000000000000020000000200000000000000000000000000000000000000000000000080000000000",
      "type": "0x2",
      "transactionHash": "0x677c39014bfd443915824e9cba8e6b8edd1c0c973231d4b2a7a099f080539e80",
      "transactionIndex": "0x2",
      "blockHash": "0x966eb7e2cd4d65f3568cef49240c4d1d8d713fb26a09e1c3e08bc66f9ce68638",
      "blockNumber": "0x1b9214e",
      "gasUsed": "0xd763",
      "effectiveGasPrice": "0x5eb30f250",
      "from": "0x634989990acb7f95d07ac09a6c35491ac8dfa3cf",
      "to": "0x64dd1cb8a77fb55d4838897fd6f60e28b2e8fed8",
      "contractAddress": null,
      "gasUsedForL1": "0x18",
      "l1BlockNumber": "0x16c1d47"
    },
    {
      "status": "0x1",
      "cumulativeGasUsed": "0x28629",
      "logs": [
        {
          "address": "0x64dd1cb8a77fb55d4838897fd6f60e28b2e8fed8",
          "topics": [
            "0xc3d58168c5ae7397731d063d5bbf3d657854427343f4c083240f7aacaa2d0f62",
            "0x000000000000000000000000634989990acb7f95d07ac09a6c35491ac8dfa3cf",
            "0x0000000000000000000000000000000000000000000000000000000000000000",
            "0x000000000000000000000000634989990acb7f95d07ac09a6c35491ac8dfa3cf"
          ],
          "data": "0x000000000000000000000000000000000000000000000000000000000000002d0000000000000000000000000000000000000000000000000000000000000001",
          "blockHash": "0x966eb7e2cd4d65f3568cef49240c4d1d8d713fb26a09e1c3e08bc66f9ce68638",
          "blockNumber": "0x1b9214e",
          "transactionHash": "0x1a60a1e9376e5a33b4943ef566f7c35909678066a313834f1f828b51fd5a3b14",
          "transactionIndex": "0x3",
          "logIndex": "0x2",
          "removed": false
        }
      ],
      "logsBloom": "0x00000000000000000000000000000000000000000000000000000000000000000000000000000000000000000000100000000000000000000000000000002000000000000000000000000000400000000000000000000000000000000000000000000000020000000000000000000800000000000000000000000008000000000000000000000000000000000000000000000000000000000000800000000000000000000000000000000000000000000000000000008000000000000000000000000000000000000000000000000000000000000008000000000000000020000000200000000000000000000000000000000000000000000000080000000000",
      "type": "0x2",
      "transactionHash": "0x1a60a1e9376e5a33b4943ef566f7c35909678066a313834f1f828b51fd5a3b14",
      "transactionIndex": "0x3",
      "blockHash": "0x966eb7e2cd4d65f3568cef49240c4d1d8d713fb26a09e1c3e08bc66f9ce68638",
      "blockNumber": "0x1b9214e",
      "gasUsed": "0xd763",
      "effectiveGasPrice": "0x5eb30f250",
      "from": "0x634989990acb7f95d07ac09a6c35491ac8dfa3cf",
      "to": "0x64dd1cb8a77fb55d4838897fd6f60e28b2e8fed8",
      "contractAddress": null,
      "gasUsedForL1": "0x18",
      "l1BlockNumber": "0x16c1d47"
    },
    {
      "status": "0x1",
      "cumulativeGasUsed": "0x35d8c",
      "logs": [
        {
          "address": "0x64dd1cb8a77fb55d4838897fd6f60e28b2e8fed8",
          "topics": [
            "0xc3d58168c5ae7397731d063d5bbf3d657854427343f4c083240f7aacaa2d0f62",
            "0x000000000000000000000000634989990acb7f95d07ac09a6c35491ac8dfa3cf",
            "0x0000000000000000000000000000000000000000000000000000000000000000",
            "0x000000000000000000000000634989990acb7f95d07ac09a6c35491ac8dfa3cf"
          ],
          "data": "0x000000000000000000000000000000000000000000000000000000000000002e0000000000000000000000000000000000000000000000000000000000000001",
          "blockHash": "0x966eb7e2cd4d65f3568cef49240c4d1d8d713fb26a09e1c3e08bc66f9ce68638",
          "blockNumber": "0x1b9214e",
          "transactionHash": "0x97231ce9e31ff121aa9320daf3a31f401c31b80287ecd783f2c0959e7be91d6a",
          "transactionIndex": "0x4",
          "logIndex": "0x3",
          "removed": false
        }
      ],
      "logsBloom": "0x00000000000000000000000000000000000000000000000000000000000000000000000000000000000000000000100000000000000000000000000000002000000000000000000000000000400000000000000000000000000000000000000000000000020000000000000000000800000000000000000000000008000000000000000000000000000000000000000000000000000000000000800000000000000000000000000000000000000000000000000000008000000000000000000000000000000000000000000000000000000000000008000000000000000020000000200000000000000000000000000000000000000000000000080000000000",
      "type": "0x2",
      "transactionHash": "0x97231ce9e31ff121aa9320daf3a31f401c31b80287ecd783f2c0959e7be91d6a",
      "transactionIndex": "0x4",
      "blockHash": "0x966eb7e2cd4d65f3568cef49240c4d1d8d713fb26a09e1c3e08bc66f9ce68638",
      "blockNumber": "0x1b9214e",
      "gasUsed": "0xd763",
      "effectiveGasPrice": "0x5eb30f250",
      "from": "0x634989990acb7f95d07ac09a6c35491ac8dfa3cf",
      "to": "0x64dd1cb8a77fb55d4838897fd6f60e28b2e8fed8",
      "contractAddress": null,
      "gasUsedForL1": "0x18",
      "l1BlockNumber": "0x16c1d47"
    },
    {
      "status": "0x1",
      "cumulativeGasUsed": "0x434ef",
      "logs": [
        {
          "address": "0x64dd1cb8a77fb55d4838897fd6f60e28b2e8fed8",
          "topics": [
            "0xc3d58168c5ae7397731d063d5bbf3d657854427343f4c083240f7aacaa2d0f62",
            "0x000000000000000000000000634989990acb7f95d07ac09a6c35491ac8dfa3cf",
            "0x0000000000000000000000000000000000000000000000000000000000000000",
            "0x000000000000000000000000634989990acb7f95d07ac09a6c35491ac8dfa3cf"
          ],
          "data": "0x000000000000000000000000000000000000000000000000000000000000002f0000000000000000000000000000000000000000000000000000000000000001",
          "blockHash": "0x966eb7e2cd4d65f3568cef49240c4d1d8d713fb26a09e1c3e08bc66f9ce68638",
          "blockNumber": "0x1b9214e",
          "transactionHash": "0x8e726ea21bbead68dc07694c21e8f810f1bc221221513efd4e451bfa9516268a",
          "transactionIndex": "0x5",
          "logIndex": "0x4",
          "removed": false
        }
      ],
      "logsBloom": "0x00000000000000000000000000000000000000000000000000000000000000000000000000000000000000000000100000000000000000000000000000002000000000000000000000000000400000000000000000000000000000000000000000000000020000000000000000000800000000000000000000000008000000000000000000000000000000000000000000000000000000000000800000000000000000000000000000000000000000000000000000008000000000000000000000000000000000000000000000000000000000000008000000000000000020000000200000000000000000000000000000000000000000000000080000000000",
      "type": "0x2",
      "transactionHash": "0x8e726ea21bbead68dc07694c21e8f810f1bc221221513efd4e451bfa9516268a",
      "transactionIndex": "0x5",
      "blockHash": "0x966eb7e2cd4d65f3568cef49240c4d1d8d713fb26a09e1c3e08bc66f9ce68638",
      "blockNumber": "0x1b9214e",
      "gasUsed": "0xd763",
      "effectiveGasPrice": "0x5eb30f250",
      "from": "0x634989990acb7f95d07ac09a6c35491ac8dfa3cf",
      "to": "0x64dd1cb8a77fb55d4838897fd6f60e28b2e8fed8",
      "contractAddress": null,
      "gasUsedForL1": "0x18",
      "l1BlockNumber": "0x16c1d47"
    },
    {
      "status": "0x1",
      "cumulativeGasUsed": "0x50c52",
      "logs": [
        {
          "address": "0x64dd1cb8a77fb55d4838897fd6f60e28b2e8fed8",
          "topics": [
            "0xc3d58168c5ae7397731d063d5bbf3d657854427343f4c083240f7aacaa2d0f62",
            "0x000000000000000000000000634989990acb7f95d07ac09a6c35491ac8dfa3cf",
            "0x0000000000000000000000000000000000000000000000000000000000000000",
            "0x000000000000000000000000634989990acb7f95d07ac09a6c35491ac8dfa3cf"
          ],
          "data": "0x00000000000000000000000000000000000000000000000000000000000000300000000000000000000000000000000000000000000000000000000000000001",
          "blockHash": "0x966eb7e2cd4d65f3568cef49240c4d1d8d713fb26a09e1c3e08bc66f9ce68638",
          "blockNumber": "0x1b9214e",
          "transactionHash": "0xd9a131176fd7f00dc47a881437031e4338898e3409d2b4f7ed86a17feedf98e1",
          "transactionIndex": "0x6",
          "logIndex": "0x5",
          "removed": false
        }
      ],
      "logsBloom": "0x00000000000000000000000000000000000000000000000000000000000000000000000000000000000000000000100000000000000000000000000000002000000000000000000000000000400000000000000000000000000000000000000000000000020000000000000000000800000000000000000000000008000000000000000000000000000000000000000000000000000000000000800000000000000000000000000000000000000000000000000000008000000000000000000000000000000000000000000000000000000000000008000000000000000020000000200000000000000000000000000000000000000000000000080000000000",
      "type": "0x2",
      "transactionHash": "0xd9a131176fd7f00dc47a881437031e4338898e3409d2b4f7ed86a17feedf98e1",
      "transactionIndex": "0x6",
      "blockHash": "0x966eb7e2cd4d65f3568cef49240c4d1d8d713fb26a09e1c3e08bc66f9ce68638",
      "blockNumber": "0x1b9214e",
      "gasUsed": "0xd763",
      "effectiveGasPrice": "0x5eb30f250",
      "from": "0x634989990acb7f95d07ac09a6c35491ac8dfa3cf",
      "to": "0x64dd1cb8a77fb55d4838897fd6f60e28b2e8fed8",
      "contractAddress": null,
      "gasUsedForL1": "0x18",
      "l1BlockNumber": "0x16c1d47"
    },
    {
      "status": "0x1",
      "cumulativeGasUsed": "0x5e3b5",
      "logs": [
        {
          "address": "0x64dd1cb8a77fb55d4838897fd6f60e28b2e8fed8",
          "topics": [
            "0xc3d58168c5ae7397731d063d5bbf3d657854427343f4c083240f7aacaa2d0f62",
            "0x000000000000000000000000634989990acb7f95d07ac09a6c35491ac8dfa3cf",
            "0x0000000000000000000000000000000000000000000000000000000000000000",
            "0x000000000000000000000000634989990acb7f95d07ac09a6c35491ac8dfa3cf"
          ],
          "data": "0x00000000000000000000000000000000000000000000000000000000000000310000000000000000000000000000000000000000000000000000000000000001",
          "blockHash": "0x966eb7e2cd4d65f3568cef49240c4d1d8d713fb26a09e1c3e08bc66f9ce68638",
          "blockNumber": "0x1b9214e",
          "transactionHash": "0x332f52a0a27765eadef4799e34f1f2edb3bbb02d206160291179b4dc4abb665e",
          "transactionIndex": "0x7",
          "logIndex": "0x6",
          "removed": false
        }
      ],
      "logsBloom": "0x00000000000000000000000000000000000000000000000000000000000000000000000000000000000000000000100000000000000000000000000000002000000000000000000000000000400000000000000000000000000000000000000000000000020000000000000000000800000000000000000000000008000000000000000000000000000000000000000000000000000000000000800000000000000000000000000000000000000000000000000000008000000000000000000000000000000000000000000000000000000000000008000000000000000020000000200000000000000000000000000000000000000000000000080000000000",
      "type": "0x2",
      "transactionHash": "0x332f52a0a27765eadef4799e34f1f2edb3bbb02d206160291179b4dc4abb665e",
      "transactionIndex": "0x7",
      "blockHash": "0x966eb7e2cd4d65f3568cef49240c4d1d8d713fb26a09e1c3e08bc66f9ce68638",
      "blockNumber": "0x1b9214e",
      "gasUsed": "0xd763",
      "effectiveGasPrice": "0x5eb30f250",
      "from": "0x634989990acb7f95d07ac09a6c35491ac8dfa3cf",
      "to": "0x64dd1cb8a77fb55d4838897fd6f60e28b2e8fed8",
      "contractAddress": null,
      "gasUsedForL1": "0x18",
      "l1BlockNumber": "0x16c1d47"
    },
    {
      "status": "0x1",
      "cumulativeGasUsed": "0xd763",
      "logs": [
        {
          "address": "0x64dd1cb8a77fb55d4838897fd6f60e28b2e8fed8",
          "topics": [
            "0xc3d58168c5ae7397731d063d5bbf3d657854427343f4c083240f7aacaa2d0f62",
            "0x000000000000000000000000634989990acb7f95d07ac09a6c35491ac8dfa3cf",
            "0x0000000000000000000000000000000000000000000000000000000000000000",
            "0x000000000000000000000000634989990acb7f95d07ac09a6c35491ac8dfa3cf"
          ],
          "data": "0x00000000000000000000000000000000000000000000000000000000000000320000000000000000000000000000000000000000000000000000000000000001",
          "blockHash": "0x831d31ba1b16470f63a8bd02b265137221d0541ae98df305d333468c93ced2a0",
          "blockNumber": "0x1b9214f",
          "transactionHash": "0xf3e68076dae8dc7f38b04e347598ec169a0b22bee0816ac6e9fb5c543efb9b8d",
          "transactionIndex": "0x1",
          "logIndex": "0x0",
          "removed": false
        }
      ],
      "logsBloom": "0x00000000000000000000000000000000000000000000000000000000000000000000000000000000000000000000100000000000000000000000000000002000000000000000000000000000400000000000000000000000000000000000000000000000020000000000000000000800000000000000000000000008000000000000000000000000000000000000000000000000000000000000800000000000000000000000000000000000000000000000000000008000000000000000000000000000000000000000000000000000000000000008000000000000000020000000200000000000000000000000000000000000000000000000080000000000",
      "type": "0x2",
      "transactionHash": "0xf3e68076dae8dc7f38b04e347598ec169a0b22bee0816ac6e9fb5c543efb9b8d",
      "transactionIndex": "0x1",
      "blockHash": "0x831d31ba1b16470f63a8bd02b265137221d0541ae98df305d333468c93ced2a0",
      "blockNumber": "0x1b9214f",
      "gasUsed": "0xd763",
      "effectiveGasPrice": "0x5eb30f250",
      "from": "0x634989990acb7f95d07ac09a6c35491ac8dfa3cf",
      "to": "0x64dd1cb8a77fb55d4838897fd6f60e28b2e8fed8",
      "contractAddress": null,
      "gasUsedForL1": "0x18",
      "l1BlockNumber": "0x16c1d47"
    },
    {
      "status": "0x1",
      "cumulativeGasUsed": "0x1aec6",
      "logs": [
        {
          "address": "0x64dd1cb8a77fb55d4838897fd6f60e28b2e8fed8",
          "topics": [
            "0xc3d58168c5ae7397731d063d5bbf3d657854427343f4c083240f7aacaa2d0f62",
            "0x000000000000000000000000634989990acb7f95d07ac09a6c35491ac8dfa3cf",
            "0x0000000000000000000000000000000000000000000000000000000000000000",
            "0x000000000000000000000000634989990acb7f95d07ac09a6c35491ac8dfa3cf"
          ],
          "data": "0x00000000000000000000000000000000000000000000000000000000000000330000000000000000000000000000000000000000000000000000000000000001",
          "blockHash": "0x831d31ba1b16470f63a8bd02b265137221d0541ae98df305d333468c93ced2a0",
          "blockNumber": "0x1b9214f",
          "transactionHash": "0x867f933bbe567621f10b292bece259d0a08d5799f448b72d82eca2166393a7a1",
          "transactionIndex": "0x2",
          "logIndex": "0x1",
          "removed": false
        }
      ],
      "logsBloom": "0x00000000000000000000000000000000000000000000000000000000000000000000000000000000000000000000100000000000000000000000000000002000000000000000000000000000400000000000000000000000000000000000000000000000020000000000000000000800000000000000000000000008000000000000000000000000000000000000000000000000000000000000800000000000000000000000000000000000000000000000000000008000000000000000000000000000000000000000000000000000000000000008000000000000000020000000200000000000000000000000000000000000000000000000080000000000",
      "type": "0x2",
      "transactionHash": "0x867f933bbe567621f10b292bece259d0a08d5799f448b72d82eca2166393a7a1",
      "transactionIndex": "0x2",
      "blockHash": "0x831d31ba1b16470f63a8bd02b265137221d0541ae98df305d333468c93ced2a0",
      "blockNumber": "0x1b9214f",
      "gasUsed": "0xd763",
      "effectiveGasPrice": "0x5eb30f250",
      "from": "0x634989990acb7f95d07ac09a6c35491ac8dfa3cf",
      "to": "0x64dd1cb8a77fb55d4838897fd6f60e28b2e8fed8",
      "contractAddress": null,
      "gasUsedForL1": "0x18",
      "l1BlockNumber": "0x16c1d47"
    },
    {
      "status": "0x1",
      "cumulativeGasUsed": "0x28629",
      "logs": [
        {
          "address": "0x64dd1cb8a77fb55d4838897fd6f60e28b2e8fed8",
          "topics": [
            "0xc3d58168c5ae7397731d063d5bbf3d657854427343f4c083240f7aacaa2d0f62",
            "0x000000000000000000000000634989990acb7f95d07ac09a6c35491ac8dfa3cf",
            "0x0000000000000000000000000000000000000000000000000000000000000000",
            "0x000000000000000000000000634989990acb7f95d07ac09a6c35491ac8dfa3cf"
          ],
          "data": "0x00000000000000000000000000000000000000000000000000000000000000340000000000000000000000000000000000000000000000000000000000000001",
          "blockHash": "0x831d31ba1b16470f63a8bd02b265137221d0541ae98df305d333468c93ced2a0",
          "blockNumber": "0x1b9214f",
          "transactionHash": "0x7a8e91b89bc9dd56e66dc340f172897d09618fcf488995d39515d2d347bb76e7",
          "transactionIndex": "0x3",
          "logIndex": "0x2",
          "removed": false
        }
      ],
      "logsBloom": "0x00000000000000000000000000000000000000000000000000000000000000000000000000000000000000000000100000000000000000000000000000002000000000000000000000000000400000000000000000000000000000000000000000000000020000000000000000000800000000000000000000000008000000000000000000000000000000000000000000000000000000000000800000000000000000000000000000000000000000000000000000008000000000000000000000000000000000000000000000000000000000000008000000000000000020000000200000000000000000000000000000000000000000000000080000000000",
      "type": "0x2",
      "transactionHash": "0x7a8e91b89bc9dd56e66dc340f172897d09618fcf488995d39515d2d347bb76e7",
      "transactionIndex": "0x3",
      "blockHash": "0x831d31ba1b16470f63a8bd02b265137221d0541ae98df305d333468c93ced2a0",
      "blockNumber": "0x1b9214f",
      "gasUsed": "0xd763",
      "effectiveGasPrice": "0x5eb30f250",
      "from": "0x634989990acb7f95d07ac09a6c35491ac8dfa3cf",
      "to": "0x64dd1cb8a77fb55d4838897fd6f60e28b2e8fed8",
      "contractAddress": null,
      "gasUsedForL1": "0x18",
      "l1BlockNumber": "0x16c1d47"
    },
    {
      "status": "0x1",
      "cumulativeGasUsed": "0x35d8c",
      "logs": [
        {
          "address": "0x64dd1cb8a77fb55d4838897fd6f60e28b2e8fed8",
          "topics": [
            "0xc3d58168c5ae7397731d063d5bbf3d657854427343f4c083240f7aacaa2d0f62",
            "0x000000000000000000000000634989990acb7f95d07ac09a6c35491ac8dfa3cf",
            "0x0000000000000000000000000000000000000000000000000000000000000000",
            "0x000000000000000000000000634989990acb7f95d07ac09a6c35491ac8dfa3cf"
          ],
          "data": "0x00000000000000000000000000000000000000000000000000000000000000350000000000000000000000000000000000000000000000000000000000000001",
          "blockHash": "0x831d31ba1b16470f63a8bd02b265137221d0541ae98df305d333468c93ced2a0",
          "blockNumber": "0x1b9214f",
          "transactionHash": "0xf7b1900a38a7d137829a72602699a0f2cf4b56d57e6b6a8172bc4cd8f88f7d3e",
          "transactionIndex": "0x4",
          "logIndex": "0x3",
          "removed": false
        }
      ],
      "logsBloom": "0x00000000000000000000000000000000000000000000000000000000000000000000000000000000000000000000100000000000000000000000000000002000000000000000000000000000400000000000000000000000000000000000000000000000020000000000000000000800000000000000000000000008000000000000000000000000000000000000000000000000000000000000800000000000000000000000000000000000000000000000000000008000000000000000000000000000000000000000000000000000000000000008000000000000000020000000200000000000000000000000000000000000000000000000080000000000",
      "type": "0x2",
      "transactionHash": "0xf7b1900a38a7d137829a72602699a0f2cf4b56d57e6b6a8172bc4cd8f88f7d3e",
      "transactionIndex": "0x4",
      "blockHash": "0x831d31ba1b16470f63a8bd02b265137221d0541ae98df305d333468c93ced2a0",
      "blockNumber": "0x1b9214f",
      "gasUsed": "0xd763",
      "effectiveGasPrice": "0x5eb30f250",
      "from": "0x634989990acb7f95d07ac09a6c35491ac8dfa3cf",
      "to": "0x64dd1cb8a77fb55d4838897fd6f60e28b2e8fed8",
      "contractAddress": null,
      "gasUsedForL1": "0x18",
      "l1BlockNumber": "0x16c1d47"
    },
    {
      "status": "0x1",
      "cumulativeGasUsed": "0x434ef",
      "logs": [
        {
          "address": "0x64dd1cb8a77fb55d4838897fd6f60e28b2e8fed8",
          "topics": [
            "0xc3d58168c5ae7397731d063d5bbf3d657854427343f4c083240f7aacaa2d0f62",
            "0x000000000000000000000000634989990acb7f95d07ac09a6c35491ac8dfa3cf",
            "0x0000000000000000000000000000000000000000000000000000000000000000",
            "0x000000000000000000000000634989990acb7f95d07ac09a6c35491ac8dfa3cf"
          ],
          "data": "0x00000000000000000000000000000000000000000000000000000000000000360000000000000000000000000000000000000000000000000000000000000001",
          "blockHash": "0x831d31ba1b16470f63a8bd02b265137221d0541ae98df305d333468c93ced2a0",
          "blockNumber": "0x1b9214f",
          "transactionHash": "0x9dd3a4806be253c55c83eca0997a882694ec5ac19081cad8b01b5d0c85e8effd",
          "transactionIndex": "0x5",
          "logIndex": "0x4",
          "removed": false
        }
      ],
      "logsBloom": "0x00000000000000000000000000000000000000000000000000000000000000000000000000000000000000000000100000000000000000000000000000002000000000000000000000000000400000000000000000000000000000000000000000000000020000000000000000000800000000000000000000000008000000000000000000000000000000000000000000000000000000000000800000000000000000000000000000000000000000000000000000008000000000000000000000000000000000000000000000000000000000000008000000000000000020000000200000000000000000000000000000000000000000000000080000000000",
      "type": "0x2",
      "transactionHash": "0x9dd3a4806be253c55c83eca0997a882694ec5ac19081cad8b01b5d0c85e8effd",
      "transactionIndex": "0x5",
      "blockHash": "0x831d31ba1b16470f63a8bd02b265137221d0541ae98df305d333468c93ced2a0",
      "blockNumber": "0x1b9214f",
      "gasUsed": "0xd763",
      "effectiveGasPrice": "0x5eb30f250",
      "from": "0x634989990acb7f95d07ac09a6c35491ac8dfa3cf",
      "to": "0x64dd1cb8a77fb55d4838897fd6f60e28b2e8fed8",
      "contractAddress": null,
      "gasUsedForL1": "0x18",
      "l1BlockNumber": "0x16c1d47"
    },
    {
      "status": "0x1",
      "cumulativeGasUsed": "0x50c52",
      "logs": [
        {
          "address": "0x64dd1cb8a77fb55d4838897fd6f60e28b2e8fed8",
          "topics": [
            "0xc3d58168c5ae7397731d063d5bbf3d657854427343f4c083240f7aacaa2d0f62",
            "0x000000000000000000000000634989990acb7f95d07ac09a6c35491ac8dfa3cf",
            "0x0000000000000000000000000000000000000000000000000000000000000000",
            "0x000000000000000000000000634989990acb7f95d07ac09a6c35491ac8dfa3cf"
          ],
          "data": "0x00000000000000000000000000000000000000000000000000000000000000370000000000000000000000000000000000000000000000000000000000000001",
          "blockHash": "0x831d31ba1b16470f63a8bd02b265137221d0541ae98df305d333468c93ced2a0",
          "blockNumber": "0x1b9214f",
          "transactionHash": "0xb3d70bb1142222a89c0a1cb29f9f6552ab2731722721edc137eac2a2fb7dd2d1",
          "transactionIndex": "0x6",
          "logIndex": "0x5",
          "removed": false
        }
      ],
      "logsBloom": "0x00000000000000000000000000000000000000000000000000000000000000000000000000000000000000000000100000000000000000000000000000002000000000000000000000000000400000000000000000000000000000000000000000000000020000000000000000000800000000000000000000000008000000000000000000000000000000000000000000000000000000000000800000000000000000000000000000000000000000000000000000008000000000000000000000000000000000000000000000000000000000000008000000000000000020000000200000000000000000000000000000000000000000000000080000000000",
      "type": "0x2",
      "transactionHash": "0xb3d70bb1142222a89c0a1cb29f9f6552ab2731722721edc137eac2a2fb7dd2d1",
      "transactionIndex": "0x6",
      "blockHash": "0x831d31ba1b16470f63a8bd02b265137221d0541ae98df305d333468c93ced2a0",
      "blockNumber": "0x1b9214f",
      "gasUsed": "0xd763",
      "effectiveGasPrice": "0x5eb30f250",
      "from": "0x634989990acb7f95d07ac09a6c35491ac8dfa3cf",
      "to": "0x64dd1cb8a77fb55d4838897fd6f60e28b2e8fed8",
      "contractAddress": null,
      "gasUsedForL1": "0x18",
      "l1BlockNumber": "0x16c1d47"
    },
    {
      "status": "0x1",
      "cumulativeGasUsed": "0x5e3b5",
      "logs": [
        {
          "address": "0x64dd1cb8a77fb55d4838897fd6f60e28b2e8fed8",
          "topics": [
            "0xc3d58168c5ae7397731d063d5bbf3d657854427343f4c083240f7aacaa2d0f62",
            "0x000000000000000000000000634989990acb7f95d07ac09a6c35491ac8dfa3cf",
            "0x0000000000000000000000000000000000000000000000000000000000000000",
            "0x000000000000000000000000634989990acb7f95d07ac09a6c35491ac8dfa3cf"
          ],
          "data": "0x00000000000000000000000000000000000000000000000000000000000000380000000000000000000000000000000000000000000000000000000000000001",
          "blockHash": "0x831d31ba1b16470f63a8bd02b265137221d0541ae98df305d333468c93ced2a0",
          "blockNumber": "0x1b9214f",
          "transactionHash": "0x9a58612119f327775f334d98e3ebb00e5cd35f72bdc161ad1e3b9efa0a53e006",
          "transactionIndex": "0x7",
          "logIndex": "0x6",
          "removed": false
        }
      ],
      "logsBloom": "0x00000000000000000000000000000000000000000000000000000000000000000000000000000000000000000000100000000000000000000000000000002000000000000000000000000000400000000000000000000000000000000000000000000000020000000000000000000800000000000000000000000008000000000000000000000000000000000000000000000000000000000000800000000000000000000000000000000000000000000000000000008000000000000000000000000000000000000000000000000000000000000008000000000000000020000000200000000000000000000000000000000000000000000000080000000000",
      "type": "0x2",
      "transactionHash": "0x9a58612119f327775f334d98e3ebb00e5cd35f72bdc161ad1e3b9efa0a53e006",
      "transactionIndex": "0x7",
      "blockHash": "0x831d31ba1b16470f63a8bd02b265137221d0541ae98df305d333468c93ced2a0",
      "blockNumber": "0x1b9214f",
      "gasUsed": "0xd763",
      "effectiveGasPrice": "0x5eb30f250",
      "from": "0x634989990acb7f95d07ac09a6c35491ac8dfa3cf",
      "to": "0x64dd1cb8a77fb55d4838897fd6f60e28b2e8fed8",
      "contractAddress": null,
      "gasUsedForL1": "0x18",
      "l1BlockNumber": "0x16c1d47"
    },
    {
      "status": "0x1",
      "cumulativeGasUsed": "0x42a50",
      "logs": [
        {
          "address": "0x64dd1cb8a77fb55d4838897fd6f60e28b2e8fed8",
          "topics": [
            "0xc3d58168c5ae7397731d063d5bbf3d657854427343f4c083240f7aacaa2d0f62",
            "0x000000000000000000000000634989990acb7f95d07ac09a6c35491ac8dfa3cf",
            "0x0000000000000000000000000000000000000000000000000000000000000000",
            "0x000000000000000000000000634989990acb7f95d07ac09a6c35491ac8dfa3cf"
          ],
          "data": "0x00000000000000000000000000000000000000000000000000000000000000390000000000000000000000000000000000000000000000000000000000000001",
          "blockHash": "0x93f638e5e064fe71d9814303d81c22ce329a8b43d7dfe9c1c076dbd0c28ff03e",
          "blockNumber": "0x1b92150",
          "transactionHash": "0xf27ff1010a7881e5098d79a747e0357195e1513ac59ed955cd97b840e815c07f",
          "transactionIndex": "0x2",
          "logIndex": "0x4",
          "removed": false
        }
      ],
      "logsBloom": "0x00000000000000000000000000000000000000000000000000000000000000000000000000000000000000000000100000000000000000000000000000002000000000000000000000000000400000000000000000000000000000000000000000000000020000000000000000000800000000000000000000000008000000000000000000000000000000000000000000000000000000000000800000000000000000000000000000000000000000000000000000008000000000000000000000000000000000000000000000000000000000000008000000000000000020000000200000000000000000000000000000000000000000000000080000000000",
      "type": "0x2",
      "transactionHash": "0xf27ff1010a7881e5098d79a747e0357195e1513ac59ed955cd97b840e815c07f",
      "transactionIndex": "0x2",
      "blockHash": "0x93f638e5e064fe71d9814303d81c22ce329a8b43d7dfe9c1c076dbd0c28ff03e",
      "blockNumber": "0x1b92150",
      "gasUsed": "0xd763",
      "effectiveGasPrice": "0x5eb30f250",
      "from": "0x634989990acb7f95d07ac09a6c35491ac8dfa3cf",
      "to": "0x64dd1cb8a77fb55d4838897fd6f60e28b2e8fed8",
      "contractAddress": null,
      "gasUsedForL1": "0x18",
      "l1BlockNumber": "0x16c1d47"
    },
    {
      "status": "0x1",
      "cumulativeGasUsed": "0x501b3",
      "logs": [
        {
          "address": "0x64dd1cb8a77fb55d4838897fd6f60e28b2e8fed8",
          "topics": [
            "0xc3d58168c5ae7397731d063d5bbf3d657854427343f4c083240f7aacaa2d0f62",
            "0x000000000000000000000000634989990acb7f95d07ac09a6c35491ac8dfa3cf",
            "0x0000000000000000000000000000000000000000000000000000000000000000",
            "0x000000000000000000000000634989990acb7f95d07ac09a6c35491ac8dfa3cf"
          ],
          "data": "0x000000000000000000000000000000000000000000000000000000000000003a0000000000000000000000000000000000000000000000000000000000000001",
          "blockHash": "0x93f638e5e064fe71d9814303d81c22ce329a8b43d7dfe9c1c076dbd0c28ff03e",
          "blockNumber": "0x1b92150",
          "transactionHash": "0xf57c296ddca42514d31d1e0e1bc3ed5b5edda066aae7962a7ccaf135b7b6f315",
          "transactionIndex": "0x3",
          "logIndex": "0x5",
          "removed": false
        }
      ],
      "logsBloom": "0x00000000000000000000000000000000000000000000000000000000000000000000000000000000000000000000100000000000000000000000000000002000000000000000000000000000400000000000000000000000000000000000000000000000020000000000000000000800000000000000000000000008000000000000000000000000000000000000000000000000000000000000800000000000000000000000000000000000000000000000000000008000000000000000000000000000000000000000000000000000000000000008000000000000000020000000200000000000000000000000000000000000000000000000080000000000",
      "type": "0x2",
      "transactionHash": "0xf57c296ddca42514d31d1e0e1bc3ed5b5edda066aae7962a7ccaf135b7b6f315",
      "transactionIndex": "0x3",
      "blockHash": "0x93f638e5e064fe71d9814303d81c22ce329a8b43d7dfe9c1c076dbd0c28ff03e",
      "blockNumber": "0x1b92150",
      "gasUsed": "0xd763",
      "effectiveGasPrice": "0x5eb30f250",
      "from": "0x634989990acb7f95d07ac09a6c35491ac8dfa3cf",
      "to": "0x64dd1cb8a77fb55d4838897fd6f60e28b2e8fed8",
      "contractAddress": null,
      "gasUsedForL1": "0x18",
      "l1BlockNumber": "0x16c1d47"
    },
    {
      "status": "0x1",
      "cumulativeGasUsed": "0x5d916",
      "logs": [
        {
          "address": "0x64dd1cb8a77fb55d4838897fd6f60e28b2e8fed8",
          "topics": [
            "0xc3d58168c5ae7397731d063d5bbf3d657854427343f4c083240f7aacaa2d0f62",
            "0x000000000000000000000000634989990acb7f95d07ac09a6c35491ac8dfa3cf",
            "0x0000000000000000000000000000000000000000000000000000000000000000",
            "0x000000000000000000000000634989990acb7f95d07ac09a6c35491ac8dfa3cf"
          ],
          "data": "0x000000000000000000000000000000000000000000000000000000000000003b0000000000000000000000000000000000000000000000000000000000000001",
          "blockHash": "0x93f638e5e064fe71d9814303d81c22ce329a8b43d7dfe9c1c076dbd0c28ff03e",
          "blockNumber": "0x1b92150",
          "transactionHash": "0x92f3dc6930ffd061dc2f2d11307fc34556491ba4a89acf219cb906598cd341ca",
          "transactionIndex": "0x4",
          "logIndex": "0x6",
          "removed": false
        }
      ],
      "logsBloom": "0x00000000000000000000000000000000000000000000000000000000000000000000000000000000000000000000100000000000000000000000000000002000000000000000000000000000400000000000000000000000000000000000000000000000020000000000000000000800000000000000000000000008000000000000000000000000000000000000000000000000000000000000800000000000000000000000000000000000000000000000000000008000000000000000000000000000000000000000000000000000000000000008000000000000000020000000200000000000000000000000000000000000000000000000080000000000",
      "type": "0x2",
      "transactionHash": "0x92f3dc6930ffd061dc2f2d11307fc34556491ba4a89acf219cb906598cd341ca",
      "transactionIndex": "0x4",
      "blockHash": "0x93f638e5e064fe71d9814303d81c22ce329a8b43d7dfe9c1c076dbd0c28ff03e",
      "blockNumber": "0x1b92150",
      "gasUsed": "0xd763",
      "effectiveGasPrice": "0x5eb30f250",
      "from": "0x634989990acb7f95d07ac09a6c35491ac8dfa3cf",
      "to": "0x64dd1cb8a77fb55d4838897fd6f60e28b2e8fed8",
      "contractAddress": null,
      "gasUsedForL1": "0x18",
      "l1BlockNumber": "0x16c1d47"
    },
    {
      "status": "0x1",
      "cumulativeGasUsed": "0x6b079",
      "logs": [
        {
          "address": "0x64dd1cb8a77fb55d4838897fd6f60e28b2e8fed8",
          "topics": [
            "0xc3d58168c5ae7397731d063d5bbf3d657854427343f4c083240f7aacaa2d0f62",
            "0x000000000000000000000000634989990acb7f95d07ac09a6c35491ac8dfa3cf",
            "0x0000000000000000000000000000000000000000000000000000000000000000",
            "0x000000000000000000000000634989990acb7f95d07ac09a6c35491ac8dfa3cf"
          ],
          "data": "0x000000000000000000000000000000000000000000000000000000000000003c0000000000000000000000000000000000000000000000000000000000000001",
          "blockHash": "0x93f638e5e064fe71d9814303d81c22ce329a8b43d7dfe9c1c076dbd0c28ff03e",
          "blockNumber": "0x1b92150",
          "transactionHash": "0xc13dda50e05677b6ed2c3602bb79c9cc8d720c951bdcd3e8d4bcf8530efa1dec",
          "transactionIndex": "0x5",
          "logIndex": "0x7",
          "removed": false
        }
      ],
      "logsBloom": "0x00000000000000000000000000000000000000000000000000000000000000000000000000000000000000000000100000000000000000000000000000002000000000000000000000000000400000000000000000000000000000000000000000000000020000000000000000000800000000000000000000000008000000000000000000000000000000000000000000000000000000000000800000000000000000000000000000000000000000000000000000008000000000000000000000000000000000000000000000000000000000000008000000000000000020000000200000000000000000000000000000000000000000000000080000000000",
      "type": "0x2",
      "transactionHash": "0xc13dda50e05677b6ed2c3602bb79c9cc8d720c951bdcd3e8d4bcf8530efa1dec",
      "transactionIndex": "0x5",
      "blockHash": "0x93f638e5e064fe71d9814303d81c22ce329a8b43d7dfe9c1c076dbd0c28ff03e",
      "blockNumber": "0x1b92150",
      "gasUsed": "0xd763",
      "effectiveGasPrice": "0x5eb30f250",
      "from": "0x634989990acb7f95d07ac09a6c35491ac8dfa3cf",
      "to": "0x64dd1cb8a77fb55d4838897fd6f60e28b2e8fed8",
      "contractAddress": null,
      "gasUsedForL1": "0x18",
      "l1BlockNumber": "0x16c1d47"
    },
    {
      "status": "0x1",
      "cumulativeGasUsed": "0x787dc",
      "logs": [
        {
          "address": "0x64dd1cb8a77fb55d4838897fd6f60e28b2e8fed8",
          "topics": [
            "0xc3d58168c5ae7397731d063d5bbf3d657854427343f4c083240f7aacaa2d0f62",
            "0x000000000000000000000000634989990acb7f95d07ac09a6c35491ac8dfa3cf",
            "0x0000000000000000000000000000000000000000000000000000000000000000",
            "0x000000000000000000000000634989990acb7f95d07ac09a6c35491ac8dfa3cf"
          ],
          "data": "0x000000000000000000000000000000000000000000000000000000000000003d0000000000000000000000000000000000000000000000000000000000000001",
          "blockHash": "0x93f638e5e064fe71d9814303d81c22ce329a8b43d7dfe9c1c076dbd0c28ff03e",
          "blockNumber": "0x1b92150",
          "transactionHash": "0x34d9ae13c78b8ae6445e5e0b4ecdb4b1bc17ee418a4533a80ae2e2a80c512a44",
          "transactionIndex": "0x6",
          "logIndex": "0x8",
          "removed": false
        }
      ],
      "logsBloom": "0x00000000000000000000000000000000000000000000000000000000000000000000000000000000000000000000100000000000000000000000000000002000000000000000000000000000400000000000000000000000000000000000000000000000020000000000000000000800000000000000000000000008000000000000000000000000000000000000000000000000000000000000800000000000000000000000000000000000000000000000000000008000000000000000000000000000000000000000000000000000000000000008000000000000000020000000200000000000000000000000000000000000000000000000080000000000",
      "type": "0x2",
      "transactionHash": "0x34d9ae13c78b8ae6445e5e0b4ecdb4b1bc17ee418a4533a80ae2e2a80c512a44",
      "transactionIndex": "0x6",
      "blockHash": "0x93f638e5e064fe71d9814303d81c22ce329a8b43d7dfe9c1c076dbd0c28ff03e",
      "blockNumber": "0x1b92150",
      "gasUsed": "0xd763",
      "effectiveGasPrice": "0x5eb30f250",
      "from": "0x634989990acb7f95d07ac09a6c35491ac8dfa3cf",
      "to": "0x64dd1cb8a77fb55d4838897fd6f60e28b2e8fed8",
      "contractAddress": null,
      "gasUsedForL1": "0x18",
      "l1BlockNumber": "0x16c1d47"
    },
    {
      "status": "0x1",
      "cumulativeGasUsed": "0x85f3f",
      "logs": [
        {
          "address": "0x64dd1cb8a77fb55d4838897fd6f60e28b2e8fed8",
          "topics": [
            "0xc3d58168c5ae7397731d063d5bbf3d657854427343f4c083240f7aacaa2d0f62",
            "0x000000000000000000000000634989990acb7f95d07ac09a6c35491ac8dfa3cf",
            "0x0000000000000000000000000000000000000000000000000000000000000000",
            "0x000000000000000000000000634989990acb7f95d07ac09a6c35491ac8dfa3cf"
          ],
          "data": "0x000000000000000000000000000000000000000000000000000000000000003e0000000000000000000000000000000000000000000000000000000000000001",
          "blockHash": "0x93f638e5e064fe71d9814303d81c22ce329a8b43d7dfe9c1c076dbd0c28ff03e",
          "blockNumber": "0x1b92150",
          "transactionHash": "0xa3c118975c9784745547fc04dbde879eb67b1e5bf27b314e7c8dce4907e2d941",
          "transactionIndex": "0x7",
          "logIndex": "0x9",
          "removed": false
        }
      ],
      "logsBloom": "0x00000000000000000000000000000000000000000000000000000000000000000000000000000000000000000000100000000000000000000000000000002000000000000000000000000000400000000000000000000000000000000000000000000000020000000000000000000800000000000000000000000008000000000000000000000000000000000000000000000000000000000000800000000000000000000000000000000000000000000000000000008000000000000000000000000000000000000000000000000000000000000008000000000000000020000000200000000000000000000000000000000000000000000000080000000000",
      "type": "0x2",
      "transactionHash": "0xa3c118975c9784745547fc04dbde879eb67b1e5bf27b314e7c8dce4907e2d941",
      "transactionIndex": "0x7",
      "blockHash": "0x93f638e5e064fe71d9814303d81c22ce329a8b43d7dfe9c1c076dbd0c28ff03e",
      "blockNumber": "0x1b92150",
      "gasUsed": "0xd763",
      "effectiveGasPrice": "0x5eb30f250",
      "from": "0x634989990acb7f95d07ac09a6c35491ac8dfa3cf",
      "to": "0x64dd1cb8a77fb55d4838897fd6f60e28b2e8fed8",
      "contractAddress": null,
      "gasUsedForL1": "0x18",
      "l1BlockNumber": "0x16c1d47"
    },
    {
      "status": "0x1",
      "cumulativeGasUsed": "0x936a2",
      "logs": [
        {
          "address": "0x64dd1cb8a77fb55d4838897fd6f60e28b2e8fed8",
          "topics": [
            "0xc3d58168c5ae7397731d063d5bbf3d657854427343f4c083240f7aacaa2d0f62",
            "0x000000000000000000000000634989990acb7f95d07ac09a6c35491ac8dfa3cf",
            "0x0000000000000000000000000000000000000000000000000000000000000000",
            "0x000000000000000000000000634989990acb7f95d07ac09a6c35491ac8dfa3cf"
          ],
          "data": "0x000000000000000000000000000000000000000000000000000000000000003f0000000000000000000000000000000000000000000000000000000000000001",
          "blockHash": "0x93f638e5e064fe71d9814303d81c22ce329a8b43d7dfe9c1c076dbd0c28ff03e",
          "blockNumber": "0x1b92150",
          "transactionHash": "0xfda25273f54fca12de8faa47c00745020038c80bb3453c95a57ce27c26298816",
          "transactionIndex": "0x8",
          "logIndex": "0xa",
          "removed": false
        }
      ],
      "logsBloom": "0x00000000000000000000000000000000000000000000000000000000000000000000000000000000000000000000100000000000000000000000000000002000000000000000000000000000400000000000000000000000000000000000000000000000020000000000000000000800000000000000000000000008000000000000000000000000000000000000000000000000000000000000800000000000000000000000000000000000000000000000000000008000000000000000000000000000000000000000000000000000000000000008000000000000000020000000200000000000000000000000000000000000000000000000080000000000",
      "type": "0x2",
      "transactionHash": "0xfda25273f54fca12de8faa47c00745020038c80bb3453c95a57ce27c26298816",
      "transactionIndex": "0x8",
      "blockHash": "0x93f638e5e064fe71d9814303d81c22ce329a8b43d7dfe9c1c076dbd0c28ff03e",
      "blockNumber": "0x1b92150",
      "gasUsed": "0xd763",
      "effectiveGasPrice": "0x5eb30f250",
      "from": "0x634989990acb7f95d07ac09a6c35491ac8dfa3cf",
      "to": "0x64dd1cb8a77fb55d4838897fd6f60e28b2e8fed8",
      "contractAddress": null,
      "gasUsedForL1": "0x18",
      "l1BlockNumber": "0x16c1d47"
    }
  ],
  "libraries": [],
  "pending": [],
  "returns": {},
  "timestamp": 1763913151,
  "chain": 33139,
  "commit": "1ec24db"
}